{
  "contractName": "ConcreteChainlinked",
  "abi": [
    {
      "inputs": [
        {
          "name": "_link",
          "type": "address"
        },
        {
          "name": "_oracle",
          "type": "address"
        }
      ],
      "payable": false,
      "stateMutability": "nonpayable",
      "type": "constructor"
    },
    {
      "anonymous": false,
      "inputs": [
        {
          "indexed": false,
          "name": "id",
          "type": "bytes32"
        },
        {
          "indexed": false,
          "name": "callbackAddress",
          "type": "address"
        },
        {
          "indexed": false,
          "name": "callbackfunctionSelector",
          "type": "bytes4"
        },
        {
          "indexed": false,
          "name": "data",
          "type": "bytes"
        }
      ],
      "name": "Request",
      "type": "event"
    },
    {
      "anonymous": false,
      "inputs": [
        {
          "indexed": false,
          "name": "amount",
          "type": "uint256"
        }
      ],
      "name": "LinkAmount",
      "type": "event"
    },
    {
      "anonymous": false,
      "inputs": [
        {
          "indexed": true,
          "name": "id",
          "type": "bytes32"
        }
      ],
      "name": "ChainlinkRequested",
      "type": "event"
    },
    {
      "anonymous": false,
      "inputs": [
        {
          "indexed": true,
          "name": "id",
          "type": "bytes32"
        }
      ],
      "name": "ChainlinkFulfilled",
      "type": "event"
    },
    {
      "anonymous": false,
      "inputs": [
        {
          "indexed": true,
          "name": "id",
          "type": "bytes32"
        }
      ],
      "name": "ChainlinkCancelled",
      "type": "event"
    },
    {
      "constant": false,
      "inputs": [
        {
          "name": "_id",
          "type": "bytes32"
        },
        {
          "name": "_address",
          "type": "address"
        },
        {
          "name": "_fulfillmentSignature",
          "type": "bytes"
        }
      ],
      "name": "publicNewRequest",
      "outputs": [],
      "payable": false,
      "stateMutability": "nonpayable",
      "type": "function"
    },
    {
      "constant": false,
      "inputs": [
        {
          "name": "_id",
          "type": "bytes32"
        },
        {
          "name": "_address",
          "type": "address"
        },
        {
          "name": "_fulfillmentSignature",
          "type": "bytes"
        },
        {
          "name": "_wei",
          "type": "uint256"
        }
      ],
      "name": "publicRequest",
      "outputs": [],
      "payable": false,
      "stateMutability": "nonpayable",
      "type": "function"
    },
    {
      "constant": false,
      "inputs": [
        {
          "name": "_oracle",
          "type": "address"
        },
        {
          "name": "_id",
          "type": "bytes32"
        },
        {
          "name": "_address",
          "type": "address"
        },
        {
          "name": "_fulfillmentSignature",
          "type": "bytes"
        },
        {
          "name": "_wei",
          "type": "uint256"
        }
      ],
      "name": "publicRequestRunTo",
      "outputs": [],
      "payable": false,
      "stateMutability": "nonpayable",
      "type": "function"
    },
    {
      "constant": false,
      "inputs": [
        {
          "name": "_requestId",
          "type": "bytes32"
        },
        {
          "name": "_payment",
          "type": "uint256"
        },
        {
          "name": "_callbackFunctionId",
          "type": "bytes4"
        },
        {
          "name": "_expiration",
          "type": "uint256"
        }
      ],
      "name": "publicCancelRequest",
      "outputs": [],
      "payable": false,
      "stateMutability": "nonpayable",
      "type": "function"
    },
    {
      "constant": true,
      "inputs": [],
      "name": "publicChainlinkToken",
      "outputs": [
        {
          "name": "",
          "type": "address"
        }
      ],
      "payable": false,
      "stateMutability": "view",
      "type": "function"
    },
    {
      "constant": false,
      "inputs": [
        {
          "name": "_requestId",
          "type": "bytes32"
        },
        {
          "name": "",
          "type": "bytes32"
        }
      ],
      "name": "fulfillRequest",
      "outputs": [],
      "payable": false,
      "stateMutability": "nonpayable",
      "type": "function"
    },
    {
      "constant": false,
      "inputs": [
        {
          "name": "_requestId",
          "type": "bytes32"
        },
        {
          "name": "",
          "type": "bytes32"
        }
      ],
      "name": "publicFulfillChainlinkRequest",
      "outputs": [],
      "payable": false,
      "stateMutability": "nonpayable",
      "type": "function"
    },
    {
      "constant": false,
      "inputs": [
        {
          "name": "_amount",
          "type": "uint256"
        }
      ],
      "name": "publicLINK",
      "outputs": [],
      "payable": false,
      "stateMutability": "nonpayable",
      "type": "function"
    },
    {
      "constant": true,
      "inputs": [],
      "name": "publicOracleAddress",
      "outputs": [
        {
          "name": "",
          "type": "address"
        }
      ],
      "payable": false,
      "stateMutability": "view",
      "type": "function"
    },
    {
      "constant": false,
      "inputs": [
        {
          "name": "_oracle",
          "type": "address"
        },
        {
          "name": "_requestId",
          "type": "bytes32"
        }
      ],
      "name": "publicAddExternalRequest",
      "outputs": [],
      "payable": false,
      "stateMutability": "nonpayable",
      "type": "function"
    }
  ],
  "bytecode": "0x6080604052600160045534801561001557600080fd5b5060405160408062001836833981018060405281019080805190602001909291908051906020019092919050505061005b8261007a640100000000026401000000009004565b61007381610095640100000000026401000000009004565b5050610138565b610092816100b0640100000000026401000000009004565b50565b6100ad816100f4640100000000026401000000009004565b50565b80600260006101000a81548173ffffffffffffffffffffffffffffffffffffffff021916908373ffffffffffffffffffffffffffffffffffffffff16021790555050565b80600360006101000a81548173ffffffffffffffffffffffffffffffffffffffff021916908373ffffffffffffffffffffffffffffffffffffffff16021790555050565b6116ee80620001486000396000f3006080604052600436106100a4576000357c0100000000000000000000000000000000000000000000000000000000900463ffffffff1680633f14df82146100a9578063448d6c10146100d65780635491ec6a146101445780635d64e3101461019557806366a4f350146101d457806398bb2b2d14610275578063a1179a27146102cc578063ad7e401c1461038d578063d9a26716146103cc578063f7ea03ff14610463575b600080fd5b3480156100b557600080fd5b506100d4600480360381019080803590602001909291905050506104ba565b005b3480156100e257600080fd5b5061014260048036038101908080356000191690602001909291908035906020019092919080357bffffffffffffffffffffffffffffffffffffffffffffffffffffffff191690602001909291908035906020019092919050505061050e565b005b34801561015057600080fd5b50610193600480360381019080803573ffffffffffffffffffffffffffffffffffffffff1690602001909291908035600019169060200190929190505050610520565b005b3480156101a157600080fd5b506101d26004803603810190808035600019169060200190929190803560001916906020019092919050505061052e565b005b3480156101e057600080fd5b506102736004803603810190808035600019169060200190929190803573ffffffffffffffffffffffffffffffffffffffff169060200190929190803590602001908201803590602001908080601f0160208091040260200160405190810160405280939291908181526020018383808284378201915050505050509192919290803590602001909291905050506106a7565b005b34801561028157600080fd5b5061028a610730565b604051808273ffffffffffffffffffffffffffffffffffffffff1673ffffffffffffffffffffffffffffffffffffffff16815260200191505060405180910390f35b3480156102d857600080fd5b5061038b600480360381019080803573ffffffffffffffffffffffffffffffffffffffff1690602001909291908035600019169060200190929190803573ffffffffffffffffffffffffffffffffffffffff169060200190929190803590602001908201803590602001908080601f01602080910402602001604051908101604052809392919081815260200183838082843782019150505050505091929192908035906020019092919050505061073f565b005b34801561039957600080fd5b506103ca600480360381019080803560001916906020019092919080356000191690602001909291905050506107ca565b005b3480156103d857600080fd5b506104616004803603810190808035600019169060200190929190803573ffffffffffffffffffffffffffffffffffffffff169060200190929190803590602001908201803590602001908080601f01602080910402602001604051908101604052809392919081815260200183838082843782019150505050505091929192905050506107d7565b005b34801561046f57600080fd5b5061047861098e565b604051808273ffffffffffffffffffffffffffffffffffffffff1673ffffffffffffffffffffffffffffffffffffffff16815260200191505060405180910390f35b7f81c82a6ea1ed1cf28a5376c6d13caab9047c853ec5107907ec9431c50ec1a85c6104f682670de0b6b3a764000061099d90919063ffffffff16565b6040518082815260200191505060405180910390a150565b61051a848484846109d5565b50505050565b61052a8282610b70565b5050565b8160056000826000191660001916815260200190815260200160002060009054906101000a900473ffffffffffffffffffffffffffffffffffffffff1673ffffffffffffffffffffffffffffffffffffffff163373ffffffffffffffffffffffffffffffffffffffff16141515610633576040517f08c379a00000000000000000000000000000000000000000000000000000000081526004018080602001828103825260288152602001807f536f75726365206d75737420626520746865206f7261636c65206f662074686581526020017f207265717565737400000000000000000000000000000000000000000000000081525060400191505060405180910390fd5b60056000826000191660001916815260200190815260200160002060006101000a81549073ffffffffffffffffffffffffffffffffffffffff021916905580600019167f7cc135e0cebb02c3480ae5d74d377283180a2601f8f644edf7987b009316c63a60405160405180910390a2505050565b6106af611620565b61071c8585856040518082805190602001908083835b6020831015156106ea57805182526020820191506020810190506020830392506106c5565b6001836020036101000a0380198251168184511680821785525050505050509050019150506040518091039020610b7e565b90506107288183610b9a565b505050505050565b600061073a610bae565b905090565b610747611620565b6107b48585856040518082805190602001908083835b602083101515610782578051825260208201915060208101905060208303925061075d565b6001836020036101000a0380198251168184511680821785525050505050509050019150506040518091039020610b7e565b90506107c1868284610bbd565b50505050505050565b6107d382610bd3565b5050565b6107df611620565b61084c8484846040518082805190602001908083835b60208310151561081a57805182526020820191506020810190506020830392506107f5565b6001836020036101000a0380198251168184511680821785525050505050509050019150506040518091039020610b7e565b90507f6ae3654efc50e419eaebe21a0569020545587e83c4409cfb1d3a4217cbed8a218160000151826020015183604001518460800151600001516040518085600019166000191681526020018473ffffffffffffffffffffffffffffffffffffffff1673ffffffffffffffffffffffffffffffffffffffff168152602001837bffffffffffffffffffffffffffffffffffffffffffffffffffffffff19167bffffffffffffffffffffffffffffffffffffffffffffffffffffffff1916815260200180602001828103825283818151815260200191508051906020019080838360005b8381101561094b578082015181840152602081019050610930565b50505050905090810190601f1680156109785780820380516001836020036101000a031916815260200191505b509550505050505060405180910390a150505050565b6000610998610d4b565b905090565b6000808314156109b057600090506109cf565b81830290508183828115156109c157fe5b041415156109cb57fe5b8090505b92915050565b600060056000866000191660001916815260200190815260200160002060009054906101000a900473ffffffffffffffffffffffffffffffffffffffff16905060056000866000191660001916815260200190815260200160002060006101000a81549073ffffffffffffffffffffffffffffffffffffffff021916905584600019167fe1fe3afa0f7f761ff0a8b89086790efd5140d2907ebd5b7ff6bfcb5e075fd4c560405160405180910390a28073ffffffffffffffffffffffffffffffffffffffff16636ee4d553868686866040518563ffffffff167c0100000000000000000000000000000000000000000000000000000000028152600401808560001916600019168152602001848152602001837bffffffffffffffffffffffffffffffffffffffffffffffffffffffff19167bffffffffffffffffffffffffffffffffffffffffffffffffffffffff19168152602001828152602001945050505050600060405180830381600087803b158015610b5157600080fd5b505af1158015610b65573d6000803e3d6000fd5b505050505050505050565b610b7a8282610d5a565b5050565b610b86611620565b610b91848484610e99565b90509392505050565b6000610ba68383610eca565b905092915050565b6000610bb8610f01565b905090565b6000610bca848484610f2b565b90509392505050565b8060056000826000191660001916815260200190815260200160002060009054906101000a900473ffffffffffffffffffffffffffffffffffffffff1673ffffffffffffffffffffffffffffffffffffffff163373ffffffffffffffffffffffffffffffffffffffff16141515610cd8576040517f08c379a00000000000000000000000000000000000000000000000000000000081526004018080602001828103825260288152602001807f536f75726365206d75737420626520746865206f7261636c65206f662074686581526020017f207265717565737400000000000000000000000000000000000000000000000081525060400191505060405180910390fd5b60056000826000191660001916815260200190815260200160002060006101000a81549073ffffffffffffffffffffffffffffffffffffffff021916905580600019167f7cc135e0cebb02c3480ae5d74d377283180a2601f8f644edf7987b009316c63a60405160405180910390a25050565b6000610d556112b7565b905090565b80600073ffffffffffffffffffffffffffffffffffffffff1660056000836000191660001916815260200190815260200160002060009054906101000a900473ffffffffffffffffffffffffffffffffffffffff1673ffffffffffffffffffffffffffffffffffffffff16141515610e3a576040517f08c379a000000000000000000000000000000000000000000000000000000000815260040180806020018281038252601a8152602001807f5265717565737420697320616c72656164792070656e64696e6700000000000081525060200191505060405180910390fd5b8260056000846000191660001916815260200190815260200160002060006101000a81548173ffffffffffffffffffffffffffffffffffffffff021916908373ffffffffffffffffffffffffffffffffffffffff160217905550505050565b610ea1611620565b610ea9611620565b610ec0858585846112e1909392919063ffffffff16565b9150509392505050565b6000610ef9600360009054906101000a900473ffffffffffffffffffffffffffffffffffffffff168484610f2b565b905092915050565b6000600260009054906101000a900473ffffffffffffffffffffffffffffffffffffffff16905090565b600030600454604051602001808373ffffffffffffffffffffffffffffffffffffffff1673ffffffffffffffffffffffffffffffffffffffff166c01000000000000000000000000028152601401828152602001925050506040516020818303038152906040526040518082805190602001908083835b602083101515610fc75780518252602082019150602081019050602083039250610fa2565b6001836020036101000a038019825116818451168082178552505050505050905001915050604051809103902090506004548360600181815250508360056000836000191660001916815260200190815260200160002060006101000a81548173ffffffffffffffffffffffffffffffffffffffff021916908373ffffffffffffffffffffffffffffffffffffffff16021790555080600019167fb5e6e01e79f91267dc17b4e6314d5d4d03593d2ceee0fbb452b750bd70ea5af960405160405180910390a2600260009054906101000a900473ffffffffffffffffffffffffffffffffffffffff1673ffffffffffffffffffffffffffffffffffffffff16634000aea085846110d68761139b565b6040518463ffffffff167c0100000000000000000000000000000000000000000000000000000000028152600401808473ffffffffffffffffffffffffffffffffffffffff1673ffffffffffffffffffffffffffffffffffffffff16815260200183815260200180602001828103825283818151815260200191508051906020019080838360005b8381101561117957808201518184015260208101905061115e565b50505050905090810190601f1680156111a65780820380516001836020036101000a031916815260200191505b50945050505050602060405180830381600087803b1580156111c757600080fd5b505af11580156111db573d6000803e3d6000fd5b505050506040513d60208110156111f157600080fd5b8101908080519060200190929190505050151561129c576040517f08c379a00000000000000000000000000000000000000000000000000000000081526004018080602001828103825260238152602001807f756e61626c6520746f207472616e73666572416e6443616c6c20746f206f726181526020017f636c65000000000000000000000000000000000000000000000000000000000081525060400191505060405180910390fd5b60016004600082825401925050819055508090509392505050565b6000600360009054906101000a900473ffffffffffffffffffffffffffffffffffffffff16905090565b6112e9611620565b6112f985608001516101006115c6565b50838560000190600019169081600019168152505082856020019073ffffffffffffffffffffffffffffffffffffffff16908173ffffffffffffffffffffffffffffffffffffffff16815250508185604001907bffffffffffffffffffffffffffffffffffffffffffffffffffffffff191690817bffffffffffffffffffffffffffffffffffffffffffffffffffffffff191681525050849050949350505050565b6060600360009054906101000a900473ffffffffffffffffffffffffffffffffffffffff1673ffffffffffffffffffffffffffffffffffffffff16634042994690507c01000000000000000000000000000000000000000000000000000000000260008084600001518560200151866040015187606001516001896080015160000151604051602401808973ffffffffffffffffffffffffffffffffffffffff1673ffffffffffffffffffffffffffffffffffffffff16815260200188815260200187600019166000191681526020018673ffffffffffffffffffffffffffffffffffffffff1673ffffffffffffffffffffffffffffffffffffffff168152602001857bffffffffffffffffffffffffffffffffffffffffffffffffffffffff19167bffffffffffffffffffffffffffffffffffffffffffffffffffffffff1916815260200184815260200183815260200180602001828103825283818151815260200191508051906020019080838360005b8381101561152957808201518184015260208101905061150e565b50505050905090810190601f1680156115565780820380516001836020036101000a031916815260200191505b509950505050505050505050604051602081830303815290604052907bffffffffffffffffffffffffffffffffffffffffffffffffffffffff19166020820180517bffffffffffffffffffffffffffffffffffffffffffffffffffffffff83818316178352505050509050919050565b6115ce61168e565b60006020838115156115dc57fe5b061415156115f9576020828115156115f057fe5b06602003820191505b81836020018181525050604051808452600081528281016020016040525082905092915050565b60c06040519081016040528060008019168152602001600073ffffffffffffffffffffffffffffffffffffffff16815260200160007bffffffffffffffffffffffffffffffffffffffffffffffffffffffff19168152602001600081526020016116886116a8565b81525090565b604080519081016040528060608152602001600081525090565b6040805190810160405280606081526020016000815250905600a165627a7a7230582028498d6b4adcae9f4ec23c6eb766dbd6a2388bdeb6e3cfc796e1141ca4a70acd0029",
  "source": "pragma solidity 0.4.24;\r\n\r\nimport \"../Chainlinked.sol\";\r\n\r\n\r\ncontract ConcreteChainlinked is Chainlinked {\r\n\r\n  constructor(address _link, address _oracle) public {\r\n    setLinkToken(_link);\r\n    setOracle(_oracle);\r\n  }\r\n\r\n  event Request(\r\n    bytes32 id,\r\n    address callbackAddress,\r\n    bytes4 callbackfunctionSelector,\r\n    bytes data\r\n  );\r\n\r\n  function publicNewRequest(\r\n    bytes32 _id,\r\n    address _address,\r\n    bytes _fulfillmentSignature\r\n  )\r\n    public\r\n  {\r\n    Chainlink.Request memory req = newRequest(\r\n      _id, _address, bytes4(keccak256(_fulfillmentSignature)));\r\n    emit Request(\r\n      req.id,\r\n      req.callbackAddress,\r\n      req.callbackFunctionId,\r\n      req.buf.buf\r\n    );\r\n  }\r\n\r\n  function publicRequest(\r\n    bytes32 _id,\r\n    address _address,\r\n    bytes _fulfillmentSignature,\r\n    uint256 _wei\r\n  )\r\n    public\r\n  {\r\n    Chainlink.Request memory req = newRequest(\r\n      _id, _address, bytes4(keccak256(_fulfillmentSignature)));\r\n    chainlinkRequest(req, _wei);\r\n  }\r\n\r\n  function publicRequestRunTo(\r\n    address _oracle,\r\n    bytes32 _id,\r\n    address _address,\r\n    bytes _fulfillmentSignature,\r\n    uint256 _wei\r\n  )\r\n    public\r\n  {\r\n    Chainlink.Request memory run = newRequest(_id, _address, bytes4(keccak256(_fulfillmentSignature)));\r\n    chainlinkRequestTo(_oracle, run, _wei);\r\n  }\r\n\r\n  function publicCancelRequest(\r\n    bytes32 _requestId,\r\n    uint256 _payment,\r\n    bytes4 _callbackFunctionId,\r\n    uint256 _expiration\r\n  ) public {\r\n    cancelChainlinkRequest(_requestId, _payment, _callbackFunctionId, _expiration);\r\n  }\r\n\r\n  function publicChainlinkToken() public view returns (address) {\r\n    return chainlinkToken();\r\n  }\r\n\r\n  function fulfillRequest(bytes32 _requestId, bytes32)\r\n    public\r\n    recordChainlinkFulfillment(_requestId)\r\n  {} // solhint-disable-line no-empty-blocks\r\n\r\n  function publicFulfillChainlinkRequest(bytes32 _requestId, bytes32) public {\r\n    fulfillChainlinkRequest(_requestId);\r\n  }\r\n\r\n  event LinkAmount(uint256 amount);\r\n\r\n  function publicLINK(uint256 _amount) public {\r\n    emit LinkAmount(LINK.mul(_amount));\r\n  }\r\n\r\n  function publicOracleAddress() public view returns (address) {\r\n    return oracleAddress();\r\n  }\r\n\r\n  function publicAddExternalRequest(address _oracle, bytes32 _requestId)\r\n    public\r\n  {\r\n    addExternalRequest(_oracle, _requestId);\r\n  }\r\n}\r\n",
  "sourcePath": "D:\\xborder\\xborder\\src\\contracts\\v0.4\\tests\\ConcreteChainlinked.sol",
  "compiler": {
    "name": "solc",
    "version": "0.4.24+commit.e67f0147.Emscripten.clang"
  },
  "schemaVersion": "3.1.0",
  "updatedAt": "2020-05-24T16:02:11.126Z",
  "devdoc": {
    "methods": {}
  },
  "userdoc": {
    "methods": {}
  }
}