{
  "contractName": "ConcreteChainlink",
  "abi": [
    {
      "anonymous": false,
      "inputs": [
        {
          "indexed": false,
          "name": "payload",
          "type": "bytes"
        }
      ],
      "name": "RequestData",
      "type": "event"
    },
    {
      "constant": false,
      "inputs": [],
      "name": "closeEvent",
      "outputs": [],
      "payable": false,
      "stateMutability": "nonpayable",
      "type": "function"
    },
    {
      "constant": false,
      "inputs": [
        {
          "name": "data",
          "type": "bytes"
        }
      ],
      "name": "setBuffer",
      "outputs": [],
      "payable": false,
      "stateMutability": "nonpayable",
      "type": "function"
    },
    {
      "constant": false,
      "inputs": [
        {
          "name": "_key",
          "type": "string"
        },
        {
          "name": "_value",
          "type": "string"
        }
      ],
      "name": "add",
      "outputs": [],
      "payable": false,
      "stateMutability": "nonpayable",
      "type": "function"
    },
    {
      "constant": false,
      "inputs": [
        {
          "name": "_key",
          "type": "string"
        },
        {
          "name": "_value",
          "type": "bytes"
        }
      ],
      "name": "addBytes",
      "outputs": [],
      "payable": false,
      "stateMutability": "nonpayable",
      "type": "function"
    },
    {
      "constant": false,
      "inputs": [
        {
          "name": "_key",
          "type": "string"
        },
        {
          "name": "_value",
          "type": "int256"
        }
      ],
      "name": "addInt",
      "outputs": [],
      "payable": false,
      "stateMutability": "nonpayable",
      "type": "function"
    },
    {
      "constant": false,
      "inputs": [
        {
          "name": "_key",
          "type": "string"
        },
        {
          "name": "_value",
          "type": "uint256"
        }
      ],
      "name": "addUint",
      "outputs": [],
      "payable": false,
      "stateMutability": "nonpayable",
      "type": "function"
    },
    {
      "constant": false,
      "inputs": [
        {
          "name": "_key",
          "type": "string"
        },
        {
          "name": "_values",
          "type": "bytes32[]"
        }
      ],
      "name": "addStringArray",
      "outputs": [],
      "payable": false,
      "stateMutability": "nonpayable",
      "type": "function"
    }
  ],
  "bytecode": "0x608060405234801561001057600080fd5b50611ef2806100206000396000f300608060405260043610610083576000357c0100000000000000000000000000000000000000000000000000000000900463ffffffff16806303dc5326146100885780630e734a581461009f5780632255beb01461011257806347655b1b146101c15780635e31692e1461026d578063cc39406f146102e0578063ebdf86ca14610349575b600080fd5b34801561009457600080fd5b5061009d6103f8565b005b3480156100ab57600080fd5b50610110600480360381019080803590602001908201803590602001908080601f0160208091040260200160405190810160405280939291908181526020018383808284378201915050505050509192919290803590602001909291905050506104ba565b005b34801561011e57600080fd5b506101bf600480360381019080803590602001908201803590602001908080601f0160208091040260200160405190810160405280939291908181526020018383808284378201915050505050509192919290803590602001908201803590602001908080601f0160208091040260200160405190810160405280939291908181526020018383808284378201915050505050509192919290505050610768565b005b3480156101cd57600080fd5b5061026b600480360381019080803590602001908201803590602001908080601f016020809104026020016040519081016040528093929190818152602001838380828437820191505050505050919291929080359060200190820180359060200190808060200260200160405190810160405280939291908181526020018383602002808284378201915050505050509192919290505050610a16565b005b34801561027957600080fd5b506102de600480360381019080803590602001908201803590602001908080601f016020809104026020016040519081016040528093929190818152602001838380828437820191505050505050919291929080359060200190929190505050610d58565b005b3480156102ec57600080fd5b50610347600480360381019080803590602001908201803590602001908080601f0160208091040260200160405190810160405280939291908181526020018383808284378201915050505050509192919290505050611006565b005b34801561035557600080fd5b506103f6600480360381019080803590602001908201803590602001908080601f0160208091040260200160405190810160405280939291908181526020018383808284378201915050505050509192919290803590602001908201803590602001908080601f01602080910402602001604051908101604052809392919081815260200183838082843782019150505050505091929192905050506112b1565b005b7f84485ae823e5c366e9581c146349e23f73b2f459d9eee1b9f15f36aac3b3145a600060030160000160405180806020018281038252838181546001816001161561010002031660029004815260200191508054600181600116156101000203166002900480156104aa5780601f1061047f576101008083540402835291602001916104aa565b820191906000526020600020905b81548152906001019060200180831161048d57829003601f168201915b50509250505060405180910390a1565b6104c2611d7f565b600060a060405190810160405290816000820154600019166000191681526020016001820160009054906101000a900473ffffffffffffffffffffffffffffffffffffffff1673ffffffffffffffffffffffffffffffffffffffff1673ffffffffffffffffffffffffffffffffffffffff1681526020016001820160149054906101000a90047c0100000000000000000000000000000000000000000000000000000000027bffffffffffffffffffffffffffffffffffffffffffffffffffffffff19167bffffffffffffffffffffffffffffffffffffffffffffffffffffffff191681526020016002820154815260200160038201604080519081016040529081600082018054600181600116156101000203166002900480601f01602080910402602001604051908101604052809291908181526020018280546001816001161561010002031660029004801561065c5780601f106106315761010080835404028352916020019161065c565b820191906000526020600020905b81548152906001019060200180831161063f57829003601f168201915b5050505050815260200160018201548152505081525050905061068a83838361155f9092919063ffffffff16565b80600080820151816000019060001916905560208201518160010160006101000a81548173ffffffffffffffffffffffffffffffffffffffff021916908373ffffffffffffffffffffffffffffffffffffffff16021790555060408201518160010160146101000a81548163ffffffff02191690837c010000000000000000000000000000000000000000000000000000000090040217905550606082015181600201556080820151816003016000820151816000019080519060200190610753929190611ded565b50602082015181600101555050905050505050565b610770611d7f565b600060a060405190810160405290816000820154600019166000191681526020016001820160009054906101000a900473ffffffffffffffffffffffffffffffffffffffff1673ffffffffffffffffffffffffffffffffffffffff1673ffffffffffffffffffffffffffffffffffffffff1681526020016001820160149054906101000a90047c0100000000000000000000000000000000000000000000000000000000027bffffffffffffffffffffffffffffffffffffffffffffffffffffffff19167bffffffffffffffffffffffffffffffffffffffffffffffffffffffff191681526020016002820154815260200160038201604080519081016040529081600082018054600181600116156101000203166002900480601f01602080910402602001604051908101604052809291908181526020018280546001816001161561010002031660029004801561090a5780601f106108df5761010080835404028352916020019161090a565b820191906000526020600020905b8154815290600101906020018083116108ed57829003601f168201915b505050505081526020016001820154815250508152505090506109388383836115929092919063ffffffff16565b80600080820151816000019060001916905560208201518160010160006101000a81548173ffffffffffffffffffffffffffffffffffffffff021916908373ffffffffffffffffffffffffffffffffffffffff16021790555060408201518160010160146101000a81548163ffffffff02191690837c010000000000000000000000000000000000000000000000000000000090040217905550606082015181600201556080820151816003016000820151816000019080519060200190610a01929190611ded565b50602082015181600101555050905050505050565b60606000610a22611d7f565b8351604051908082528060200260200182016040528015610a5757816020015b6060815260200190600190039081610a425790505b509250600091505b8351821015610ab057610a888483815181101515610a7957fe5b906020019060200201516115c5565b8383815181101515610a9657fe5b906020019060200201819052508180600101925050610a5f565b600060a060405190810160405290816000820154600019166000191681526020016001820160009054906101000a900473ffffffffffffffffffffffffffffffffffffffff1673ffffffffffffffffffffffffffffffffffffffff1673ffffffffffffffffffffffffffffffffffffffff1681526020016001820160149054906101000a90047c0100000000000000000000000000000000000000000000000000000000027bffffffffffffffffffffffffffffffffffffffffffffffffffffffff19167bffffffffffffffffffffffffffffffffffffffffffffffffffffffff191681526020016002820154815260200160038201604080519081016040529081600082018054600181600116156101000203166002900480601f016020809104026020016040519081016040528092919081815260200182805460018160011615610100020316600290048015610c4a5780601f10610c1f57610100808354040283529160200191610c4a565b820191906000526020600020905b815481529060010190602001808311610c2d57829003601f168201915b50505050508152602001600182015481525050815250509050610c788584836117c19092919063ffffffff16565b80600080820151816000019060001916905560208201518160010160006101000a81548173ffffffffffffffffffffffffffffffffffffffff021916908373ffffffffffffffffffffffffffffffffffffffff16021790555060408201518160010160146101000a81548163ffffffff02191690837c010000000000000000000000000000000000000000000000000000000090040217905550606082015181600201556080820151816003016000820151816000019080519060200190610d41929190611ded565b506020820151816001015550509050505050505050565b610d60611d7f565b600060a060405190810160405290816000820154600019166000191681526020016001820160009054906101000a900473ffffffffffffffffffffffffffffffffffffffff1673ffffffffffffffffffffffffffffffffffffffff1673ffffffffffffffffffffffffffffffffffffffff1681526020016001820160149054906101000a90047c0100000000000000000000000000000000000000000000000000000000027bffffffffffffffffffffffffffffffffffffffffffffffffffffffff19167bffffffffffffffffffffffffffffffffffffffffffffffffffffffff191681526020016002820154815260200160038201604080519081016040529081600082018054600181600116156101000203166002900480601f016020809104026020016040519081016040528092919081815260200182805460018160011615610100020316600290048015610efa5780601f10610ecf57610100808354040283529160200191610efa565b820191906000526020600020905b815481529060010190602001808311610edd57829003601f168201915b50505050508152602001600182015481525050815250509050610f288383836118439092919063ffffffff16565b80600080820151816000019060001916905560208201518160010160006101000a81548173ffffffffffffffffffffffffffffffffffffffff021916908373ffffffffffffffffffffffffffffffffffffffff16021790555060408201518160010160146101000a81548163ffffffff02191690837c010000000000000000000000000000000000000000000000000000000090040217905550606082015181600201556080820151816003016000820151816000019080519060200190610ff1929190611ded565b50602082015181600101555050905050505050565b61100e611d7f565b600060a060405190810160405290816000820154600019166000191681526020016001820160009054906101000a900473ffffffffffffffffffffffffffffffffffffffff1673ffffffffffffffffffffffffffffffffffffffff1673ffffffffffffffffffffffffffffffffffffffff1681526020016001820160149054906101000a90047c0100000000000000000000000000000000000000000000000000000000027bffffffffffffffffffffffffffffffffffffffffffffffffffffffff19167bffffffffffffffffffffffffffffffffffffffffffffffffffffffff191681526020016002820154815260200160038201604080519081016040529081600082018054600181600116156101000203166002900480601f0160208091040260200160405190810160405280929190818152602001828054600181600116156101000203166002900480156111a85780601f1061117d576101008083540402835291602001916111a8565b820191906000526020600020905b81548152906001019060200180831161118b57829003601f168201915b505050505081526020016001820154815250508152505090506111d4828261187690919063ffffffff16565b80600080820151816000019060001916905560208201518160010160006101000a81548173ffffffffffffffffffffffffffffffffffffffff021916908373ffffffffffffffffffffffffffffffffffffffff16021790555060408201518160010160146101000a81548163ffffffff02191690837c01000000000000000000000000000000000000000000000000000000009004021790555060608201518160020155608082015181600301600082015181600001908051906020019061129d929190611ded565b506020820151816001015550509050505050565b6112b9611d7f565b600060a060405190810160405290816000820154600019166000191681526020016001820160009054906101000a900473ffffffffffffffffffffffffffffffffffffffff1673ffffffffffffffffffffffffffffffffffffffff1673ffffffffffffffffffffffffffffffffffffffff1681526020016001820160149054906101000a90047c0100000000000000000000000000000000000000000000000000000000027bffffffffffffffffffffffffffffffffffffffffffffffffffffffff19167bffffffffffffffffffffffffffffffffffffffffffffffffffffffff191681526020016002820154815260200160038201604080519081016040529081600082018054600181600116156101000203166002900480601f0160208091040260200160405190810160405280929190818152602001828054600181600116156101000203166002900480156114535780601f1061142857610100808354040283529160200191611453565b820191906000526020600020905b81548152906001019060200180831161143657829003601f168201915b505050505081526020016001820154815250508152505090506114818383836118999092919063ffffffff16565b80600080820151816000019060001916905560208201518160010160006101000a81548173ffffffffffffffffffffffffffffffffffffffff021916908373ffffffffffffffffffffffffffffffffffffffff16021790555060408201518160010160146101000a81548163ffffffff02191690837c01000000000000000000000000000000000000000000000000000000009004021790555060608201518160020155608082015181600301600082015181600001908051906020019061154a929190611ded565b50602082015181600101555050905050505050565b6115768284608001516118cc90919063ffffffff16565b61158d8184608001516118f190919063ffffffff16565b505050565b6115a98284608001516118cc90919063ffffffff16565b6115c081846080015161190190919063ffffffff16565b505050565b6060806000806000606060206040519080825280601f01601f1916602001820160405280156116035781602001602082028038833980820191505090505b50945060009350600092505b60208310156116cd578260080260020a876001900402600102915060007f010000000000000000000000000000000000000000000000000000000000000002827effffffffffffffffffffffffffffffffffffffffffffffffffffffffffffff19161415156116c05781858581518110151561168757fe5b9060200101907effffffffffffffffffffffffffffffffffffffffffffffffffffffffffffff1916908160001a90535083806001019450505b828060010193505061160f565b836040519080825280601f01601f1916602001820160405280156117005781602001602082028038833980820191505090505b509050600092505b838310156117b457848381518110151561171e57fe5b9060200101517f010000000000000000000000000000000000000000000000000000000000000090047f010000000000000000000000000000000000000000000000000000000000000002818481518110151561177757fe5b9060200101907effffffffffffffffffffffffffffffffffffffffffffffffffffffffffffff1916908160001a9053508280600101935050611708565b8095505050505050919050565b60006117da8385608001516118cc90919063ffffffff16565b6117e78460800151611926565b600090505b815181101561183057611823828281518110151561180657fe5b9060200190602002015185608001516118cc90919063ffffffff16565b80806001019150506117ec565b61183d8460800151611934565b50505050565b61185a8284608001516118cc90919063ffffffff16565b61187181846080015161194290919063ffffffff16565b505050565b61188582608001518251611990565b506118948260800151826119ea565b505050565b6118b08284608001516118cc90919063ffffffff16565b6118c78184608001516118cc90919063ffffffff16565b505050565b6118d98260038351611a0c565b6118ec81836119ea90919063ffffffff16565b505050565b6118fd82600083611a0c565b5050565b61190e8260028351611a0c565b61192181836119ea90919063ffffffff16565b505050565b611931816004611b6a565b50565b61193f816007611b6a565b50565b60008112151561195d5761195882600083611a0c565b61198c565b61198b826001837fffffffffffffffffffffffffffffffffffffffffffffffffffffffffffffffff03611a0c565b5b5050565b611998611e6d565b60006020838115156119a657fe5b061415156119c3576020828115156119ba57fe5b06602003820191505b81836020018181525050604051808452600081528281016020016040525082905092915050565b6119f2611e6d565b611a0483846000015151848551611b8f565b905092915050565b601781111515611a3e57611a388160058460ff169060020a0260ff161784611c4c90919063ffffffff16565b50611b65565b60ff81111515611a8557611a68601860058460ff169060020a021784611c4c90919063ffffffff16565b50611a7f81600185611c6c9092919063ffffffff16565b50611b64565b61ffff81111515611acd57611ab0601960058460ff169060020a021784611c4c90919063ffffffff16565b50611ac781600285611c6c9092919063ffffffff16565b50611b63565b63ffffffff81111515611b1757611afa601a60058460ff169060020a021784611c4c90919063ffffffff16565b50611b1181600485611c6c9092919063ffffffff16565b50611b62565b67ffffffffffffffff81111515611b6157611b48601b60058460ff169060020a021784611c4c90919063ffffffff16565b50611b5f81600885611c6c9092919063ffffffff16565b505b5b5b5b5b505050565b611b8a601f60058360ff169060020a021783611c4c90919063ffffffff16565b505050565b611b97611e6d565b600080600085518511151515611bac57600080fd5b87602001518588011115611bd757611bd6886002611bd08b602001518b8a01611c8e565b02611caa565b5b875180518860208301019450808988011115611bf35788870182525b60208801935050505b602085101515611c215781518352602083019250602082019150602085039450611bfc565b6001856020036101000a03905080198251168184511681811785525050879350505050949350505050565b611c54611e6d565b611c648384600001515184611cce565b905092915050565b611c74611e6d565b611c85848560000151518585611d1e565b90509392505050565b600081831115611ca057829050611ca4565b8190505b92915050565b606082600001519050611cbd8383611990565b50611cc883826119ea565b50505050565b611cd6611e6d565b836020015183101515611cf557611cf4846002866020015102611caa565b5b8351805160208583010184815381861415611d11576001820183525b5050508390509392505050565b611d26611e6d565b600085602001518584011115611d4657611d4586600287860102611caa565b5b6001836101000a0390508551838682010185831982511617815281518588011115611d715784870182525b505085915050949350505050565b60c06040519081016040528060008019168152602001600073ffffffffffffffffffffffffffffffffffffffff16815260200160007bffffffffffffffffffffffffffffffffffffffffffffffffffffffff1916815260200160008152602001611de7611e87565b81525090565b828054600181600116156101000203166002900490600052602060002090601f016020900481019282601f10611e2e57805160ff1916838001178555611e5c565b82800160010185558215611e5c579182015b82811115611e5b578251825591602001919060010190611e40565b5b509050611e699190611ea1565b5090565b604080519081016040528060608152602001600081525090565b604080519081016040528060608152602001600081525090565b611ec391905b80821115611ebf576000816000905550600101611ea7565b5090565b905600a165627a7a72305820bc5fe02cfe8c9388f709edfee479c082221e2573c232cfc98a45a6f8285bad8b0029",
  "source": "pragma solidity 0.4.24;\r\n\r\nimport \"../Chainlink.sol\";\r\nimport \"../vendor/CBOR.sol\";\r\n\r\ncontract ConcreteChainlink {\r\n  using Chainlink for Chainlink.Request;\r\n  using CBOR for Buffer.buffer;\r\n\r\n  Chainlink.Request private req;\r\n\r\n  event RequestData(bytes payload);\r\n\r\n  function closeEvent() public {\r\n    emit RequestData(req.buf.buf);\r\n  }\r\n\r\n  function setBuffer(bytes data) public {\r\n    Chainlink.Request memory r2 = req;\r\n    r2.setBuffer(data);\r\n    req = r2;\r\n  }\r\n\r\n  function add(string _key, string _value) public {\r\n    Chainlink.Request memory r2 = req;\r\n    r2.add(_key, _value);\r\n    req = r2;\r\n  }\r\n\r\n  function addBytes(string _key, bytes _value) public {\r\n    Chainlink.Request memory r2 = req;\r\n    r2.addBytes(_key, _value);\r\n    req = r2;\r\n  }\r\n\r\n  function addInt(string _key, int256 _value) public {\r\n    Chainlink.Request memory r2 = req;\r\n    r2.addInt(_key, _value);\r\n    req = r2;\r\n  }\r\n\r\n  function addUint(string _key, uint256 _value) public {\r\n    Chainlink.Request memory r2 = req;\r\n    r2.addUint(_key, _value);\r\n    req = r2;\r\n  }\r\n\r\n  // Temporarily have method receive bytes32[] memory until experimental\r\n  // string[] memory can be invoked from truffle tests.\r\n  function addStringArray(string _key, bytes32[] memory _values) public {\r\n    string[] memory strings = new string[](_values.length);\r\n    for (uint256 i = 0; i < _values.length; i++) {\r\n      strings[i] = bytes32ToString(_values[i]);\r\n    }\r\n    Chainlink.Request memory r2 = req;\r\n    r2.addStringArray(_key, strings);\r\n    req = r2;\r\n  }\r\n\r\n  function bytes32ToString(bytes32 x) private pure returns (string) {\r\n    bytes memory bytesString = new bytes(32);\r\n    uint charCount = 0;\r\n    for (uint j = 0; j < 32; j++) {\r\n      byte char = byte(bytes32(uint(x) * 2 ** (8 * j)));\r\n      if (char != 0) {\r\n        bytesString[charCount] = char;\r\n        charCount++;\r\n      }\r\n    }\r\n    bytes memory bytesStringTrimmed = new bytes(charCount);\r\n    for (j = 0; j < charCount; j++) {\r\n      bytesStringTrimmed[j] = bytesString[j];\r\n    }\r\n    return string(bytesStringTrimmed);\r\n  }\r\n}\r\n",
  "sourcePath": "D:\\xborder\\xborder\\src\\contracts\\v0.4\\tests\\ConcreteChainlink.sol",
  "compiler": {
    "name": "solc",
    "version": "0.4.24+commit.e67f0147.Emscripten.clang"
  },
  "schemaVersion": "3.1.0",
  "updatedAt": "2020-05-24T16:02:11.117Z",
  "devdoc": {
    "methods": {}
  },
  "userdoc": {
    "methods": {}
  }
}