{
  "contractName": "ConversionProxy",
  "abi": [
    {
      "constant": true,
      "inputs": [],
      "name": "to",
      "outputs": [
        {
          "name": "",
          "type": "address"
        }
      ],
      "payable": false,
      "stateMutability": "view",
      "type": "function"
    },
    {
      "constant": true,
      "inputs": [],
      "name": "decimals",
      "outputs": [
        {
          "name": "",
          "type": "uint8"
        }
      ],
      "payable": false,
      "stateMutability": "view",
      "type": "function"
    },
    {
      "constant": false,
      "inputs": [],
      "name": "renounceOwnership",
      "outputs": [],
      "payable": false,
      "stateMutability": "nonpayable",
      "type": "function"
    },
    {
      "constant": true,
      "inputs": [],
      "name": "owner",
      "outputs": [
        {
          "name": "",
          "type": "address"
        }
      ],
      "payable": false,
      "stateMutability": "view",
      "type": "function"
    },
    {
      "constant": true,
      "inputs": [],
      "name": "from",
      "outputs": [
        {
          "name": "",
          "type": "address"
        }
      ],
      "payable": false,
      "stateMutability": "view",
      "type": "function"
    },
    {
      "constant": false,
      "inputs": [
        {
          "name": "_newOwner",
          "type": "address"
        }
      ],
      "name": "transferOwnership",
      "outputs": [],
      "payable": false,
      "stateMutability": "nonpayable",
      "type": "function"
    },
    {
      "inputs": [
        {
          "name": "_decimals",
          "type": "uint8"
        },
        {
          "name": "_from",
          "type": "address"
        },
        {
          "name": "_to",
          "type": "address"
        }
      ],
      "payable": false,
      "stateMutability": "nonpayable",
      "type": "constructor"
    },
    {
      "anonymous": false,
      "inputs": [
        {
          "indexed": false,
          "name": "from",
          "type": "address"
        },
        {
          "indexed": false,
          "name": "to",
          "type": "address"
        },
        {
          "indexed": false,
          "name": "decimals",
          "type": "uint8"
        }
      ],
      "name": "AddressesUpdated",
      "type": "event"
    },
    {
      "anonymous": false,
      "inputs": [
        {
          "indexed": true,
          "name": "previousOwner",
          "type": "address"
        }
      ],
      "name": "OwnershipRenounced",
      "type": "event"
    },
    {
      "anonymous": false,
      "inputs": [
        {
          "indexed": true,
          "name": "previousOwner",
          "type": "address"
        },
        {
          "indexed": true,
          "name": "newOwner",
          "type": "address"
        }
      ],
      "name": "OwnershipTransferred",
      "type": "event"
    },
    {
      "anonymous": false,
      "inputs": [
        {
          "indexed": true,
          "name": "current",
          "type": "int256"
        },
        {
          "indexed": true,
          "name": "roundId",
          "type": "uint256"
        },
        {
          "indexed": false,
          "name": "timestamp",
          "type": "uint256"
        }
      ],
      "name": "AnswerUpdated",
      "type": "event"
    },
    {
      "anonymous": false,
      "inputs": [
        {
          "indexed": true,
          "name": "roundId",
          "type": "uint256"
        },
        {
          "indexed": true,
          "name": "startedBy",
          "type": "address"
        }
      ],
      "name": "NewRound",
      "type": "event"
    },
    {
      "constant": false,
      "inputs": [
        {
          "name": "_decimals",
          "type": "uint8"
        },
        {
          "name": "_from",
          "type": "address"
        },
        {
          "name": "_to",
          "type": "address"
        }
      ],
      "name": "setAddresses",
      "outputs": [],
      "payable": false,
      "stateMutability": "nonpayable",
      "type": "function"
    },
    {
      "constant": true,
      "inputs": [],
      "name": "latestAnswer",
      "outputs": [
        {
          "name": "",
          "type": "int256"
        }
      ],
      "payable": false,
      "stateMutability": "view",
      "type": "function"
    },
    {
      "constant": true,
      "inputs": [],
      "name": "latestTimestamp",
      "outputs": [
        {
          "name": "",
          "type": "uint256"
        }
      ],
      "payable": false,
      "stateMutability": "view",
      "type": "function"
    },
    {
      "constant": true,
      "inputs": [],
      "name": "latestRound",
      "outputs": [
        {
          "name": "",
          "type": "uint256"
        }
      ],
      "payable": false,
      "stateMutability": "view",
      "type": "function"
    },
    {
      "constant": true,
      "inputs": [
        {
          "name": "_roundId",
          "type": "uint256"
        }
      ],
      "name": "getAnswer",
      "outputs": [
        {
          "name": "",
          "type": "int256"
        }
      ],
      "payable": false,
      "stateMutability": "view",
      "type": "function"
    },
    {
      "constant": true,
      "inputs": [
        {
          "name": "_roundId",
          "type": "uint256"
        }
      ],
      "name": "getTimestamp",
      "outputs": [
        {
          "name": "",
          "type": "uint256"
        }
      ],
      "payable": false,
      "stateMutability": "view",
      "type": "function"
    }
  ],
  "bytecode": "0x608060405234801561001057600080fd5b5060405160608061161a833981018060405281019080805190602001909291908051906020019092919080519060200190929190505050336000806101000a81548173ffffffffffffffffffffffffffffffffffffffff021916908373ffffffffffffffffffffffffffffffffffffffff1602179055506100a18383836100a9640100000000026401000000009004565b50505061036a565b6000809054906101000a900473ffffffffffffffffffffffffffffffffffffffff1673ffffffffffffffffffffffffffffffffffffffff163373ffffffffffffffffffffffffffffffffffffffff1614151561010457600080fd5b60008360ff1611151561017f576040517f08c379a000000000000000000000000000000000000000000000000000000000815260040180806020018281038252601f8152602001807f446563696d616c73206d7573742062652067726561746572207468616e20300081525060200191505060405180910390fd5b8073ffffffffffffffffffffffffffffffffffffffff168273ffffffffffffffffffffffffffffffffffffffff1614151515610223576040517f08c379a00000000000000000000000000000000000000000000000000000000081526004018080602001828103825260178152602001807f43616e6e6f74207573652073616d65206164647265737300000000000000000081525060200191505060405180910390fd5b82600060146101000a81548160ff021916908360ff16021790555081600160006101000a81548173ffffffffffffffffffffffffffffffffffffffff021916908373ffffffffffffffffffffffffffffffffffffffff16021790555080600260006101000a81548173ffffffffffffffffffffffffffffffffffffffff021916908373ffffffffffffffffffffffffffffffffffffffff1602179055507f6dafa434b05e8ec2e41b3b75b35b1ff23119d86c7fb68ed87c0c19ea11eed1ff828285604051808473ffffffffffffffffffffffffffffffffffffffff1673ffffffffffffffffffffffffffffffffffffffff1681526020018373ffffffffffffffffffffffffffffffffffffffff1673ffffffffffffffffffffffffffffffffffffffff1681526020018260ff1660ff168152602001935050505060405180910390a1505050565b6112a1806103796000396000f3006080604052600436106100ba576000357c0100000000000000000000000000000000000000000000000000000000900463ffffffff16806313151981146100bf578063313ce5671461011657806350d25bcd14610147578063668a0f0214610172578063715018a61461019d5780638205bf6a146101b45780638da5cb5b146101df578063b5ab58dc14610236578063b633620c14610277578063d5ce3389146102b8578063e17bb9861461030f578063f2fde38b1461037f575b600080fd5b3480156100cb57600080fd5b506100d46103c2565b604051808273ffffffffffffffffffffffffffffffffffffffff1673ffffffffffffffffffffffffffffffffffffffff16815260200191505060405180910390f35b34801561012257600080fd5b5061012b6103e8565b604051808260ff1660ff16815260200191505060405180910390f35b34801561015357600080fd5b5061015c6103fb565b6040518082815260200191505060405180910390f35b34801561017e57600080fd5b5061018761058c565b6040518082815260200191505060405180910390f35b3480156101a957600080fd5b506101b2610654565b005b3480156101c057600080fd5b506101c9610756565b6040518082815260200191505060405180910390f35b3480156101eb57600080fd5b506101f461081e565b604051808273ffffffffffffffffffffffffffffffffffffffff1673ffffffffffffffffffffffffffffffffffffffff16815260200191505060405180910390f35b34801561024257600080fd5b5061026160048036038101908080359060200190929190505050610843565b6040518082815260200191505060405180910390f35b34801561028357600080fd5b506102a2600480360381019080803590602001909291905050506109e1565b6040518082815260200191505060405180910390f35b3480156102c457600080fd5b506102cd610ab6565b604051808273ffffffffffffffffffffffffffffffffffffffff1673ffffffffffffffffffffffffffffffffffffffff16815260200191505060405180910390f35b34801561031b57600080fd5b5061037d600480360381019080803560ff169060200190929190803573ffffffffffffffffffffffffffffffffffffffff169060200190929190803573ffffffffffffffffffffffffffffffffffffffff169060200190929190505050610adc565b005b34801561038b57600080fd5b506103c0600480360381019080803573ffffffffffffffffffffffffffffffffffffffff169060200190929190505050610d9d565b005b600260009054906101000a900473ffffffffffffffffffffffffffffffffffffffff1681565b600060149054906101000a900460ff1681565b6000610587600160009054906101000a900473ffffffffffffffffffffffffffffffffffffffff1673ffffffffffffffffffffffffffffffffffffffff166350d25bcd6040518163ffffffff167c0100000000000000000000000000000000000000000000000000000000028152600401602060405180830381600087803b15801561048657600080fd5b505af115801561049a573d6000803e3d6000fd5b505050506040513d60208110156104b057600080fd5b8101908080519060200190929190505050600260009054906101000a900473ffffffffffffffffffffffffffffffffffffffff1673ffffffffffffffffffffffffffffffffffffffff166350d25bcd6040518163ffffffff167c0100000000000000000000000000000000000000000000000000000000028152600401602060405180830381600087803b15801561054757600080fd5b505af115801561055b573d6000803e3d6000fd5b505050506040513d602081101561057157600080fd5b8101908080519060200190929190505050610e04565b905090565b6000600160009054906101000a900473ffffffffffffffffffffffffffffffffffffffff1673ffffffffffffffffffffffffffffffffffffffff1663668a0f026040518163ffffffff167c0100000000000000000000000000000000000000000000000000000000028152600401602060405180830381600087803b15801561061457600080fd5b505af1158015610628573d6000803e3d6000fd5b505050506040513d602081101561063e57600080fd5b8101908080519060200190929190505050905090565b6000809054906101000a900473ffffffffffffffffffffffffffffffffffffffff1673ffffffffffffffffffffffffffffffffffffffff163373ffffffffffffffffffffffffffffffffffffffff161415156106af57600080fd5b6000809054906101000a900473ffffffffffffffffffffffffffffffffffffffff1673ffffffffffffffffffffffffffffffffffffffff167ff8df31144d9c2f0f6b59d69b8b98abd5459d07f2742c4df920b25aae33c6482060405160405180910390a260008060006101000a81548173ffffffffffffffffffffffffffffffffffffffff021916908373ffffffffffffffffffffffffffffffffffffffff160217905550565b6000600160009054906101000a900473ffffffffffffffffffffffffffffffffffffffff1673ffffffffffffffffffffffffffffffffffffffff16638205bf6a6040518163ffffffff167c0100000000000000000000000000000000000000000000000000000000028152600401602060405180830381600087803b1580156107de57600080fd5b505af11580156107f2573d6000803e3d6000fd5b505050506040513d602081101561080857600080fd5b8101908080519060200190929190505050905090565b6000809054906101000a900473ffffffffffffffffffffffffffffffffffffffff1681565b60006109da600160009054906101000a900473ffffffffffffffffffffffffffffffffffffffff1673ffffffffffffffffffffffffffffffffffffffff1663b5ab58dc846040518263ffffffff167c010000000000000000000000000000000000000000000000000000000002815260040180828152602001915050602060405180830381600087803b1580156108d957600080fd5b505af11580156108ed573d6000803e3d6000fd5b505050506040513d602081101561090357600080fd5b8101908080519060200190929190505050600260009054906101000a900473ffffffffffffffffffffffffffffffffffffffff1673ffffffffffffffffffffffffffffffffffffffff166350d25bcd6040518163ffffffff167c0100000000000000000000000000000000000000000000000000000000028152600401602060405180830381600087803b15801561099a57600080fd5b505af11580156109ae573d6000803e3d6000fd5b505050506040513d60208110156109c457600080fd5b8101908080519060200190929190505050610e04565b9050919050565b6000600160009054906101000a900473ffffffffffffffffffffffffffffffffffffffff1673ffffffffffffffffffffffffffffffffffffffff1663b633620c836040518263ffffffff167c010000000000000000000000000000000000000000000000000000000002815260040180828152602001915050602060405180830381600087803b158015610a7457600080fd5b505af1158015610a88573d6000803e3d6000fd5b505050506040513d6020811015610a9e57600080fd5b81019080805190602001909291905050509050919050565b600160009054906101000a900473ffffffffffffffffffffffffffffffffffffffff1681565b6000809054906101000a900473ffffffffffffffffffffffffffffffffffffffff1673ffffffffffffffffffffffffffffffffffffffff163373ffffffffffffffffffffffffffffffffffffffff16141515610b3757600080fd5b60008360ff16111515610bb2576040517f08c379a000000000000000000000000000000000000000000000000000000000815260040180806020018281038252601f8152602001807f446563696d616c73206d7573742062652067726561746572207468616e20300081525060200191505060405180910390fd5b8073ffffffffffffffffffffffffffffffffffffffff168273ffffffffffffffffffffffffffffffffffffffff1614151515610c56576040517f08c379a00000000000000000000000000000000000000000000000000000000081526004018080602001828103825260178152602001807f43616e6e6f74207573652073616d65206164647265737300000000000000000081525060200191505060405180910390fd5b82600060146101000a81548160ff021916908360ff16021790555081600160006101000a81548173ffffffffffffffffffffffffffffffffffffffff021916908373ffffffffffffffffffffffffffffffffffffffff16021790555080600260006101000a81548173ffffffffffffffffffffffffffffffffffffffff021916908373ffffffffffffffffffffffffffffffffffffffff1602179055507f6dafa434b05e8ec2e41b3b75b35b1ff23119d86c7fb68ed87c0c19ea11eed1ff828285604051808473ffffffffffffffffffffffffffffffffffffffff1673ffffffffffffffffffffffffffffffffffffffff1681526020018373ffffffffffffffffffffffffffffffffffffffff1673ffffffffffffffffffffffffffffffffffffffff1681526020018260ff1660ff168152602001935050505060405180910390a1505050565b6000809054906101000a900473ffffffffffffffffffffffffffffffffffffffff1673ffffffffffffffffffffffffffffffffffffffff163373ffffffffffffffffffffffffffffffffffffffff16141515610df857600080fd5b610e0181610e48565b50565b6000610e40600060149054906101000a900460ff1660ff16600a0a610e328486610f4290919063ffffffff16565b6110f890919063ffffffff16565b905092915050565b600073ffffffffffffffffffffffffffffffffffffffff168173ffffffffffffffffffffffffffffffffffffffff1614151515610e8457600080fd5b8073ffffffffffffffffffffffffffffffffffffffff166000809054906101000a900473ffffffffffffffffffffffffffffffffffffffff1673ffffffffffffffffffffffffffffffffffffffff167f8be0079c531659141344cd1fd0a4f28419497f9722a3daafe3b4186f6b6457e060405160405180910390a3806000806101000a81548173ffffffffffffffffffffffffffffffffffffffff021916908373ffffffffffffffffffffffffffffffffffffffff16021790555050565b6000806000841415610f5757600091506110f1565b7fffffffffffffffffffffffffffffffffffffffffffffffffffffffffffffffff84148015610fa557507f800000000000000000000000000000000000000000000000000000000000000083145b151515611040576040517f08c379a00000000000000000000000000000000000000000000000000000000081526004018080602001828103825260278152602001807f5369676e6564536166654d6174683a206d756c7469706c69636174696f6e206f81526020017f766572666c6f770000000000000000000000000000000000000000000000000081525060400191505060405180910390fd5b828402905082848281151561105157fe5b051415156110ed576040517f08c379a00000000000000000000000000000000000000000000000000000000081526004018080602001828103825260278152602001807f5369676e6564536166654d6174683a206d756c7469706c69636174696f6e206f81526020017f766572666c6f770000000000000000000000000000000000000000000000000081525060400191505060405180910390fd5b8091505b5092915050565b60008060008314151515611174576040517f08c379a00000000000000000000000000000000000000000000000000000000081526004018080602001828103825260208152602001807f5369676e6564536166654d6174683a206469766973696f6e206279207a65726f81525060200191505060405180910390fd5b7fffffffffffffffffffffffffffffffffffffffffffffffffffffffffffffffff831480156111c257507f800000000000000000000000000000000000000000000000000000000000000084145b15151561125d576040517f08c379a00000000000000000000000000000000000000000000000000000000081526004018080602001828103825260218152602001807f5369676e6564536166654d6174683a206469766973696f6e206f766572666c6f81526020017f770000000000000000000000000000000000000000000000000000000000000081525060400191505060405180910390fd5b828481151561126857fe5b05905080915050929150505600a165627a7a723058200fedd225c204ba91d7807d979c7b4ce4b62301986758c82162dda94496adc4310029",
  "source": "pragma solidity 0.4.24;\r\n\r\nimport \"./vendor/SignedSafeMath.sol\";\r\nimport \"./interfaces/AggregatorInterface.sol\";\r\nimport \"./vendor/Ownable.sol\";\r\n\r\n/**\r\n * @title The ConversionProxy contract for Solidity 4\r\n * @notice This contract allows for the rate of one aggregator\r\n * contract to be represented in the currency of another aggregator\r\n * contract's current rate. Rounds and timestamps are referred to\r\n * relative to the _from address. Historic answers are provided at\r\n * the latest rate of _to address.\r\n */\r\ncontract ConversionProxy is AggregatorInterface, Ownable {\r\n  using SignedSafeMath for int256;\r\n\r\n  uint8 public decimals;\r\n  AggregatorInterface public from;\r\n  AggregatorInterface public to;\r\n\r\n  event AddressesUpdated(\r\n    address from,\r\n    address to,\r\n    uint8 decimals\r\n  );\r\n\r\n  /**\r\n   * @notice Deploys the ConversionProxy contract\r\n   * @param _decimals The number of decimals that the result will\r\n   * be returned with (should be specified for the `_to` aggregator)\r\n   * @param _from The address of the aggregator contract which\r\n   * needs to be converted\r\n   * @param _to The address of the aggregator contract which stores\r\n   * the rate to convert to\r\n   */\r\n  constructor(\r\n    uint8 _decimals,\r\n    address _from,\r\n    address _to\r\n  ) public Ownable() {\r\n    setAddresses(\r\n      _decimals,\r\n      _from,\r\n      _to\r\n    );\r\n  }\r\n\r\n  /**\r\n   * @dev Only callable by the owner of the contract\r\n   * @param _decimals The number of decimals that the result will\r\n   * be returned with (should be specified for the `_to` aggregator)\r\n   * @param _from The address of the aggregator contract which\r\n   * needs to be converted\r\n   * @param _to The address of the aggregator contract which stores\r\n   * the rate to convert to\r\n   */\r\n  function setAddresses(\r\n    uint8 _decimals,\r\n    address _from,\r\n    address _to\r\n  ) public onlyOwner() {\r\n    require(_decimals > 0, \"Decimals must be greater than 0\");\r\n    require(_from != _to, \"Cannot use same address\");\r\n    decimals = _decimals;\r\n    from = AggregatorInterface(_from);\r\n    to = AggregatorInterface(_to);\r\n    emit AddressesUpdated(\r\n      _from,\r\n      _to,\r\n      _decimals\r\n    );\r\n  }\r\n\r\n  /**\r\n   * @notice Converts the latest answer of the `from` aggregator\r\n   * to the rate of the `to` aggregator\r\n   * @return The converted answer with amount of precision as defined\r\n   * by `decimals`\r\n   */\r\n  function latestAnswer() external view returns (int256) {\r\n    return convertAnswer(from.latestAnswer(), to.latestAnswer());\r\n  }\r\n\r\n  /**\r\n   * @notice Calls the `latestTimestamp()` function of the `from`\r\n   * aggregator\r\n   * @return The value of latestTimestamp for the `from` aggregator\r\n   */\r\n  function latestTimestamp() external view returns (uint256) {\r\n    return from.latestTimestamp();\r\n  }\r\n\r\n  /**\r\n   * @notice Calls the `latestRound()` function of the `from`\r\n   * aggregator\r\n   * @return The value of latestRound for the `from` aggregator\r\n   */\r\n  function latestRound() external view returns (uint256) {\r\n    return from.latestRound();\r\n  }\r\n\r\n  /**\r\n   * @notice Converts the specified answer for `_roundId` of the\r\n   * `from` aggregator to the latestAnswer of the `to` aggregator\r\n   * @return The converted answer for `_roundId` of the `from`\r\n   * aggregator with the amount of precision as defined by `decimals`\r\n   */\r\n  function getAnswer(uint256 _roundId) external view returns (int256) {\r\n    return convertAnswer(from.getAnswer(_roundId), to.latestAnswer());\r\n  }\r\n\r\n  /**\r\n   * @notice Calls the `getTimestamp(_roundId)` function of the `from`\r\n   * aggregator for the specified `_roundId`\r\n   * @return The timestamp of the `from` aggregator for the specified\r\n   * `_roundId`\r\n   */\r\n  function getTimestamp(uint256 _roundId) external view returns (uint256) {\r\n    return from.getTimestamp(_roundId);\r\n  }\r\n\r\n  /**\r\n   * @notice Converts the answer of the `from` aggregator to the rate\r\n   * of the `to` aggregator at the precision of `decimals`\r\n   * @return The converted answer\r\n   */\r\n  function convertAnswer(\r\n    int256 _answerFrom,\r\n    int256 _answerTo\r\n  ) internal view returns (int256) {\r\n    return _answerFrom.mul(_answerTo).div(int256(10 ** uint256(decimals)));\r\n  }\r\n}\r\n",
  "sourcePath": "D:\\xborder\\xborder\\src\\contracts\\v0.4\\ConversionProxy.sol",
  "compiler": {
    "name": "solc",
    "version": "0.4.24+commit.e67f0147.Emscripten.clang"
  },
  "schemaVersion": "3.1.0",
  "updatedAt": "2020-05-24T16:02:10.986Z",
  "devdoc": {
    "methods": {
      "getAnswer(uint256)": {
        "return": "The converted answer for `_roundId` of the `from`\r aggregator with the amount of precision as defined by `decimals`\r"
      },
      "getTimestamp(uint256)": {
        "return": "The timestamp of the `from` aggregator for the specified\r `_roundId`\r"
      },
      "latestAnswer()": {
        "return": "The converted answer with amount of precision as defined\r by `decimals`\r"
      },
      "latestRound()": {
        "return": "The value of latestRound for the `from` aggregator\r"
      },
      "latestTimestamp()": {
        "return": "The value of latestTimestamp for the `from` aggregator\r"
      },
      "renounceOwnership()": {
        "details": "Allows the current owner to relinquish control of the contract.\r"
      },
      "setAddresses(uint8,address,address)": {
        "details": "Only callable by the owner of the contract\r",
        "params": {
          "_decimals": "The number of decimals that the result will\r be returned with (should be specified for the `_to` aggregator)\r",
          "_from": "The address of the aggregator contract which\r needs to be converted\r",
          "_to": "The address of the aggregator contract which stores\r the rate to convert to\r"
        }
      },
      "transferOwnership(address)": {
        "details": "Allows the current owner to transfer control of the contract to a newOwner.\r",
        "params": {
          "_newOwner": "The address to transfer ownership to.\r"
        }
      }
    },
    "title": "The ConversionProxy contract for Solidity 4\r"
  },
  "userdoc": {
    "methods": {
      "getAnswer(uint256)": {
        "notice": "Converts the specified answer for `_roundId` of the\r `from` aggregator to the latestAnswer of the `to` aggregator\r"
      },
      "getTimestamp(uint256)": {
        "notice": "Calls the `getTimestamp(_roundId)` function of the `from`\r aggregator for the specified `_roundId`\r"
      },
      "latestAnswer()": {
        "notice": "Converts the latest answer of the `from` aggregator\r to the rate of the `to` aggregator\r"
      },
      "latestRound()": {
        "notice": "Calls the `latestRound()` function of the `from`\r aggregator\r"
      },
      "latestTimestamp()": {
        "notice": "Calls the `latestTimestamp()` function of the `from`\r aggregator\r"
      },
      "renounceOwnership()": {
        "notice": "Renouncing to ownership will leave the contract without an owner.\r It will not be possible to call the functions with the `onlyOwner`\r modifier anymore.\r"
      }
    }
  }
}