{
  "contractName": "ENSRegistry",
  "abi": [
    {
      "inputs": [],
      "payable": false,
      "stateMutability": "nonpayable",
      "type": "constructor"
    },
    {
      "anonymous": false,
      "inputs": [
        {
          "indexed": true,
          "name": "node",
          "type": "bytes32"
        },
        {
          "indexed": true,
          "name": "label",
          "type": "bytes32"
        },
        {
          "indexed": false,
          "name": "owner",
          "type": "address"
        }
      ],
      "name": "NewOwner",
      "type": "event"
    },
    {
      "anonymous": false,
      "inputs": [
        {
          "indexed": true,
          "name": "node",
          "type": "bytes32"
        },
        {
          "indexed": false,
          "name": "owner",
          "type": "address"
        }
      ],
      "name": "Transfer",
      "type": "event"
    },
    {
      "anonymous": false,
      "inputs": [
        {
          "indexed": true,
          "name": "node",
          "type": "bytes32"
        },
        {
          "indexed": false,
          "name": "resolver",
          "type": "address"
        }
      ],
      "name": "NewResolver",
      "type": "event"
    },
    {
      "anonymous": false,
      "inputs": [
        {
          "indexed": true,
          "name": "node",
          "type": "bytes32"
        },
        {
          "indexed": false,
          "name": "ttl",
          "type": "uint64"
        }
      ],
      "name": "NewTTL",
      "type": "event"
    },
    {
      "constant": false,
      "inputs": [
        {
          "name": "node",
          "type": "bytes32"
        },
        {
          "name": "owner",
          "type": "address"
        }
      ],
      "name": "setOwner",
      "outputs": [],
      "payable": false,
      "stateMutability": "nonpayable",
      "type": "function"
    },
    {
      "constant": false,
      "inputs": [
        {
          "name": "node",
          "type": "bytes32"
        },
        {
          "name": "label",
          "type": "bytes32"
        },
        {
          "name": "owner",
          "type": "address"
        }
      ],
      "name": "setSubnodeOwner",
      "outputs": [],
      "payable": false,
      "stateMutability": "nonpayable",
      "type": "function"
    },
    {
      "constant": false,
      "inputs": [
        {
          "name": "node",
          "type": "bytes32"
        },
        {
          "name": "resolver",
          "type": "address"
        }
      ],
      "name": "setResolver",
      "outputs": [],
      "payable": false,
      "stateMutability": "nonpayable",
      "type": "function"
    },
    {
      "constant": false,
      "inputs": [
        {
          "name": "node",
          "type": "bytes32"
        },
        {
          "name": "ttl",
          "type": "uint64"
        }
      ],
      "name": "setTTL",
      "outputs": [],
      "payable": false,
      "stateMutability": "nonpayable",
      "type": "function"
    },
    {
      "constant": true,
      "inputs": [
        {
          "name": "node",
          "type": "bytes32"
        }
      ],
      "name": "owner",
      "outputs": [
        {
          "name": "",
          "type": "address"
        }
      ],
      "payable": false,
      "stateMutability": "view",
      "type": "function"
    },
    {
      "constant": true,
      "inputs": [
        {
          "name": "node",
          "type": "bytes32"
        }
      ],
      "name": "resolver",
      "outputs": [
        {
          "name": "",
          "type": "address"
        }
      ],
      "payable": false,
      "stateMutability": "view",
      "type": "function"
    },
    {
      "constant": true,
      "inputs": [
        {
          "name": "node",
          "type": "bytes32"
        }
      ],
      "name": "ttl",
      "outputs": [
        {
          "name": "",
          "type": "uint64"
        }
      ],
      "payable": false,
      "stateMutability": "view",
      "type": "function"
    }
  ],
  "bytecode": "0x608060405234801561001057600080fd5b50336000808060010260001916815260200190815260200160002060000160006101000a81548173ffffffffffffffffffffffffffffffffffffffff021916908373ffffffffffffffffffffffffffffffffffffffff1602179055506109778061007b6000396000f300608060405260043610610083576000357c0100000000000000000000000000000000000000000000000000000000900463ffffffff1680630178b8bf1461008857806302571be3146100f957806306ab59231461016a57806314ab9038146101c957806316a25cbd1461020e5780631896f70a146102675780635b0fc9c3146102b8575b600080fd5b34801561009457600080fd5b506100b76004803603810190808035600019169060200190929190505050610309565b604051808273ffffffffffffffffffffffffffffffffffffffff1673ffffffffffffffffffffffffffffffffffffffff16815260200191505060405180910390f35b34801561010557600080fd5b506101286004803603810190808035600019169060200190929190505050610350565b604051808273ffffffffffffffffffffffffffffffffffffffff1673ffffffffffffffffffffffffffffffffffffffff16815260200191505060405180910390f35b34801561017657600080fd5b506101c760048036038101908080356000191690602001909291908035600019169060200190929190803573ffffffffffffffffffffffffffffffffffffffff169060200190929190505050610397565b005b3480156101d557600080fd5b5061020c6004803603810190808035600019169060200190929190803567ffffffffffffffff16906020019092919050505061057d565b005b34801561021a57600080fd5b5061023d600480360381019080803560001916906020019092919050505061068e565b604051808267ffffffffffffffff1667ffffffffffffffff16815260200191505060405180910390f35b34801561027357600080fd5b506102b66004803603810190808035600019169060200190929190803573ffffffffffffffffffffffffffffffffffffffff1690602001909291905050506106c9565b005b3480156102c457600080fd5b506103076004803603810190808035600019169060200190929190803573ffffffffffffffffffffffffffffffffffffffff16906020019092919050505061080a565b005b6000806000836000191660001916815260200190815260200160002060010160009054906101000a900473ffffffffffffffffffffffffffffffffffffffff169050919050565b6000806000836000191660001916815260200190815260200160002060000160009054906101000a900473ffffffffffffffffffffffffffffffffffffffff169050919050565b6000833373ffffffffffffffffffffffffffffffffffffffff16600080836000191660001916815260200190815260200160002060000160009054906101000a900473ffffffffffffffffffffffffffffffffffffffff1673ffffffffffffffffffffffffffffffffffffffff1614151561041157600080fd5b84846040516020018083600019166000191681526020018260001916600019168152602001925050506040516020818303038152906040526040518082805190602001908083835b60208310151561047e5780518252602082019150602081019050602083039250610459565b6001836020036101000a03801982511681845116808217855250505050505090500191505060405180910390209150836000191685600019167fce0457fe73731f824cc272376169235128c118b49d344817417c6d108d155e8285604051808273ffffffffffffffffffffffffffffffffffffffff1673ffffffffffffffffffffffffffffffffffffffff16815260200191505060405180910390a382600080846000191660001916815260200190815260200160002060000160006101000a81548173ffffffffffffffffffffffffffffffffffffffff021916908373ffffffffffffffffffffffffffffffffffffffff1602179055505050505050565b813373ffffffffffffffffffffffffffffffffffffffff16600080836000191660001916815260200190815260200160002060000160009054906101000a900473ffffffffffffffffffffffffffffffffffffffff1673ffffffffffffffffffffffffffffffffffffffff161415156105f557600080fd5b82600019167f1d4f9bbfc9cab89d66e1a1562f2233ccbf1308cb4f63de2ead5787adddb8fa6883604051808267ffffffffffffffff1667ffffffffffffffff16815260200191505060405180910390a281600080856000191660001916815260200190815260200160002060010160146101000a81548167ffffffffffffffff021916908367ffffffffffffffff160217905550505050565b6000806000836000191660001916815260200190815260200160002060010160149054906101000a900467ffffffffffffffff169050919050565b813373ffffffffffffffffffffffffffffffffffffffff16600080836000191660001916815260200190815260200160002060000160009054906101000a900473ffffffffffffffffffffffffffffffffffffffff1673ffffffffffffffffffffffffffffffffffffffff1614151561074157600080fd5b82600019167f335721b01866dc23fbee8b6b2c7b1e14d6f05c28cd35a2c934239f94095602a083604051808273ffffffffffffffffffffffffffffffffffffffff1673ffffffffffffffffffffffffffffffffffffffff16815260200191505060405180910390a281600080856000191660001916815260200190815260200160002060010160006101000a81548173ffffffffffffffffffffffffffffffffffffffff021916908373ffffffffffffffffffffffffffffffffffffffff160217905550505050565b813373ffffffffffffffffffffffffffffffffffffffff16600080836000191660001916815260200190815260200160002060000160009054906101000a900473ffffffffffffffffffffffffffffffffffffffff1673ffffffffffffffffffffffffffffffffffffffff1614151561088257600080fd5b82600019167fd4735d920b0f87494915f556dd9b54c8f309026070caea5c737245152564d26683604051808273ffffffffffffffffffffffffffffffffffffffff1673ffffffffffffffffffffffffffffffffffffffff16815260200191505060405180910390a281600080856000191660001916815260200190815260200160002060000160006101000a81548173ffffffffffffffffffffffffffffffffffffffff021916908373ffffffffffffffffffffffffffffffffffffffff1602179055505050505600a165627a7a723058204ed2c0d34b9fa0dcc98c1bb66162c6aba68eb97a9928cb6b0058de36eca43f370029",
  "source": "pragma solidity ^0.4.24;\r\n\r\nimport \"./ENS.sol\";\r\n\r\n/**\r\n * The ENS registry contract.\r\n */\r\ncontract ENSRegistry is ENS {\r\n  struct Record {\r\n    address owner;\r\n    address resolver;\r\n    uint64 ttl;\r\n  }\r\n\r\n  mapping (bytes32 => Record) records;\r\n\r\n  // Permits modifications only by the owner of the specified node.\r\n  modifier only_owner(bytes32 node) {\r\n    require(records[node].owner == msg.sender);\r\n    _;\r\n  }\r\n\r\n  /**\r\n   * @dev Constructs a new ENS registrar.\r\n   */\r\n  constructor() public {\r\n    records[0x0].owner = msg.sender;\r\n  }\r\n\r\n  /**\r\n   * @dev Transfers ownership of a node to a new address. May only be called by the current owner of the node.\r\n   * @param node The node to transfer ownership of.\r\n   * @param owner The address of the new owner.\r\n   */\r\n  function setOwner(bytes32 node, address owner) public only_owner(node) {\r\n    emit Transfer(node, owner);\r\n    records[node].owner = owner;\r\n  }\r\n\r\n  /**\r\n   * @dev Transfers ownership of a subnode keccak256(node, label) to a new address. May only be called by the owner of the parent node.\r\n   * @param node The parent node.\r\n   * @param label The hash of the label specifying the subnode.\r\n   * @param owner The address of the new owner.\r\n   */\r\n  function setSubnodeOwner(bytes32 node, bytes32 label, address owner) public only_owner(node) {\r\n    bytes32 subnode = keccak256(abi.encodePacked(node, label));\r\n    emit NewOwner(node, label, owner);\r\n    records[subnode].owner = owner;\r\n  }\r\n\r\n  /**\r\n   * @dev Sets the resolver address for the specified node.\r\n   * @param node The node to update.\r\n   * @param resolver The address of the resolver.\r\n   */\r\n  function setResolver(bytes32 node, address resolver) public only_owner(node) {\r\n    emit NewResolver(node, resolver);\r\n    records[node].resolver = resolver;\r\n  }\r\n\r\n  /**\r\n   * @dev Sets the TTL for the specified node.\r\n   * @param node The node to update.\r\n   * @param ttl The TTL in seconds.\r\n   */\r\n  function setTTL(bytes32 node, uint64 ttl) public only_owner(node) {\r\n    emit NewTTL(node, ttl);\r\n    records[node].ttl = ttl;\r\n  }\r\n\r\n  /**\r\n   * @dev Returns the address that owns the specified node.\r\n   * @param node The specified node.\r\n   * @return address of the owner.\r\n   */\r\n  function owner(bytes32 node) public view returns (address) {\r\n    return records[node].owner;\r\n  }\r\n\r\n  /**\r\n   * @dev Returns the address of the resolver for the specified node.\r\n   * @param node The specified node.\r\n   * @return address of the resolver.\r\n   */\r\n  function resolver(bytes32 node) public view returns (address) {\r\n    return records[node].resolver;\r\n  }\r\n\r\n  /**\r\n   * @dev Returns the TTL of a node, and any records associated with it.\r\n   * @param node The specified node.\r\n   * @return ttl of the node.\r\n   */\r\n  function ttl(bytes32 node) public view returns (uint64) {\r\n    return records[node].ttl;\r\n  }\r\n\r\n}\r\n",
  "sourcePath": "D:\\xborder\\xborder\\src\\contracts\\v0.4\\vendor\\ENSRegistry.sol",
  "compiler": {
    "name": "solc",
    "version": "0.4.24+commit.e67f0147.Emscripten.clang"
  },
  "schemaVersion": "3.1.0",
  "updatedAt": "2020-05-24T16:02:11.252Z",
  "devdoc": {
    "methods": {
      "owner(bytes32)": {
        "details": "Returns the address that owns the specified node.\r",
        "params": {
          "node": "The specified node.\r"
        },
        "return": "address of the owner.\r"
      },
      "resolver(bytes32)": {
        "details": "Returns the address of the resolver for the specified node.\r",
        "params": {
          "node": "The specified node.\r"
        },
        "return": "address of the resolver.\r"
      },
      "setOwner(bytes32,address)": {
        "details": "Transfers ownership of a node to a new address. May only be called by the current owner of the node.\r",
        "params": {
          "node": "The node to transfer ownership of.\r",
          "owner": "The address of the new owner.\r"
        }
      },
      "setResolver(bytes32,address)": {
        "details": "Sets the resolver address for the specified node.\r",
        "params": {
          "node": "The node to update.\r",
          "resolver": "The address of the resolver.\r"
        }
      },
      "setSubnodeOwner(bytes32,bytes32,address)": {
        "details": "Transfers ownership of a subnode keccak256(node, label) to a new address. May only be called by the owner of the parent node.\r",
        "params": {
          "label": "The hash of the label specifying the subnode.\r",
          "node": "The parent node.\r",
          "owner": "The address of the new owner.\r"
        }
      },
      "setTTL(bytes32,uint64)": {
        "details": "Sets the TTL for the specified node.\r",
        "params": {
          "node": "The node to update.\r",
          "ttl": "The TTL in seconds.\r"
        }
      },
      "ttl(bytes32)": {
        "details": "Returns the TTL of a node, and any records associated with it.\r",
        "params": {
          "node": "The specified node.\r"
        },
        "return": "ttl of the node.\r"
      }
    }
  },
  "userdoc": {
    "methods": {}
  }
}