{
  "contractName": "Escrow",
  "abi": [
    {
      "inputs": [
        {
          "name": "_no_transfer_hash",
          "type": "bytes32"
        },
        {
          "name": "_payer",
          "type": "address"
        },
        {
          "name": "_session_id_hash",
          "type": "bytes32"
        }
      ],
      "payable": false,
      "stateMutability": "nonpayable",
      "type": "constructor"
    },
    {
      "anonymous": false,
      "inputs": [],
      "name": "payee_deposit_complete",
      "type": "event"
    },
    {
      "anonymous": false,
      "inputs": [],
      "name": "no_transfer_requested",
      "type": "event"
    },
    {
      "anonymous": false,
      "inputs": [],
      "name": "deposit_amount_payout",
      "type": "event"
    },
    {
      "anonymous": false,
      "inputs": [],
      "name": "escrow_deactivated",
      "type": "event"
    },
    {
      "anonymous": false,
      "inputs": [
        {
          "indexed": false,
          "name": "requester",
          "type": "address"
        }
      ],
      "name": "escrow_cancelled",
      "type": "event"
    },
    {
      "anonymous": false,
      "inputs": [],
      "name": "commit_no_transfer",
      "type": "event"
    },
    {
      "anonymous": false,
      "inputs": [],
      "name": "release_check_hold_deposit",
      "type": "event"
    },
    {
      "constant": false,
      "inputs": [
        {
          "name": "_no_id_hash",
          "type": "bytes32"
        }
      ],
      "name": "no_transfer_response",
      "outputs": [],
      "payable": false,
      "stateMutability": "nonpayable",
      "type": "function"
    },
    {
      "constant": false,
      "inputs": [],
      "name": "request_no_transfer",
      "outputs": [],
      "payable": false,
      "stateMutability": "nonpayable",
      "type": "function"
    },
    {
      "constant": false,
      "inputs": [
        {
          "name": "_no_id_hash",
          "type": "bytes32"
        },
        {
          "name": "_curr_status",
          "type": "bool"
        }
      ],
      "name": "no_id_check",
      "outputs": [],
      "payable": false,
      "stateMutability": "nonpayable",
      "type": "function"
    },
    {
      "constant": false,
      "inputs": [
        {
          "name": "_no_transfer_hash",
          "type": "bytes32"
        }
      ],
      "name": "deposit",
      "outputs": [],
      "payable": false,
      "stateMutability": "nonpayable",
      "type": "function"
    },
    {
      "constant": false,
      "inputs": [],
      "name": "cancel_escrow",
      "outputs": [],
      "payable": false,
      "stateMutability": "nonpayable",
      "type": "function"
    },
    {
      "constant": true,
      "inputs": [],
      "name": "get_participants",
      "outputs": [
        {
          "name": "",
          "type": "address"
        },
        {
          "name": "",
          "type": "address"
        }
      ],
      "payable": false,
      "stateMutability": "view",
      "type": "function"
    },
    {
      "constant": true,
      "inputs": [],
      "name": "is_deposit_locked",
      "outputs": [
        {
          "name": "",
          "type": "bool"
        }
      ],
      "payable": false,
      "stateMutability": "view",
      "type": "function"
    },
    {
      "constant": true,
      "inputs": [],
      "name": "is_open",
      "outputs": [
        {
          "name": "",
          "type": "bool"
        }
      ],
      "payable": false,
      "stateMutability": "view",
      "type": "function"
    }
  ],
  "bytecode": "0x608060405260008060006101000a81548160ff02191690831515021790555060008060016101000a81548160ff02191690831515021790555060008060026101000a81548160ff0219169083151502179055506000600860006101000a81548160ff0219169083151502179055506000600860016101000a81548160ff0219169083151502179055506000600860026101000a81548160ff0219169083151502179055506000600860036101000a81548160ff0219169083151502179055503480156100ca57600080fd5b5060405160608061130283398101806040528101908080519060200190929190805190602001909291908051906020019092919050505081600560006101000a81548173ffffffffffffffffffffffffffffffffffffffff021916908373ffffffffffffffffffffffffffffffffffffffff160217905550826001816000191690555080600281600019169055506001600860016101000a81548160ff021916908315150217905550738a23c7c42333ed6be5a68c24031cd7a737fbcbe8600660006101000a81548173ffffffffffffffffffffffffffffffffffffffff021916908373ffffffffffffffffffffffffffffffffffffffff16021790555060016000806101000a81548160ff02191690831515021790555050505061110e806101f46000396000f30060806040526004361061008e576000357c0100000000000000000000000000000000000000000000000000000000900463ffffffff16806301f775871461009357806302bb9f42146100d05780634b73fd031461015a57806368c3907c1461018b5780639c7687e6146101a25780639c8f6fb3146101b9578063b214faa5146101e8578063d659d96814610219575b600080fd5b34801561009f57600080fd5b506100ce6004803603810190808035600019169060200190929190803515159060200190929190505050610248565b005b3480156100dc57600080fd5b506100e561054d565b604051808373ffffffffffffffffffffffffffffffffffffffff1673ffffffffffffffffffffffffffffffffffffffff1681526020018273ffffffffffffffffffffffffffffffffffffffff1673ffffffffffffffffffffffffffffffffffffffff1681526020019250505060405180910390f35b34801561016657600080fd5b50610189600480360381019080803560001916906020019092919050505061059e565b005b34801561019757600080fd5b506101a06106f4565b005b3480156101ae57600080fd5b506101b7610890565b005b3480156101c557600080fd5b506101ce610b8b565b604051808215151515815260200191505060405180910390f35b3480156101f457600080fd5b506102176004803603810190808035600019169060200190929190505050610ba1565b005b34801561022557600080fd5b5061022e610e60565b604051808215151515815260200191505060405180910390f35b6000809054906101000a900460ff1615156102cb576040517f08c379a000000000000000000000000000000000000000000000000000000000815260040180806020018281038252601a8152602001807f54686520657363726f772069732064656163746976617465642e00000000000081525060200191505060405180910390fd5b600560009054906101000a900473ffffffffffffffffffffffffffffffffffffffff1673ffffffffffffffffffffffffffffffffffffffff163373ffffffffffffffffffffffffffffffffffffffff1614806103745750600460009054906101000a900473ffffffffffffffffffffffffffffffffffffffff1673ffffffffffffffffffffffffffffffffffffffff163373ffffffffffffffffffffffffffffffffffffffff16145b151561037f57600080fd5b600354600019168260001916141515610400576040517f08c379a00000000000000000000000000000000000000000000000000000000081526004018080602001828103825260138152602001807f6e6f2069642068617368206d69736d617463680000000000000000000000000081525060200191505060405180910390fd5b600560009054906101000a900473ffffffffffffffffffffffffffffffffffffffff1673ffffffffffffffffffffffffffffffffffffffff163373ffffffffffffffffffffffffffffffffffffffff1614156104755780600860036101000a81548160ff0219169083151502179055506104e7565b600460009054906101000a900473ffffffffffffffffffffffffffffffffffffffff1673ffffffffffffffffffffffffffffffffffffffff163373ffffffffffffffffffffffffffffffffffffffff1614156104e65780600860026101000a81548160ff0219169083151502179055505b5b600860029054906101000a900460ff16801561050f5750600860039054906101000a900460ff165b15610549577f66a6a99bb7107ac0fe257cbcd10e386f32c8a259e972a24c2f49665e7f6068a160405160405180910390a1610548610e76565b5b5050565b600080600560009054906101000a900473ffffffffffffffffffffffffffffffffffffffff16600460009054906101000a900473ffffffffffffffffffffffffffffffffffffffff16915091509091565b6000809054906101000a900460ff161515610621576040517f08c379a000000000000000000000000000000000000000000000000000000000815260040180806020018281038252601a8152602001807f54686520657363726f772069732064656163746976617465642e00000000000081525060200191505060405180910390fd5b600660009054906101000a900473ffffffffffffffffffffffffffffffffffffffff1673ffffffffffffffffffffffffffffffffffffffff163373ffffffffffffffffffffffffffffffffffffffff161415156106e6576040517f08c379a000000000000000000000000000000000000000000000000000000000815260040180806020018281038252601a8152602001807f417574686f72697a6174696f6e20756e7375636365737366756c00000000000081525060200191505060405180910390fd5b806003816000191690555050565b6000809054906101000a900460ff161515610777576040517f08c379a000000000000000000000000000000000000000000000000000000000815260040180806020018281038252601a8152602001807f54686520657363726f772069732064656163746976617465642e00000000000081525060200191505060405180910390fd5b600560009054906101000a900473ffffffffffffffffffffffffffffffffffffffff1673ffffffffffffffffffffffffffffffffffffffff163373ffffffffffffffffffffffffffffffffffffffff16141515610862576040517f08c379a00000000000000000000000000000000000000000000000000000000081526004018080602001828103825260298152602001807f4f6e6c79207468652070617965722063616e20726571756573742061206e6f2081526020017f7472616e736665722e000000000000000000000000000000000000000000000081525060400191505060405180910390fd5b7fbf5e845d3b212817976369686df63b4c6ee9e6127a31760318f12a9535fd6ac260405160405180910390a1565b60008060009054906101000a900460ff161515610915576040517f08c379a000000000000000000000000000000000000000000000000000000000815260040180806020018281038252601a8152602001807f54686520657363726f772069732064656163746976617465642e00000000000081525060200191505060405180910390fd5b600060029054906101000a900460ff1615151561099a576040517f08c379a00000000000000000000000000000000000000000000000000000000081526004018080602001828103825260198152602001807f54686520657363726f77207761732063616e63656c6c65642e0000000000000081525060200191505060405180910390fd5b600560009054906101000a900473ffffffffffffffffffffffffffffffffffffffff1673ffffffffffffffffffffffffffffffffffffffff163373ffffffffffffffffffffffffffffffffffffffff161480610a435750600460009054906101000a900473ffffffffffffffffffffffffffffffffffffffff1673ffffffffffffffffffffffffffffffffffffffff163373ffffffffffffffffffffffffffffffffffffffff16145b1515610a4e57600080fd5b60075490506000600781905550600460009054906101000a900473ffffffffffffffffffffffffffffffffffffffff1673ffffffffffffffffffffffffffffffffffffffff166108fc829081150290604051600060405180830381858888f19350505050158015610ac3573d6000803e3d6000fd5b506001600060026101000a81548160ff0219169083151502179055507fef73251ead8e51de2738a00ea16a263fa97df6281b6fca313cd9ebe176efaf4f33604051808273ffffffffffffffffffffffffffffffffffffffff1673ffffffffffffffffffffffffffffffffffffffff16815260200191505060405180910390a160008060006101000a81548160ff0219169083151502179055507fbda75143c120a4c60074268ba6468fde41cc51a2760c353004e86a0205ac7b7d60405160405180910390a150565b60008060019054906101000a900460ff16905090565b6000809054906101000a900460ff161515610c24576040517f08c379a000000000000000000000000000000000000000000000000000000000815260040180806020018281038252601a8152602001807f54686520657363726f772069732064656163746976617465642e00000000000081525060200191505060405180910390fd5b600560009054906101000a900473ffffffffffffffffffffffffffffffffffffffff1673ffffffffffffffffffffffffffffffffffffffff163373ffffffffffffffffffffffffffffffffffffffff1614151515610c8157600080fd5b60001515600060019054906101000a900460ff161515141515610d0c576040517f08c379a000000000000000000000000000000000000000000000000000000000815260040180806020018281038252601e8152602001807f536f7272792074686520657363726f77206973206e6f77206c6f636b6564000081525060200191505060405180910390fd5b600154600019168160001916141515610db3576040517f08c379a00000000000000000000000000000000000000000000000000000000081526004018080602001828103825260298152602001807f536f727279207468617420697320616e20696e76616c6964206e6f207472616e81526020017f736665722068617368000000000000000000000000000000000000000000000081525060400191505060405180910390fd5b6001600060016101000a81548160ff02191690831515021790555033600460006101000a81548173ffffffffffffffffffffffffffffffffffffffff021916908373ffffffffffffffffffffffffffffffffffffffff160217905550346007819055506001600860006101000a81548160ff0219169083151502179055507f6744d97c136261da20f58c0c9ac1a86aeec86e2fe5f5641f50758793d131d6d260405160405180910390a150565b60008060009054906101000a900460ff16905090565b60008060009054906101000a900460ff161515610efb576040517f08c379a000000000000000000000000000000000000000000000000000000000815260040180806020018281038252601a8152602001807f54686520657363726f772069732064656163746976617465642e00000000000081525060200191505060405180910390fd5b60011515600860029054906101000a900460ff161515148015610f31575060011515600860039054906101000a900460ff161515145b1515610fcb576040517f08c379a00000000000000000000000000000000000000000000000000000000081526004018080602001828103825260408152602001807f4e65656420626f7468207061727469657320746f206167726565206265666f7281526020017f6520616e79206465706f7369745f616d6f756e7420617265207061796f75742e81525060400191505060405180910390fd5b60075490506000600781905550600560009054906101000a900473ffffffffffffffffffffffffffffffffffffffff1673ffffffffffffffffffffffffffffffffffffffff166108fc829081150290604051600060405180830381858888f19350505050158015611040573d6000803e3d6000fd5b507fbea718495aa20547eab75c9505bf6c48467581ad84163d4fb4a62f668c85b58a60405160405180910390a17f041eb7e351ca36014d7577dc48b574754ba094a5480e1be6d7b63bfe576e344d60405160405180910390a160008060006101000a81548160ff0219169083151502179055507fbda75143c120a4c60074268ba6468fde41cc51a2760c353004e86a0205ac7b7d60405160405180910390a1505600a165627a7a7230582051e94edd8560d96916d7f5963dea58bc9cb1cc7b4a6546c528849db824e5cdd10029",
  "source": "pragma solidity 0.4.24;\r\n\r\ncontract EscrowFactory {\r\n\r\n\t// State\r\n\tmapping(bytes32 => address) escrow_contracts;\r\n\r\n\t// Events\r\n\tevent escrow_activated(bytes32 session_id_hash, address escrow_contract);\r\n\r\n\t// Behaviour\r\n\tfunction open_escrow(bytes32 _no_transfer_hash, bytes32 _session_id_hash)\r\n\tpublic\r\n\t{\r\n\t\taddress escrow = address(new Escrow(_no_transfer_hash, msg.sender, _session_id_hash));\r\n\t\tescrow_contracts[_session_id_hash] = escrow;\r\n\r\n\t\temit escrow_activated(_session_id_hash, escrow);\r\n\t}\r\n\r\n\tfunction get_escrow(bytes32 _session_id_hash)\r\n\tpublic view\r\n\treturns (address)\r\n\t{\r\n\t\treturn escrow_contracts[_session_id_hash];\r\n\t}\r\n}\r\n\r\ncontract Escrow {\r\n\r\n\r\n\tbool open = false;\r\n\tbool locked = false;\r\n\tbool cancelled = false;\r\n\r\n\tbytes32 no_transfer_hash;\r\n\tbytes32 session_id_hash;\r\n\tbytes32 no_id_hash;\r\n\r\n\t// State\r\n\taddress payee;\r\n\taddress payer;\r\n\taddress private oracle_escrow;\r\n\tuint deposit_amount;\r\n\r\n\tbool payee_transfer_check = false;\r\n\tbool payer_transfer_check = false;\r\n\tbool payee_no_id_check = false;\r\n\tbool payer_no_id_check = false;\r\n\r\n\r\n\t// Events\r\n\tevent payee_deposit_complete();\r\n\tevent no_transfer_requested();\r\n\tevent deposit_amount_payout();\r\n\tevent escrow_deactivated();\r\n\tevent escrow_cancelled(address requester);\r\n\tevent commit_no_transfer();\r\n\tevent release_check_hold_deposit();\r\n\r\n\r\n\t// Constructor\r\n\tconstructor(bytes32 _no_transfer_hash, address  _payer, bytes32 _session_id_hash)\r\n\tpublic\r\n\t{\r\n\t\t// Setup the payer\r\n\t\tpayer = _payer;\r\n\t\tno_transfer_hash = _no_transfer_hash;\r\n\t\tsession_id_hash = _session_id_hash;\r\n\t\tpayer_transfer_check = true;\r\n\t\toracle_escrow = 0x8a23c7C42333ed6be5a68c24031cd7A737fbcBE8;\r\n\t\topen = true;\r\n\t}\r\n\r\n\r\n\t// Modifiers\r\n\tmodifier openEscrow() {\r\n\t\trequire(open, \"The escrow is deactivated.\");\r\n\t\t_;\r\n\t}\r\n\r\n\tmodifier notcancelled() {\r\n\t\trequire(!cancelled, \"The escrow was cancelled.\");\r\n\t\t_;\r\n\t}\r\n\r\n\r\n\r\n\r\n\t\t// Handle no transfer response\r\n\tfunction no_transfer_response(bytes32 _no_id_hash)\r\n\tpublic openEscrow\r\n\t{\r\n\t\trequire(msg.sender == oracle_escrow, \"Authorization unsuccessful\");\r\n\t\tno_id_hash = _no_id_hash;\r\n\t}\r\n\r\n\t\r\n\t\t// Handle no transfer request\r\n\tfunction request_no_transfer()\r\n\tpublic openEscrow\r\n\t{\r\n\t\trequire(msg.sender == payer, \"Only the payer can request a no transfer.\");\r\n\t\temit no_transfer_requested();\r\n\t}\r\n\r\n\r\n\t\t// Handle payee and payer responses to no transfer completion\r\n\tfunction no_id_check(bytes32 _no_id_hash, bool _curr_status)\r\n\tpublic openEscrow\r\n\t{\r\n\t\trequire(msg.sender == payer || msg.sender == payee);\r\n\t\trequire(_no_id_hash == no_id_hash, \"no id hash mismatch\");\r\n\r\n\t\tif (msg.sender == payer) {\r\n\t\t\tpayer_no_id_check = _curr_status;\r\n\t\t}\r\n\t\telse if (msg.sender == payee) {\r\n\t\t\tpayee_no_id_check = _curr_status;\r\n\t\t}\r\n\r\n\t\tif (payee_no_id_check && payer_no_id_check) {\r\n\t\t\temit commit_no_transfer();\r\n\t\t\tpayout_deposit_amount();\r\n\t\t}\r\n\t}\r\n\r\n\t// Behaviour\r\n\r\n\t\t// Handle deposits\r\n\tfunction deposit(bytes32 _no_transfer_hash)\r\n\tpublic  openEscrow\r\n\t{\r\n\t\trequire(msg.sender != payer);\r\n\t\trequire(locked == false, \"Sorry the escrow is now locked\");\r\n\t\trequire(_no_transfer_hash == no_transfer_hash, \"Sorry that is an invalid no transfer hash\");\r\n\r\n\t\tlocked = true;\r\n\r\n\t\tpayee = msg.sender;\r\n\t\tdeposit_amount = msg.value;\r\n\t\tpayee_transfer_check = true;\r\n\r\n\t\temit payee_deposit_complete();\r\n\t}\r\n\r\n\r\n\t\t// Handle payoutment of deposit_amount and closing of escrow\r\n\tfunction payout_deposit_amount()\r\n\tprivate openEscrow\r\n\t{\r\n\t\trequire(payee_no_id_check == true && payer_no_id_check == true,\r\n\t\t\t\t  \"Need both parties to agree before any deposit_amount are payout.\");\r\n\r\n\t\tuint amount = deposit_amount;\r\n\t\tdeposit_amount = 0;\r\n\t\tpayer.transfer(amount);\r\n\r\n\t\temit deposit_amount_payout();\r\n\t\temit release_check_hold_deposit();\r\n\r\n\t\topen = false;\r\n\t\temit escrow_deactivated();\r\n\t}\r\n\r\n\t\t// Handle requests to leave the session\r\n\tfunction cancel_escrow()\r\n\tpublic openEscrow notcancelled\r\n\t{\r\n\t\trequire(msg.sender == payer || msg.sender == payee);\r\n\r\n\t\t// Release deposit_amount back to payee\r\n\t\tuint amount = deposit_amount;\r\n\t\tdeposit_amount = 0;\r\n\t\tpayee.transfer(amount);\r\n\r\n\t\tcancelled = true;\r\n\t\temit escrow_cancelled(msg.sender);\r\n\r\n\t\topen = false;\r\n\t\temit escrow_deactivated();\r\n\t}\r\n\r\n\t// Getters\r\n\tfunction get_participants()\r\n\tpublic view\r\n\treturns (address, address)\r\n\t{\r\n\t\treturn (payer, payee);\r\n\t}\r\n\r\n\t\tfunction is_deposit_locked()\r\n\tpublic view\r\n\treturns (bool)\r\n\t{\r\n\t\treturn locked;\r\n\t}\r\n\r\n\tfunction is_open()\r\n\tpublic view\r\n\treturns (bool)\r\n\t{\r\n\t\treturn open;\r\n\t}\r\n\r\n}\r\n",
  "sourcePath": "D:\\xborder\\xborder\\src\\contracts\\Escrow.sol",
  "compiler": {
    "name": "solc",
    "version": "0.4.24+commit.e67f0147.Emscripten.clang"
  },
  "schemaVersion": "3.1.0",
  "updatedAt": "2020-05-24T16:02:13.956Z",
  "networkType": "ethereum",
  "devdoc": {
    "methods": {}
  },
  "userdoc": {
    "methods": {}
  }
}