{
  "contractName": "HoldingDepositFactory",
  "abi": [
    {
      "anonymous": false,
      "inputs": [
        {
          "indexed": false,
          "name": "session_id_hash",
          "type": "bytes32"
        },
        {
          "indexed": false,
          "name": "check_hold_deposit_contract",
          "type": "address"
        }
      ],
      "name": "check_hold_deposit_created",
      "type": "event"
    },
    {
      "constant": false,
      "inputs": [
        {
          "name": "_session_id_hash",
          "type": "bytes32"
        }
      ],
      "name": "open_check_hold_deposit",
      "outputs": [],
      "payable": false,
      "stateMutability": "nonpayable",
      "type": "function"
    },
    {
      "constant": true,
      "inputs": [
        {
          "name": "_session_id_hash",
          "type": "bytes32"
        }
      ],
      "name": "get_check_hold_deposit_contract",
      "outputs": [
        {
          "name": "",
          "type": "address"
        }
      ],
      "payable": false,
      "stateMutability": "view",
      "type": "function"
    }
  ],
  "bytecode": "0x608060405234801561001057600080fd5b5061171e806100206000396000f30060806040526004361061004c576000357c0100000000000000000000000000000000000000000000000000000000900463ffffffff16806318cf755314610051578063da3bd04a14610082575b600080fd5b34801561005d57600080fd5b5061008060048036038101908080356000191690602001909291905050506100f3565b005b34801561008e57600080fd5b506100b16004803603810190808035600019169060200190929190505050610223565b604051808273ffffffffffffffffffffffffffffffffffffffff1673ffffffffffffffffffffffffffffffffffffffff16815260200191505060405180910390f35b6000336100fe610267565b808273ffffffffffffffffffffffffffffffffffffffff1673ffffffffffffffffffffffffffffffffffffffff168152602001915050604051809103906000f080158015610150573d6000803e3d6000fd5b50905080600080846000191660001916815260200190815260200160002060006101000a81548173ffffffffffffffffffffffffffffffffffffffff021916908373ffffffffffffffffffffffffffffffffffffffff1602179055507f04074edfed0f227d34d79456711d182688ac897acf24a4db519b409f4f946b0482826040518083600019166000191681526020018273ffffffffffffffffffffffffffffffffffffffff1673ffffffffffffffffffffffffffffffffffffffff1681526020019250505060405180910390a15050565b6000806000836000191660001916815260200190815260200160002060009054906101000a900473ffffffffffffffffffffffffffffffffffffffff169050919050565b60405161147b806102788339019056006080604052738a23c7c42333ed6be5a68c24031cd7a737fbcbe8600260006101000a81548173ffffffffffffffffffffffffffffffffffffffff021916908373ffffffffffffffffffffffffffffffffffffffff1602179055506000600460006101000a81548160ff0219169083151502179055506000600460016101000a81548160ff0219169083151502179055506000600460026101000a81548160ff0219169083151502179055506000600460036101000a81548160ff02191690831515021790555060016004806101000a81548160ff0219169083151502179055503480156100eb57600080fd5b5060405160208061147b8339810180604052810190808051906020019092919050505080600160006101000a81548173ffffffffffffffffffffffffffffffffffffffff021916908373ffffffffffffffffffffffffffffffffffffffff1602179055506001600460006101000a81548160ff0219169083151502179055506001600460026101000a81548160ff021916908315150217905550506112e6806101956000396000f3006080604052600436106100a4576000357c0100000000000000000000000000000000000000000000000000000000900463ffffffff16806302bb9f42146100a95780630b0cfa751461013357806329b190871461016257806342110329146101915780635317cbba146101a8578063695394ea146101d75780638eb5e169146102025780639227a2f614610219578063c235070714610248578063d659d96814610277575b600080fd5b3480156100b557600080fd5b506100be6102a6565b604051808373ffffffffffffffffffffffffffffffffffffffff1673ffffffffffffffffffffffffffffffffffffffff1681526020018273ffffffffffffffffffffffffffffffffffffffff1673ffffffffffffffffffffffffffffffffffffffff1681526020019250505060405180910390f35b34801561013f57600080fd5b506101606004803603810190808035151590602001909291905050506102f6565b005b34801561016e57600080fd5b50610177610624565b604051808215151515815260200191505060405180910390f35b34801561019d57600080fd5b506101a66106e5565b005b3480156101b457600080fd5b506101bd6109ea565b604051808215151515815260200191505060405180910390f35b3480156101e357600080fd5b506101ec610a00565b6040518082815260200191505060405180910390f35b34801561020e57600080fd5b50610217610a0a565b005b34801561022557600080fd5b5061022e610afb565b604051808215151515815260200191505060405180910390f35b34801561025457600080fd5b50610275600480360381019080803515159060200190929190505050610bbc565b005b34801561028357600080fd5b5061028c610eb1565b604051808215151515815260200191505060405180910390f35b600080600160009054906101000a900473ffffffffffffffffffffffffffffffffffffffff166000809054906101000a900473ffffffffffffffffffffffffffffffffffffffff16915091509091565b600460029054906101000a900460ff1615156103a0576040517f08c379a000000000000000000000000000000000000000000000000000000000815260040180806020018281038252602e8152602001807f5468697320686f6c64696e67206465706f73697420636f6e747261637420686181526020017f732064656163746976617465642e00000000000000000000000000000000000081525060400191505060405180910390fd5b6000809054906101000a900473ffffffffffffffffffffffffffffffffffffffff1673ffffffffffffffffffffffffffffffffffffffff163373ffffffffffffffffffffffffffffffffffffffff1614806104485750600160009054906101000a900473ffffffffffffffffffffffffffffffffffffffff1673ffffffffffffffffffffffffffffffffffffffff163373ffffffffffffffffffffffffffffffffffffffff16145b15156104e2576040517f08c379a000000000000000000000000000000000000000000000000000000000815260040180806020018281038252603d8152602001807f4f6e6c79207061727469636970616e747320696e207468697320636f6e74726181526020017f63742063616e20696e766f6b652074686573652066756e6374696f6e7300000081525060400191505060405180910390fd5b600160009054906101000a900473ffffffffffffffffffffffffffffffffffffffff1673ffffffffffffffffffffffffffffffffffffffff163373ffffffffffffffffffffffffffffffffffffffff161415156105cd576040517f08c379a000000000000000000000000000000000000000000000000000000000815260040180806020018281038252603f8152602001807f4f6e6c79207468652070617965722063616e20696e69746961746520616e206381526020017f6865636b20746f20746865206465706f73697420637572725f7374617475730081525060400191505060405180910390fd5b806004806101000a81548160ff0219169083151502179055507f703895653ece392e0517553fb12cd2bce5d284c478ec6c674a098842af2dc43781604051808215151515815260200191505060405180910390a150565b6000600460029054906101000a900460ff1615156106d0576040517f08c379a000000000000000000000000000000000000000000000000000000000815260040180806020018281038252602e8152602001807f5468697320686f6c64696e67206465706f73697420636f6e747261637420686181526020017f732064656163746976617465642e00000000000000000000000000000000000081525060400191505060405180910390fd5b600460009054906101000a900460ff16905090565b600460029054906101000a900460ff16151561078f576040517f08c379a000000000000000000000000000000000000000000000000000000000815260040180806020018281038252602e8152602001807f5468697320686f6c64696e67206465706f73697420636f6e747261637420686181526020017f732064656163746976617465642e00000000000000000000000000000000000081525060400191505060405180910390fd5b600460039054906101000a900460ff16151515610814576040517f08c379a00000000000000000000000000000000000000000000000000000000081526004018080602001828103825260108152602001807f4e6f206d6f7265206465706f736974730000000000000000000000000000000081525060200191505060405180910390fd5b600160009054906101000a900473ffffffffffffffffffffffffffffffffffffffff1673ffffffffffffffffffffffffffffffffffffffff163373ffffffffffffffffffffffffffffffffffffffff1614151515610900576040517f08c379a000000000000000000000000000000000000000000000000000000000815260040180806020018281038252602c8152602001807f70617965722063616e6e6f74206465706f73697420696e746f2074686569722081526020017f6f776e20686f6c64696e672e000000000000000000000000000000000000000081525060400191505060405180910390fd5b6001600460036101000a81548160ff021916908315150217905550336000806101000a81548173ffffffffffffffffffffffffffffffffffffffff021916908373ffffffffffffffffffffffffffffffffffffffff160217905550346003819055506001600460016101000a81548160ff0219169083151502179055507f85a2ff7d3b89170b3138f702b39ecb36c544a5a348ce24c5b0d74c309cfc69b53334604051808373ffffffffffffffffffffffffffffffffffffffff1673ffffffffffffffffffffffffffffffffffffffff1681526020018281526020019250505060405180910390a1565b60006004809054906101000a900460ff16905090565b6000600354905090565b600260009054906101000a900473ffffffffffffffffffffffffffffffffffffffff1673ffffffffffffffffffffffffffffffffffffffff163373ffffffffffffffffffffffffffffffffffffffff16141515610acf576040517f08c379a000000000000000000000000000000000000000000000000000000000815260040180806020018281038252601a8152602001807f417574686f72697a6174696f6e20756e7375636365737366756c00000000000081525060200191505060405180910390fd5b610af96000809054906101000a900473ffffffffffffffffffffffffffffffffffffffff16610ec8565b565b6000600460029054906101000a900460ff161515610ba7576040517f08c379a000000000000000000000000000000000000000000000000000000000815260040180806020018281038252602e8152602001807f5468697320686f6c64696e67206465706f73697420636f6e747261637420686181526020017f732064656163746976617465642e00000000000000000000000000000000000081525060400191505060405180910390fd5b600460019054906101000a900460ff16905090565b600460029054906101000a900460ff161515610c66576040517f08c379a000000000000000000000000000000000000000000000000000000000815260040180806020018281038252602e8152602001807f5468697320686f6c64696e67206465706f73697420636f6e747261637420686181526020017f732064656163746976617465642e00000000000000000000000000000000000081525060400191505060405180910390fd5b6000809054906101000a900473ffffffffffffffffffffffffffffffffffffffff1673ffffffffffffffffffffffffffffffffffffffff163373ffffffffffffffffffffffffffffffffffffffff161480610d0e5750600160009054906101000a900473ffffffffffffffffffffffffffffffffffffffff1673ffffffffffffffffffffffffffffffffffffffff163373ffffffffffffffffffffffffffffffffffffffff16145b1515610da8576040517f08c379a000000000000000000000000000000000000000000000000000000000815260040180806020018281038252603d8152602001807f4f6e6c79207061727469636970616e747320696e207468697320636f6e74726181526020017f63742063616e20696e766f6b652074686573652066756e6374696f6e7300000081525060400191505060405180910390fd5b6000809054906101000a900473ffffffffffffffffffffffffffffffffffffffff1673ffffffffffffffffffffffffffffffffffffffff163373ffffffffffffffffffffffffffffffffffffffff161415610e1c5780600460016101000a81548160ff021916908315150217905550610e37565b80600460006101000a81548160ff0219169083151502179055505b7f0ad335ad428f47f908caad49c8f03e723cbc4bb12eecd13dde36fbea6d57c59a3382604051808373ffffffffffffffffffffffffffffffffffffffff1673ffffffffffffffffffffffffffffffffffffffff168152602001821515151581526020019250505060405180910390a1610eae6111ca565b50565b6000600460029054906101000a900460ff16905090565b600080600160009054906101000a900473ffffffffffffffffffffffffffffffffffffffff1673ffffffffffffffffffffffffffffffffffffffff168373ffffffffffffffffffffffffffffffffffffffff161480610f7357506000809054906101000a900473ffffffffffffffffffffffffffffffffffffffff1673ffffffffffffffffffffffffffffffffffffffff168373ffffffffffffffffffffffffffffffffffffffff16145b151561100d576040517f08c379a00000000000000000000000000000000000000000000000000000000081526004018080602001828103825260348152602001807f4f6e6c79207061727469636970616e74732063616e2068617665206465706f7381526020017f69745f616d6f756e742077697468647261776e2e00000000000000000000000081525060400191505060405180910390fd5b600060035414151561117e5760035491506000600381905550600160009054906101000a900473ffffffffffffffffffffffffffffffffffffffff1673ffffffffffffffffffffffffffffffffffffffff168373ffffffffffffffffffffffffffffffffffffffff1614156110a657600160009054906101000a900473ffffffffffffffffffffffffffffffffffffffff1690506110cb565b6000809054906101000a900473ffffffffffffffffffffffffffffffffffffffff1690505b8073ffffffffffffffffffffffffffffffffffffffff166108fc839081150290604051600060405180830381858888f19350505050158015611111573d6000803e3d6000fd5b507f39bb2fc047ce133db19b8ea5f97f0f5a13a5b2ecfffcbd5df2caaf2edcddc9e08183604051808373ffffffffffffffffffffffffffffffffffffffff1673ffffffffffffffffffffffffffffffffffffffff1681526020018281526020019250505060405180910390a15b6000600460026101000a81548160ff0219169083151502179055507faf3a7b9a5be96a58ede95041dd15d3f88b930ba40914bdf5cac11c477c35d46760405160405180910390a1505050565b60001515600460009054906101000a900460ff1615151415611215576112106000809054906101000a900473ffffffffffffffffffffffffffffffffffffffff16610ec8565b6112b8565b60001515600460019054906101000a900460ff16151514156112b7576004809054906101000a900460ff16156112745761126f6000809054906101000a900473ffffffffffffffffffffffffffffffffffffffff16610ec8565b6112b6565b6004809054906101000a900460ff1615156112b5576112b4600160009054906101000a900473ffffffffffffffffffffffffffffffffffffffff16610ec8565b5b5b5b5b5600a165627a7a7230582001dde99dbbc785f146caafab8888b20b229f7f01369a6e8460a73603432f28560029a165627a7a72305820f3e7593226db6b0acc65bce8d8750521ab4b146346c7087f96d9e302a58cbea70029",
  "source": "pragma solidity 0.4.24;\r\n\r\n\r\ncontract HoldingDepositFactory {\r\n\r\n\t// State\r\n\tmapping(bytes32 => address) check_hold_deposit_contracts;\r\n\r\n\r\n\t// Events\r\n\tevent check_hold_deposit_created(bytes32 session_id_hash, address check_hold_deposit_contract);\r\n\r\n\r\n\t// Behaviour\r\n\tfunction open_check_hold_deposit(bytes32 _session_id_hash)\r\n\tpublic\r\n\t{\r\n\t\taddress check_hold_deposit_contract = address(new HoldingDeposit(msg.sender));\r\n\t\tcheck_hold_deposit_contracts[_session_id_hash] = check_hold_deposit_contract;\r\n\r\n\t\temit check_hold_deposit_created(_session_id_hash, check_hold_deposit_contract);\r\n\t}\r\n\r\n\tfunction get_check_hold_deposit_contract(bytes32 _session_id_hash)\r\n\tpublic view\r\n\treturns (address)\r\n\t{\r\n\t\treturn check_hold_deposit_contracts[_session_id_hash];\r\n\t}\r\n}\r\n\r\ncontract HoldingDeposit {\r\n\r\n\t// State\r\n\taddress payee;\r\n\taddress payer;\r\n\taddress private mainAddress = 0x8a23c7C42333ed6be5a68c24031cd7A737fbcBE8;\r\n\tuint deposit;\r\n\r\n\tbool payer_curr_status = false;\r\n\tbool payee_curr_status = false;\r\n\tbool open = false;\r\n\tbool locked = false;\r\n\tbool deposit_refund_checker = true;\r\n\r\n\r\n\t// Constructor\r\n\tconstructor(address  _payer)\r\n\tpublic\r\n\t{\r\n\t\t// Add payer to the contract\r\n\t\tpayer = _payer;\r\n\t\tpayer_curr_status = true;\r\n\t\topen = true;\r\n\t}\r\n\r\n\r\n\t// Modifiers\r\n\tmodifier activate_deposit_hold() {\r\n\t\trequire(open, \"This holding deposit contract has deactivated.\");\r\n\t\t_;\r\n\t}\r\n\r\n\tmodifier onlyParticipants() {\r\n\t\trequire(msg.sender == payee || msg.sender == payer,\r\n\t\t\t\t \"Only participants in this contract can invoke these functions\");\r\n\t\t_;\r\n\t}\r\n\r\n\r\n\t// Events\r\n\tevent deposit_amount_deposited(address payee, uint value);\r\n\tevent curr_status_checkd(address sender, bool curr_status);\r\n\tevent deposit_curr_status_checkd(bool curr_status);\r\n\tevent deposit_withdrawn(address receiver, uint amount);\r\n\tevent hd_deactivated();\r\n\r\n\t// Functions\r\n\tfunction deposit_amount()\r\n\tpublic  activate_deposit_hold\r\n\t{\r\n\t\trequire(!locked, \"No more deposits\");\r\n\t\trequire(msg.sender != payer, \"payer cannot deposit into their own holding.\");\r\n\t\tlocked = true;\r\n\r\n\t\tpayee = msg.sender;\r\n\t\tdeposit = msg.value;\r\n\t\tpayee_curr_status = true;\r\n\r\n\t\temit deposit_amount_deposited(msg.sender, msg.value);\r\n\t}\r\n\r\n\tfunction check_curr_status(bool _curr_status)\r\n\tpublic activate_deposit_hold onlyParticipants\r\n\t{\r\n\t\tif (msg.sender == payee) {\r\n\t\t\tpayee_curr_status = _curr_status;\r\n\t\t}\r\n\t\telse {\r\n\t\t\tpayer_curr_status = _curr_status;\r\n\t\t}\r\n\r\n\t\temit curr_status_checkd(msg.sender, _curr_status);\r\n\r\n\t\tcheck_deposit_curr_status();\r\n\t}\r\n\r\n\tfunction check_deposit_curr_status(bool _curr_status)\r\n\tpublic activate_deposit_hold onlyParticipants\r\n\t{\r\n\t\trequire(msg.sender == payer, \"Only the payer can initiate an check to the deposit curr_status\");\r\n\t\tdeposit_refund_checker = _curr_status;\r\n\t\temit deposit_curr_status_checkd(_curr_status);\r\n\t}\r\n\r\n\tfunction withdraw(address  _receiver)\r\n\tprivate\r\n\t{\r\n\t\trequire(_receiver == payer || _receiver == payee, \"Only participants can have deposit_amount withdrawn.\");\r\n\r\n\t\tif (deposit != 0) {\r\n\r\n\t\t\tuint deposit_amount = deposit;\r\n\t\t\tdeposit = 0;\r\n\t\t\taddress  receiver;\r\n\r\n\t\t\t// Determine receiver of deposit\r\n\t\t\tif (_receiver == payer) {\r\n\t\t\t\treceiver = payer;\r\n\t\t\t}\r\n\t\t\telse {\r\n\t\t\t\treceiver = payee;\r\n\t\t\t}\r\n\r\n\t\t\t// Withraw the deposit\r\n\t\t\treceiver.transfer(deposit_amount);\r\n\t\t\temit deposit_withdrawn(receiver, deposit_amount);\r\n\t\t}\r\n\r\n\t\t// Close the holding deposit contract\r\n\t\topen = false;\r\n\t\temit hd_deactivated();\r\n\t}\r\n\r\n\tfunction check_deposit_curr_status()\r\n\tprivate\r\n\t{\r\n\t\t// If payer says no, payee is refunded deposit\r\n\t\tif (payer_curr_status == false) {\r\n\t\t\twithdraw(payee);\r\n\t\t}\r\n\t\telse if (payee_curr_status == false) {\r\n\t\t\t// Check curr_status of deposit\r\n\t\t\tif (deposit_refund_checker) {\r\n\t\t\t\twithdraw(payee);\r\n\t\t\t}\r\n\t\t\telse if (!deposit_refund_checker) {\r\n\t\t\t\twithdraw(payer);\r\n\t\t\t}\r\n\t\t}\r\n\t}\r\n\r\n\t\t// Release deposit upon escrow completion\r\n\tfunction release_deposit()\r\n\tpublic\r\n\t{\r\n\t\trequire(msg.sender == mainAddress, \"Authorization unsuccessful\");\r\n\t\twithdraw(payee);\r\n\t}\r\n\r\n\t// Getters\r\n\tfunction get_participants()\r\n\tpublic view\r\n\treturns (address, address)\r\n\t{\r\n\t\treturn (payer, payee);\r\n\t}\r\n\r\n\r\n\tfunction get_payer_curr_status()\r\n\tpublic view activate_deposit_hold\r\n\treturns (bool)\r\n\t{\r\n\t\treturn payer_curr_status;\r\n\t}\r\n\r\n\tfunction is_refund_checker()\r\n\tpublic view\r\n\treturns (bool)\r\n\t{\r\n\t\treturn deposit_refund_checker;\r\n\t}\r\n\r\n\tfunction is_open()\r\n\tpublic view\r\n\treturns (bool)\r\n\t{\r\n\t\treturn open;\r\n\t}\r\n\r\n\tfunction get_payee_curr_status()\r\n\tpublic view activate_deposit_hold\r\n\treturns (bool)\r\n\t{\r\n\t\treturn payee_curr_status;\r\n\t}\r\n\tfunction get_deposit_amount()\r\n\tpublic view\r\n\treturns (uint)\r\n\t{\r\n\t\treturn deposit;\r\n\t}\r\n\r\n}\r\n",
  "sourcePath": "D:\\xborder\\xborder\\src\\contracts\\HoldingDeposit.sol",
  "compiler": {
    "name": "solc",
    "version": "0.4.24+commit.e67f0147.Emscripten.clang"
  },
  "schemaVersion": "3.1.0",
  "updatedAt": "2020-05-24T16:02:16.084Z",
  "networkType": "ethereum",
  "devdoc": {
    "methods": {}
  },
  "userdoc": {
    "methods": {}
  }
}