{
  "contractName": "MaliciousConsumer",
  "abi": [
    {
      "inputs": [
        {
          "name": "_link",
          "type": "address"
        },
        {
          "name": "_oracle",
          "type": "address"
        }
      ],
      "payable": false,
      "stateMutability": "nonpayable",
      "type": "constructor"
    },
    {
      "payable": false,
      "stateMutability": "nonpayable",
      "type": "fallback"
    },
    {
      "anonymous": false,
      "inputs": [
        {
          "indexed": true,
          "name": "id",
          "type": "bytes32"
        }
      ],
      "name": "ChainlinkRequested",
      "type": "event"
    },
    {
      "anonymous": false,
      "inputs": [
        {
          "indexed": true,
          "name": "id",
          "type": "bytes32"
        }
      ],
      "name": "ChainlinkFulfilled",
      "type": "event"
    },
    {
      "anonymous": false,
      "inputs": [
        {
          "indexed": true,
          "name": "id",
          "type": "bytes32"
        }
      ],
      "name": "ChainlinkCancelled",
      "type": "event"
    },
    {
      "constant": false,
      "inputs": [
        {
          "name": "_id",
          "type": "bytes32"
        },
        {
          "name": "_callbackFunc",
          "type": "bytes"
        }
      ],
      "name": "requestData",
      "outputs": [],
      "payable": false,
      "stateMutability": "nonpayable",
      "type": "function"
    },
    {
      "constant": true,
      "inputs": [
        {
          "name": "",
          "type": "bytes32"
        },
        {
          "name": "",
          "type": "bytes32"
        }
      ],
      "name": "assertFail",
      "outputs": [],
      "payable": false,
      "stateMutability": "pure",
      "type": "function"
    },
    {
      "constant": false,
      "inputs": [
        {
          "name": "_requestId",
          "type": "bytes32"
        },
        {
          "name": "",
          "type": "bytes32"
        }
      ],
      "name": "cancelRequestOnFulfill",
      "outputs": [],
      "payable": false,
      "stateMutability": "nonpayable",
      "type": "function"
    },
    {
      "constant": false,
      "inputs": [],
      "name": "remove",
      "outputs": [],
      "payable": false,
      "stateMutability": "nonpayable",
      "type": "function"
    },
    {
      "constant": false,
      "inputs": [
        {
          "name": "_requestId",
          "type": "bytes32"
        },
        {
          "name": "",
          "type": "bytes32"
        }
      ],
      "name": "stealEthCall",
      "outputs": [],
      "payable": false,
      "stateMutability": "nonpayable",
      "type": "function"
    },
    {
      "constant": false,
      "inputs": [
        {
          "name": "_requestId",
          "type": "bytes32"
        },
        {
          "name": "",
          "type": "bytes32"
        }
      ],
      "name": "stealEthSend",
      "outputs": [],
      "payable": false,
      "stateMutability": "nonpayable",
      "type": "function"
    },
    {
      "constant": false,
      "inputs": [
        {
          "name": "_requestId",
          "type": "bytes32"
        },
        {
          "name": "",
          "type": "bytes32"
        }
      ],
      "name": "stealEthTransfer",
      "outputs": [],
      "payable": false,
      "stateMutability": "nonpayable",
      "type": "function"
    },
    {
      "constant": true,
      "inputs": [
        {
          "name": "",
          "type": "bytes32"
        },
        {
          "name": "",
          "type": "bytes32"
        }
      ],
      "name": "doesNothing",
      "outputs": [],
      "payable": false,
      "stateMutability": "pure",
      "type": "function"
    }
  ],
  "bytecode": "0x6080604052600160045534801561001557600080fd5b506040516040806114ed833981018060405281019080805190602001909291908051906020019092919050505061005a82610079640100000000026401000000009004565b61007281610094640100000000026401000000009004565b5050610137565b610091816100af640100000000026401000000009004565b50565b6100ac816100f3640100000000026401000000009004565b50565b80600260006101000a81548173ffffffffffffffffffffffffffffffffffffffff021916908373ffffffffffffffffffffffffffffffffffffffff16021790555050565b80600360006101000a81548173ffffffffffffffffffffffffffffffffffffffff021916908373ffffffffffffffffffffffffffffffffffffffff16021790555050565b6113a7806101466000396000f30060806040526004361061008e576000357c0100000000000000000000000000000000000000000000000000000000900463ffffffff1680631eb0f6101461009d578063a09d636a146100dc578063a7f437791461011b578063acdf0ba214610132578063b40584e814610171578063c728f720146101b0578063c737ecab146101ef578063e7eb2b1714610266575b34801561009a57600080fd5b50005b3480156100a957600080fd5b506100da600480360381019080803560001916906020019092919080356000191690602001909291905050506102a5565b005b3480156100e857600080fd5b50610119600480360381019080803560001916906020019092919080356000191690602001909291905050506102a9565b005b34801561012757600080fd5b506101306104c3565b005b34801561013e57600080fd5b5061016f600480360381019080803560001916906020019092919080356000191690602001909291905050506104dd565b005b34801561017d57600080fd5b506101ae60048036038101908080356000191690602001909291908035600019169060200190929190505050610700565b005b3480156101bc57600080fd5b506101ed60048036038101908080356000191690602001909291908035600019169060200190929190505050610740565b005b3480156101fb57600080fd5b506102646004803603810190808035600019169060200190929190803590602001908201803590602001908080601f0160208091040260200160405190810160405280939291908181526020018383808284378201915050505050509192919290505050610901565b005b34801561027257600080fd5b506102a3600480360381019080803560001916906020019092919080356000191690602001909291905050506109ae565b005b5050565b8160056000826000191660001916815260200190815260200160002060009054906101000a900473ffffffffffffffffffffffffffffffffffffffff1673ffffffffffffffffffffffffffffffffffffffff163373ffffffffffffffffffffffffffffffffffffffff161415156103ae576040517f08c379a00000000000000000000000000000000000000000000000000000000081526004018080602001828103825260288152602001807f536f75726365206d75737420626520746865206f7261636c65206f662074686581526020017f207265717565737400000000000000000000000000000000000000000000000081525060400191505060405180910390fd5b60056000826000191660001916815260200190815260200160002060006101000a81549073ffffffffffffffffffffffffffffffffffffffff021916905580600019167f7cc135e0cebb02c3480ae5d74d377283180a2601f8f644edf7987b009316c63a60405160405180910390a23073ffffffffffffffffffffffffffffffffffffffff16606460405160006040518083038185875af19250505015156104be576040517f08c379a000000000000000000000000000000000000000000000000000000000815260040180806020018281038252600b8152602001807f43616c6c206661696c656400000000000000000000000000000000000000000081525060200191505060405180910390fd5b505050565b600073ffffffffffffffffffffffffffffffffffffffff16ff5b8160056000826000191660001916815260200190815260200160002060009054906101000a900473ffffffffffffffffffffffffffffffffffffffff1673ffffffffffffffffffffffffffffffffffffffff163373ffffffffffffffffffffffffffffffffffffffff161415156105e2576040517f08c379a00000000000000000000000000000000000000000000000000000000081526004018080602001828103825260288152602001807f536f75726365206d75737420626520746865206f7261636c65206f662074686581526020017f207265717565737400000000000000000000000000000000000000000000000081525060400191505060405180910390fd5b60056000826000191660001916815260200190815260200160002060006101000a81549073ffffffffffffffffffffffffffffffffffffffff021916905580600019167f7cc135e0cebb02c3480ae5d74d377283180a2601f8f644edf7987b009316c63a60405160405180910390a23073ffffffffffffffffffffffffffffffffffffffff166108fc60649081150290604051600060405180830381858888f1935050505015156106fb576040517f08c379a000000000000000000000000000000000000000000000000000000000815260040180806020018281038252600b8152602001807f53656e64206661696c656400000000000000000000000000000000000000000081525060200191505060405180910390fd5b505050565b61073c82670de0b6b3a764000060010263b40584e87c0100000000000000000000000000000000000000000000000000000000026006546109bf565b5050565b8160056000826000191660001916815260200190815260200160002060009054906101000a900473ffffffffffffffffffffffffffffffffffffffff1673ffffffffffffffffffffffffffffffffffffffff163373ffffffffffffffffffffffffffffffffffffffff16141515610845576040517f08c379a00000000000000000000000000000000000000000000000000000000081526004018080602001828103825260288152602001807f536f75726365206d75737420626520746865206f7261636c65206f662074686581526020017f207265717565737400000000000000000000000000000000000000000000000081525060400191505060405180910390fd5b60056000826000191660001916815260200190815260200160002060006101000a81549073ffffffffffffffffffffffffffffffffffffffff021916905580600019167f7cc135e0cebb02c3480ae5d74d377283180a2601f8f644edf7987b009316c63a60405160405180910390a23073ffffffffffffffffffffffffffffffffffffffff166108fc60649081150290604051600060405180830381858888f193505050501580156108fb573d6000803e3d6000fd5b50505050565b6109096112d9565b6109768330846040518082805190602001908083835b602083101515610944578051825260208201915060208101905060208303925061091f565b6001836020036101000a0380198251168184511680821785525050505050509050019150506040518091039020610b5a565b905061098d61012c42610b7690919063ffffffff16565b6006819055506109a881670de0b6b3a7640000600102610b92565b50505050565b600260011415156109bb57fe5b5050565b600060056000866000191660001916815260200190815260200160002060009054906101000a900473ffffffffffffffffffffffffffffffffffffffff16905060056000866000191660001916815260200190815260200160002060006101000a81549073ffffffffffffffffffffffffffffffffffffffff021916905584600019167fe1fe3afa0f7f761ff0a8b89086790efd5140d2907ebd5b7ff6bfcb5e075fd4c560405160405180910390a28073ffffffffffffffffffffffffffffffffffffffff16636ee4d553868686866040518563ffffffff167c0100000000000000000000000000000000000000000000000000000000028152600401808560001916600019168152602001848152602001837bffffffffffffffffffffffffffffffffffffffffffffffffffffffff19167bffffffffffffffffffffffffffffffffffffffffffffffffffffffff19168152602001828152602001945050505050600060405180830381600087803b158015610b3b57600080fd5b505af1158015610b4f573d6000803e3d6000fd5b505050505050505050565b610b626112d9565b610b6d848484610ba6565b90509392505050565b60008183019050828110151515610b8957fe5b80905092915050565b6000610b9e8383610bd7565b905092915050565b610bae6112d9565b610bb66112d9565b610bcd85858584610c0e909392919063ffffffff16565b9150509392505050565b6000610c06600360009054906101000a900473ffffffffffffffffffffffffffffffffffffffff168484610cc8565b905092915050565b610c166112d9565b610c268560800151610100611054565b50838560000190600019169081600019168152505082856020019073ffffffffffffffffffffffffffffffffffffffff16908173ffffffffffffffffffffffffffffffffffffffff16815250508185604001907bffffffffffffffffffffffffffffffffffffffffffffffffffffffff191690817bffffffffffffffffffffffffffffffffffffffffffffffffffffffff191681525050849050949350505050565b600030600454604051602001808373ffffffffffffffffffffffffffffffffffffffff1673ffffffffffffffffffffffffffffffffffffffff166c01000000000000000000000000028152601401828152602001925050506040516020818303038152906040526040518082805190602001908083835b602083101515610d645780518252602082019150602081019050602083039250610d3f565b6001836020036101000a038019825116818451168082178552505050505050905001915050604051809103902090506004548360600181815250508360056000836000191660001916815260200190815260200160002060006101000a81548173ffffffffffffffffffffffffffffffffffffffff021916908373ffffffffffffffffffffffffffffffffffffffff16021790555080600019167fb5e6e01e79f91267dc17b4e6314d5d4d03593d2ceee0fbb452b750bd70ea5af960405160405180910390a2600260009054906101000a900473ffffffffffffffffffffffffffffffffffffffff1673ffffffffffffffffffffffffffffffffffffffff16634000aea08584610e73876110ae565b6040518463ffffffff167c0100000000000000000000000000000000000000000000000000000000028152600401808473ffffffffffffffffffffffffffffffffffffffff1673ffffffffffffffffffffffffffffffffffffffff16815260200183815260200180602001828103825283818151815260200191508051906020019080838360005b83811015610f16578082015181840152602081019050610efb565b50505050905090810190601f168015610f435780820380516001836020036101000a031916815260200191505b50945050505050602060405180830381600087803b158015610f6457600080fd5b505af1158015610f78573d6000803e3d6000fd5b505050506040513d6020811015610f8e57600080fd5b81019080805190602001909291905050501515611039576040517f08c379a00000000000000000000000000000000000000000000000000000000081526004018080602001828103825260238152602001807f756e61626c6520746f207472616e73666572416e6443616c6c20746f206f726181526020017f636c65000000000000000000000000000000000000000000000000000000000081525060400191505060405180910390fd5b60016004600082825401925050819055508090509392505050565b61105c611347565b600060208381151561106a57fe5b061415156110875760208281151561107e57fe5b06602003820191505b81836020018181525050604051808452600081528281016020016040525082905092915050565b6060600360009054906101000a900473ffffffffffffffffffffffffffffffffffffffff1673ffffffffffffffffffffffffffffffffffffffff16634042994690507c01000000000000000000000000000000000000000000000000000000000260008084600001518560200151866040015187606001516001896080015160000151604051602401808973ffffffffffffffffffffffffffffffffffffffff1673ffffffffffffffffffffffffffffffffffffffff16815260200188815260200187600019166000191681526020018673ffffffffffffffffffffffffffffffffffffffff1673ffffffffffffffffffffffffffffffffffffffff168152602001857bffffffffffffffffffffffffffffffffffffffffffffffffffffffff19167bffffffffffffffffffffffffffffffffffffffffffffffffffffffff1916815260200184815260200183815260200180602001828103825283818151815260200191508051906020019080838360005b8381101561123c578082015181840152602081019050611221565b50505050905090810190601f1680156112695780820380516001836020036101000a031916815260200191505b509950505050505050505050604051602081830303815290604052907bffffffffffffffffffffffffffffffffffffffffffffffffffffffff19166020820180517bffffffffffffffffffffffffffffffffffffffffffffffffffffffff83818316178352505050509050919050565b60c06040519081016040528060008019168152602001600073ffffffffffffffffffffffffffffffffffffffff16815260200160007bffffffffffffffffffffffffffffffffffffffffffffffffffffffff1916815260200160008152602001611341611361565b81525090565b604080519081016040528060608152602001600081525090565b6040805190810160405280606081526020016000815250905600a165627a7a723058206391038a4f554beba5849d38791783a82a934f336600ecd4e9ae4d9a2129b2700029",
  "source": "pragma solidity 0.4.24;\r\n\r\n\r\nimport \"../Chainlinked.sol\";\r\n\r\n\r\ncontract MaliciousConsumer is Chainlinked {\r\n  uint256 constant private ORACLE_PAYMENT = 1 * LINK;\r\n  uint256 private expiration;\r\n\r\n  constructor(address _link, address _oracle) public  {\r\n    setLinkToken(_link);\r\n    setOracle(_oracle);\r\n  }\r\n\r\n  function () public  {} // solhint-disable-line no-empty-blocks\r\n\r\n  function requestData(bytes32 _id, bytes _callbackFunc) public {\r\n    Chainlink.Request memory req = newRequest(_id, this, bytes4(keccak256(_callbackFunc)));\r\n    expiration = now.add(5 minutes); // solhint-disable-line not-rely-on-time\r\n    chainlinkRequest(req, ORACLE_PAYMENT);\r\n  }\r\n\r\n  function assertFail(bytes32, bytes32) public pure {\r\n    assert(1 == 2);\r\n  }\r\n\r\n  function cancelRequestOnFulfill(bytes32 _requestId, bytes32) public {\r\n    cancelChainlinkRequest(\r\n      _requestId,\r\n      ORACLE_PAYMENT,\r\n      this.cancelRequestOnFulfill.selector,\r\n      expiration);\r\n  }\r\n\r\n  function remove() public {\r\n    selfdestruct(address(0));\r\n  }\r\n\r\n  function stealEthCall(bytes32 _requestId, bytes32) public recordChainlinkFulfillment(_requestId) {\r\n    require(address(this).call.value(100)(), \"Call failed\"); // solhint-disable-line avoid-call-value\r\n  }\r\n\r\n  function stealEthSend(bytes32 _requestId, bytes32) public recordChainlinkFulfillment(_requestId) {\r\n    // solhint-disable-next-line check-send-result\r\n    require(address(this).send(100), \"Send failed\"); // solhint-disable-line multiple-sends\r\n  }\r\n\r\n  function stealEthTransfer(bytes32 _requestId, bytes32) public recordChainlinkFulfillment(_requestId) {\r\n    address(this).transfer(100);\r\n  }\r\n\r\n  function doesNothing(bytes32, bytes32) public pure {} // solhint-disable-line no-empty-blocks\r\n}\r\n",
  "sourcePath": "D:\\xborder\\xborder\\src\\contracts\\v0.4\\tests\\MaliciousConsumer.sol",
  "compiler": {
    "name": "solc",
    "version": "0.4.24+commit.e67f0147.Emscripten.clang"
  },
  "schemaVersion": "3.1.0",
  "updatedAt": "2020-05-24T16:02:11.187Z",
  "devdoc": {
    "methods": {}
  },
  "userdoc": {
    "methods": {}
  }
}