{
  "contractName": "MaliciousRequester",
  "abi": [
    {
      "inputs": [
        {
          "name": "_link",
          "type": "address"
        },
        {
          "name": "_oracle",
          "type": "address"
        }
      ],
      "payable": false,
      "stateMutability": "nonpayable",
      "type": "constructor"
    },
    {
      "anonymous": false,
      "inputs": [
        {
          "indexed": true,
          "name": "id",
          "type": "bytes32"
        }
      ],
      "name": "ChainlinkRequested",
      "type": "event"
    },
    {
      "anonymous": false,
      "inputs": [
        {
          "indexed": true,
          "name": "id",
          "type": "bytes32"
        }
      ],
      "name": "ChainlinkFulfilled",
      "type": "event"
    },
    {
      "anonymous": false,
      "inputs": [
        {
          "indexed": true,
          "name": "id",
          "type": "bytes32"
        }
      ],
      "name": "ChainlinkCancelled",
      "type": "event"
    },
    {
      "constant": false,
      "inputs": [],
      "name": "maliciousWithdraw",
      "outputs": [],
      "payable": false,
      "stateMutability": "nonpayable",
      "type": "function"
    },
    {
      "constant": false,
      "inputs": [
        {
          "name": "_id",
          "type": "bytes32"
        },
        {
          "name": "_target",
          "type": "address"
        },
        {
          "name": "_callbackFunc",
          "type": "bytes"
        }
      ],
      "name": "request",
      "outputs": [
        {
          "name": "requestId",
          "type": "bytes32"
        }
      ],
      "payable": false,
      "stateMutability": "nonpayable",
      "type": "function"
    },
    {
      "constant": false,
      "inputs": [
        {
          "name": "_id",
          "type": "bytes32"
        }
      ],
      "name": "maliciousPrice",
      "outputs": [
        {
          "name": "requestId",
          "type": "bytes32"
        }
      ],
      "payable": false,
      "stateMutability": "nonpayable",
      "type": "function"
    },
    {
      "constant": false,
      "inputs": [
        {
          "name": "_target",
          "type": "address"
        }
      ],
      "name": "maliciousTargetConsumer",
      "outputs": [
        {
          "name": "requestId",
          "type": "bytes32"
        }
      ],
      "payable": false,
      "stateMutability": "nonpayable",
      "type": "function"
    },
    {
      "constant": false,
      "inputs": [
        {
          "name": "_id",
          "type": "bytes32"
        },
        {
          "name": "_callbackFunc",
          "type": "bytes"
        }
      ],
      "name": "maliciousRequestCancel",
      "outputs": [],
      "payable": false,
      "stateMutability": "nonpayable",
      "type": "function"
    },
    {
      "constant": true,
      "inputs": [
        {
          "name": "",
          "type": "bytes32"
        },
        {
          "name": "",
          "type": "bytes32"
        }
      ],
      "name": "doesNothing",
      "outputs": [],
      "payable": false,
      "stateMutability": "pure",
      "type": "function"
    }
  ],
  "bytecode": "0x6080604052600160045560016006553480156200001b57600080fd5b50604051604080620021e78339810180604052810190808051906020019092919080519060200190929190505050620000638262000085640100000000026401000000009004565b6200007d81620000a2640100000000026401000000009004565b505062000147565b6200009f81620000bf640100000000026401000000009004565b50565b620000bc8162000103640100000000026401000000009004565b50565b80600260006101000a81548173ffffffffffffffffffffffffffffffffffffffff021916908373ffffffffffffffffffffffffffffffffffffffff16021790555050565b80600360006101000a81548173ffffffffffffffffffffffffffffffffffffffff021916908373ffffffffffffffffffffffffffffffffffffffff16021790555050565b61209080620001576000396000f300608060405260043610610078576000357c0100000000000000000000000000000000000000000000000000000000900463ffffffff1680631188ffff1461007d5780631ea3949e146100f45780631eb0f6101461010b578063cae2d8881461014a578063dac4c125146101a9578063e325a1181461025c575b600080fd5b34801561008957600080fd5b506100f26004803603810190808035600019169060200190929190803590602001908201803590602001908080601f01602080910402602001604051908101604052809392919081815260200183838082843782019150505050505091929192905050506102a9565b005b34801561010057600080fd5b506101096103d9565b005b34801561011757600080fd5b506101486004803603810190808035600019169060200190929190803560001916906020019092919050505061044a565b005b34801561015657600080fd5b5061018b600480360381019080803573ffffffffffffffffffffffffffffffffffffffff16906020019092919050505061044e565b60405180826000191660001916815260200191505060405180910390f35b3480156101b557600080fd5b5061023e6004803603810190808035600019169060200190929190803573ffffffffffffffffffffffffffffffffffffffff169060200190929190803590602001908201803590602001908080601f01602080910402602001604051908101604052809392919081815260200183838082843782019150505050505091929192905050506104d8565b60405180826000191660001916815260200191505060405180910390f35b34801561026857600080fd5b5061028b600480360381019080803560001916906020019092919050505061058b565b60405180826000191660001916815260200191505060405180910390f35b60006102b36105e2565b90508073ffffffffffffffffffffffffffffffffffffffff16636ee4d5536102dc8530866104d8565b670de0b6b3a7640000600102631188ffff7c0100000000000000000000000000000000000000000000000000000000026008546040518563ffffffff167c0100000000000000000000000000000000000000000000000000000000028152600401808560001916600019168152602001848152602001837bffffffffffffffffffffffffffffffffffffffffffffffffffffffff19167bffffffffffffffffffffffffffffffffffffffffffffffffffffffff19168152602001828152602001945050505050600060405180830381600087803b1580156103bc57600080fd5b505af11580156103d0573d6000803e3d6000fd5b50505050505050565b6103e1611f54565b61042f7f737065634964000000000000000000000000000000000000000000000000000030631eb0f6107c0100000000000000000000000000000000000000000000000000000000026105f1565b905061044681670de0b6b3a7640000600102610622565b5050565b5050565b6000610458611fc2565b6104b87f73706563496400000000000000000000000000000000000000000000000000008460405180807f66756c66696c6c28627974657333322c62797465733332290000000000000000815250601801905060405180910390206109a5565b90506104d08382670de0b6b3a76400006001026109c1565b915050919050565b60006104e2611fc2565b61054f8585856040518082805190602001908083835b60208310151561051d57805182526020820191506020810190506020830392506104f8565b6001836020036101000a03801982511681845116808217855250505050505090500191505060405180910390206109a5565b905061056661012c42610d4590919063ffffffff16565b60088190555061058181670de0b6b3a7640000600102610d61565b9150509392505050565b6000610595611fc2565b6105c38330631eb0f6107c0100000000000000000000000000000000000000000000000000000000026109a5565b90506105da81670de0b6b3a7640000600102610d75565b915050919050565b60006105ec6110f8565b905090565b6105f9611f54565b610601611f54565b61061885858584611122909392919063ffffffff16565b9150509392505050565b60008030600654604051602001808373ffffffffffffffffffffffffffffffffffffffff1673ffffffffffffffffffffffffffffffffffffffff166c01000000000000000000000000028152601401828152602001925050506040516020818303038152906040526040518082805190602001908083835b6020831015156106bf578051825260208201915060208101905060208303925061069a565b6001836020036101000a038019825116818451168082178552505050505050905001915050604051809103902091506006548460600181815250506107026105e2565b60076000846000191660001916815260200190815260200160002060006101000a81548173ffffffffffffffffffffffffffffffffffffffff021916908373ffffffffffffffffffffffffffffffffffffffff16021790555081600019167fb5e6e01e79f91267dc17b4e6314d5d4d03593d2ceee0fbb452b750bd70ea5af960405160405180910390a26107946111db565b90508073ffffffffffffffffffffffffffffffffffffffff16634000aea06107ba6105e2565b856107c4886111ea565b6040518463ffffffff167c0100000000000000000000000000000000000000000000000000000000028152600401808473ffffffffffffffffffffffffffffffffffffffff1673ffffffffffffffffffffffffffffffffffffffff16815260200183815260200180602001828103825283818151815260200191508051906020019080838360005b8381101561086757808201518184015260208101905061084c565b50505050905090810190601f1680156108945780820380516001836020036101000a031916815260200191505b50945050505050602060405180830381600087803b1580156108b557600080fd5b505af11580156108c9573d6000803e3d6000fd5b505050506040513d60208110156108df57600080fd5b8101908080519060200190929190505050151561098a576040517f08c379a00000000000000000000000000000000000000000000000000000000081526004018080602001828103825260238152602001807f556e61626c6520746f207472616e73666572416e6443616c6c20746f206f726181526020017f636c65000000000000000000000000000000000000000000000000000000000081525060400191505060405180910390fd5b60016006600082825401925050819055508191505092915050565b6109ad611fc2565b6109b8848484611392565b90509392505050565b60008084600654604051602001808373ffffffffffffffffffffffffffffffffffffffff1673ffffffffffffffffffffffffffffffffffffffff166c01000000000000000000000000028152601401828152602001925050506040516020818303038152906040526040518082805190602001908083835b602083101515610a5e5780518252602082019150602081019050602083039250610a39565b6001836020036101000a03801982511681845116808217855250505050505090500191505060405180910390209150600654846060018181525050610aa16105e2565b60076000846000191660001916815260200190815260200160002060006101000a81548173ffffffffffffffffffffffffffffffffffffffff021916908373ffffffffffffffffffffffffffffffffffffffff16021790555081600019167fb5e6e01e79f91267dc17b4e6314d5d4d03593d2ceee0fbb452b750bd70ea5af960405160405180910390a2610b336111db565b90508073ffffffffffffffffffffffffffffffffffffffff16634000aea0610b596105e2565b85610b63886113c3565b6040518463ffffffff167c0100000000000000000000000000000000000000000000000000000000028152600401808473ffffffffffffffffffffffffffffffffffffffff1673ffffffffffffffffffffffffffffffffffffffff16815260200183815260200180602001828103825283818151815260200191508051906020019080838360005b83811015610c06578082015181840152602081019050610beb565b50505050905090810190601f168015610c335780820380516001836020036101000a031916815260200191505b50945050505050602060405180830381600087803b158015610c5457600080fd5b505af1158015610c68573d6000803e3d6000fd5b505050506040513d6020811015610c7e57600080fd5b81019080805190602001909291905050501515610d29576040517f08c379a00000000000000000000000000000000000000000000000000000000081526004018080602001828103825260238152602001807f556e61626c6520746f207472616e73666572416e6443616c6c20746f206f726181526020017f636c65000000000000000000000000000000000000000000000000000000000081525060400191505060405180910390fd5b6001600660008282540192505081905550819150509392505050565b60008183019050828110151515610d5857fe5b80905092915050565b6000610d6d83836115ee565b905092915050565b60008030600654604051602001808373ffffffffffffffffffffffffffffffffffffffff1673ffffffffffffffffffffffffffffffffffffffff166c01000000000000000000000000028152601401828152602001925050506040516020818303038152906040526040518082805190602001908083835b602083101515610e125780518252602082019150602081019050602083039250610ded565b6001836020036101000a03801982511681845116808217855250505050505090500191505060405180910390209150600654846060018181525050610e556105e2565b60076000846000191660001916815260200190815260200160002060006101000a81548173ffffffffffffffffffffffffffffffffffffffff021916908373ffffffffffffffffffffffffffffffffffffffff16021790555081600019167fb5e6e01e79f91267dc17b4e6314d5d4d03593d2ceee0fbb452b750bd70ea5af960405160405180910390a2610ee76111db565b90508073ffffffffffffffffffffffffffffffffffffffff16634000aea0610f0d6105e2565b85610f1788611625565b6040518463ffffffff167c0100000000000000000000000000000000000000000000000000000000028152600401808473ffffffffffffffffffffffffffffffffffffffff1673ffffffffffffffffffffffffffffffffffffffff16815260200183815260200180602001828103825283818151815260200191508051906020019080838360005b83811015610fba578082015181840152602081019050610f9f565b50505050905090810190601f168015610fe75780820380516001836020036101000a031916815260200191505b50945050505050602060405180830381600087803b15801561100857600080fd5b505af115801561101c573d6000803e3d6000fd5b505050506040513d602081101561103257600080fd5b810190808051906020019092919050505015156110dd576040517f08c379a00000000000000000000000000000000000000000000000000000000081526004018080602001828103825260238152602001807f556e61626c6520746f207472616e73666572416e6443616c6c20746f206f726181526020017f636c65000000000000000000000000000000000000000000000000000000000081525060400191505060405180910390fd5b60016006600082825401925050819055508191505092915050565b6000600360009054906101000a900473ffffffffffffffffffffffffffffffffffffffff16905090565b61112a611f54565b6111398560800151608061185f565b50838560000190600019169081600019168152505082856020019073ffffffffffffffffffffffffffffffffffffffff16908173ffffffffffffffffffffffffffffffffffffffff16815250508185604001907bffffffffffffffffffffffffffffffffffffffffffffffffffffffff191690817bffffffffffffffffffffffffffffffffffffffffffffffffffffffff191681525050849050949350505050565b60006111e56118b9565b905090565b606060405180807f776974686472617728616464726573732c75696e74323536290000000000000081525060190190506040518091039020826020015183604001518460600151856080015160000151604051602401808573ffffffffffffffffffffffffffffffffffffffff1673ffffffffffffffffffffffffffffffffffffffff168152602001847bffffffffffffffffffffffffffffffffffffffffffffffffffffffff19167bffffffffffffffffffffffffffffffffffffffffffffffffffffffff1916815260200183815260200180602001828103825283818151815260200191508051906020019080838360005b838110156112f95780820151818401526020810190506112de565b50505050905090810190601f1680156113265780820380516001836020036101000a031916815260200191505b5095505050505050604051602081830303815290604052907bffffffffffffffffffffffffffffffffffffffffffffffffffffffff19166020820180517bffffffffffffffffffffffffffffffffffffffffffffffffffffffff83818316178352505050509050919050565b61139a611fc2565b6113a2611fc2565b6113b9858585846118e3909392919063ffffffff16565b9150509392505050565b606060405180807f6f7261636c655265717565737428616464726573732c75696e743235362c627981526020017f74657333322c616464726573732c6279746573342c75696e743235362c75696e81526020017f743235362c627974657329000000000000000000000000000000000000000000815250604b019050604051809103902060008084600001518560200151866040015187606001516001896080015160000151604051602401808960ff1681526020018860ff16815260200187600019166000191681526020018673ffffffffffffffffffffffffffffffffffffffff1673ffffffffffffffffffffffffffffffffffffffff168152602001857bffffffffffffffffffffffffffffffffffffffffffffffffffffffff19167bffffffffffffffffffffffffffffffffffffffffffffffffffffffff191681526020018481526020018360ff16815260200180602001828103825283818151815260200191508051906020019080838360005b83811015611551578082015181840152602081019050611536565b50505050905090810190601f16801561157e5780820380516001836020036101000a031916815260200191505b509950505050505050505050604051602081830303815290604052907bffffffffffffffffffffffffffffffffffffffffffffffffffffffff19166020820180517bffffffffffffffffffffffffffffffffffffffffffffffffffffffff83818316178352505050509050919050565b600061161d600360009054906101000a900473ffffffffffffffffffffffffffffffffffffffff16848461199d565b905092915050565b606060405180807f6f7261636c655265717565737428616464726573732c75696e743235362c627981526020017f74657333322c616464726573732c6279746573342c75696e743235362c75696e81526020017f743235362c627974657329000000000000000000000000000000000000000000815250604b01905060405180910390206000671bc16d674ec8000084600001518560200151866040015187606001516001896080015160000151604051602401808960ff1681526020018867ffffffffffffffff16815260200187600019166000191681526020018673ffffffffffffffffffffffffffffffffffffffff1673ffffffffffffffffffffffffffffffffffffffff168152602001857bffffffffffffffffffffffffffffffffffffffffffffffffffffffff19167bffffffffffffffffffffffffffffffffffffffffffffffffffffffff191681526020018481526020018360ff16815260200180602001828103825283818151815260200191508051906020019080838360005b838110156117c25780820151818401526020810190506117a7565b50505050905090810190601f1680156117ef5780820380516001836020036101000a031916815260200191505b509950505050505050505050604051602081830303815290604052907bffffffffffffffffffffffffffffffffffffffffffffffffffffffff19166020820180517bffffffffffffffffffffffffffffffffffffffffffffffffffffffff83818316178352505050509050919050565b611867612030565b600060208381151561187557fe5b061415156118925760208281151561188957fe5b06602003820191505b81836020018181525050604051808452600081528281016020016040525082905092915050565b6000600260009054906101000a900473ffffffffffffffffffffffffffffffffffffffff16905090565b6118eb611fc2565b6118fb856080015161010061185f565b50838560000190600019169081600019168152505082856020019073ffffffffffffffffffffffffffffffffffffffff16908173ffffffffffffffffffffffffffffffffffffffff16815250508185604001907bffffffffffffffffffffffffffffffffffffffffffffffffffffffff191690817bffffffffffffffffffffffffffffffffffffffffffffffffffffffff191681525050849050949350505050565b600030600454604051602001808373ffffffffffffffffffffffffffffffffffffffff1673ffffffffffffffffffffffffffffffffffffffff166c01000000000000000000000000028152601401828152602001925050506040516020818303038152906040526040518082805190602001908083835b602083101515611a395780518252602082019150602081019050602083039250611a14565b6001836020036101000a038019825116818451168082178552505050505050905001915050604051809103902090506004548360600181815250508360056000836000191660001916815260200190815260200160002060006101000a81548173ffffffffffffffffffffffffffffffffffffffff021916908373ffffffffffffffffffffffffffffffffffffffff16021790555080600019167fb5e6e01e79f91267dc17b4e6314d5d4d03593d2ceee0fbb452b750bd70ea5af960405160405180910390a2600260009054906101000a900473ffffffffffffffffffffffffffffffffffffffff1673ffffffffffffffffffffffffffffffffffffffff16634000aea08584611b4887611d29565b6040518463ffffffff167c0100000000000000000000000000000000000000000000000000000000028152600401808473ffffffffffffffffffffffffffffffffffffffff1673ffffffffffffffffffffffffffffffffffffffff16815260200183815260200180602001828103825283818151815260200191508051906020019080838360005b83811015611beb578082015181840152602081019050611bd0565b50505050905090810190601f168015611c185780820380516001836020036101000a031916815260200191505b50945050505050602060405180830381600087803b158015611c3957600080fd5b505af1158015611c4d573d6000803e3d6000fd5b505050506040513d6020811015611c6357600080fd5b81019080805190602001909291905050501515611d0e576040517f08c379a00000000000000000000000000000000000000000000000000000000081526004018080602001828103825260238152602001807f756e61626c6520746f207472616e73666572416e6443616c6c20746f206f726181526020017f636c65000000000000000000000000000000000000000000000000000000000081525060400191505060405180910390fd5b60016004600082825401925050819055508090509392505050565b6060600360009054906101000a900473ffffffffffffffffffffffffffffffffffffffff1673ffffffffffffffffffffffffffffffffffffffff16634042994690507c01000000000000000000000000000000000000000000000000000000000260008084600001518560200151866040015187606001516001896080015160000151604051602401808973ffffffffffffffffffffffffffffffffffffffff1673ffffffffffffffffffffffffffffffffffffffff16815260200188815260200187600019166000191681526020018673ffffffffffffffffffffffffffffffffffffffff1673ffffffffffffffffffffffffffffffffffffffff168152602001857bffffffffffffffffffffffffffffffffffffffffffffffffffffffff19167bffffffffffffffffffffffffffffffffffffffffffffffffffffffff1916815260200184815260200183815260200180602001828103825283818151815260200191508051906020019080838360005b83811015611eb7578082015181840152602081019050611e9c565b50505050905090810190601f168015611ee45780820380516001836020036101000a031916815260200191505b509950505050505050505050604051602081830303815290604052907bffffffffffffffffffffffffffffffffffffffffffffffffffffffff19166020820180517bffffffffffffffffffffffffffffffffffffffffffffffffffffffff83818316178352505050509050919050565b60c06040519081016040528060008019168152602001600073ffffffffffffffffffffffffffffffffffffffff16815260200160007bffffffffffffffffffffffffffffffffffffffffffffffffffffffff1916815260200160008152602001611fbc61204a565b81525090565b60c06040519081016040528060008019168152602001600073ffffffffffffffffffffffffffffffffffffffff16815260200160007bffffffffffffffffffffffffffffffffffffffffffffffffffffffff191681526020016000815260200161202a61204a565b81525090565b604080519081016040528060608152602001600081525090565b6040805190810160405280606081526020016000815250905600a165627a7a723058205e4d359f4324476bcf162353c6bc2485764646dac8fa0b5896a152622d90cad40029",
  "source": "pragma solidity 0.4.24;\r\n\r\n\r\nimport \"./MaliciousChainlinked.sol\";\r\n\r\n\r\ncontract MaliciousRequester is MaliciousChainlinked {\r\n\r\n  uint256 constant private ORACLE_PAYMENT = 1 * LINK;\r\n  uint256 private expiration;\r\n\r\n  constructor(address _link, address _oracle) public {\r\n    setLinkToken(_link);\r\n    setOracle(_oracle);\r\n  }\r\n\r\n  function maliciousWithdraw()\r\n    public\r\n  {\r\n    MaliciousChainlink.WithdrawRequest memory req = newWithdrawRequest(\r\n      \"specId\", this, this.doesNothing.selector);\r\n    chainlinkWithdrawRequest(req, ORACLE_PAYMENT);\r\n  }\r\n\r\n  function request(bytes32 _id, address _target, bytes _callbackFunc) public returns (bytes32 requestId) {\r\n    Chainlink.Request memory req = newRequest(_id, _target, bytes4(keccak256(_callbackFunc)));\r\n    expiration = now.add(5 minutes); // solhint-disable-line not-rely-on-time\r\n    requestId = chainlinkRequest(req, ORACLE_PAYMENT);\r\n  }\r\n\r\n  function maliciousPrice(bytes32 _id) public returns (bytes32 requestId) {\r\n    Chainlink.Request memory req = newRequest(_id, this, this.doesNothing.selector);\r\n    requestId = chainlinkPriceRequest(req, ORACLE_PAYMENT);\r\n  }\r\n\r\n  function maliciousTargetConsumer(address _target) public returns (bytes32 requestId) {\r\n    Chainlink.Request memory req = newRequest(\"specId\", _target, bytes4(keccak256(\"fulfill(bytes32,bytes32)\")));\r\n    requestId = chainlinkTargetRequest(_target, req, ORACLE_PAYMENT);\r\n  }\r\n\r\n  function maliciousRequestCancel(bytes32 _id, bytes _callbackFunc) public {\r\n    ChainlinkRequestInterface oracle = ChainlinkRequestInterface(oracleAddress());\r\n    oracle.cancelOracleRequest(\r\n      request(_id, this, _callbackFunc),\r\n      ORACLE_PAYMENT,\r\n      this.maliciousRequestCancel.selector,\r\n      expiration\r\n    );\r\n  }\r\n\r\n  function doesNothing(bytes32, bytes32) public pure {} // solhint-disable-line no-empty-blocks\r\n}\r\n",
  "sourcePath": "D:\\xborder\\xborder\\src\\contracts\\v0.4\\tests\\MaliciousRequester.sol",
  "compiler": {
    "name": "solc",
    "version": "0.4.24+commit.e67f0147.Emscripten.clang"
  },
  "schemaVersion": "3.1.0",
  "updatedAt": "2020-05-24T16:02:11.197Z",
  "devdoc": {
    "methods": {}
  },
  "userdoc": {
    "methods": {}
  }
}