{
  "contractName": "UpdatableConsumer",
  "abi": [
    {
      "constant": false,
      "inputs": [
        {
          "name": "_requestId",
          "type": "bytes32"
        },
        {
          "name": "_price",
          "type": "bytes32"
        }
      ],
      "name": "fulfill",
      "outputs": [],
      "payable": false,
      "stateMutability": "nonpayable",
      "type": "function"
    },
    {
      "constant": false,
      "inputs": [
        {
          "name": "_currency",
          "type": "string"
        }
      ],
      "name": "requestEthereumPrice",
      "outputs": [],
      "payable": false,
      "stateMutability": "nonpayable",
      "type": "function"
    },
    {
      "constant": false,
      "inputs": [],
      "name": "withdrawLink",
      "outputs": [],
      "payable": false,
      "stateMutability": "nonpayable",
      "type": "function"
    },
    {
      "constant": true,
      "inputs": [],
      "name": "currentPrice",
      "outputs": [
        {
          "name": "",
          "type": "bytes32"
        }
      ],
      "payable": false,
      "stateMutability": "view",
      "type": "function"
    },
    {
      "constant": false,
      "inputs": [
        {
          "name": "_requestId",
          "type": "bytes32"
        },
        {
          "name": "_payment",
          "type": "uint256"
        },
        {
          "name": "_callbackFunctionId",
          "type": "bytes4"
        },
        {
          "name": "_expiration",
          "type": "uint256"
        }
      ],
      "name": "cancelRequest",
      "outputs": [],
      "payable": false,
      "stateMutability": "nonpayable",
      "type": "function"
    },
    {
      "inputs": [
        {
          "name": "_specId",
          "type": "bytes32"
        },
        {
          "name": "_ens",
          "type": "address"
        },
        {
          "name": "_node",
          "type": "bytes32"
        }
      ],
      "payable": false,
      "stateMutability": "nonpayable",
      "type": "constructor"
    },
    {
      "anonymous": false,
      "inputs": [
        {
          "indexed": true,
          "name": "requestId",
          "type": "bytes32"
        },
        {
          "indexed": true,
          "name": "price",
          "type": "bytes32"
        }
      ],
      "name": "RequestFulfilled",
      "type": "event"
    },
    {
      "anonymous": false,
      "inputs": [
        {
          "indexed": true,
          "name": "id",
          "type": "bytes32"
        }
      ],
      "name": "ChainlinkRequested",
      "type": "event"
    },
    {
      "anonymous": false,
      "inputs": [
        {
          "indexed": true,
          "name": "id",
          "type": "bytes32"
        }
      ],
      "name": "ChainlinkFulfilled",
      "type": "event"
    },
    {
      "anonymous": false,
      "inputs": [
        {
          "indexed": true,
          "name": "id",
          "type": "bytes32"
        }
      ],
      "name": "ChainlinkCancelled",
      "type": "event"
    },
    {
      "constant": false,
      "inputs": [],
      "name": "updateOracle",
      "outputs": [],
      "payable": false,
      "stateMutability": "nonpayable",
      "type": "function"
    },
    {
      "constant": true,
      "inputs": [],
      "name": "getChainlinkToken",
      "outputs": [
        {
          "name": "",
          "type": "address"
        }
      ],
      "payable": false,
      "stateMutability": "view",
      "type": "function"
    },
    {
      "constant": true,
      "inputs": [],
      "name": "getOracle",
      "outputs": [
        {
          "name": "",
          "type": "address"
        }
      ],
      "payable": false,
      "stateMutability": "view",
      "type": "function"
    }
  ],
  "bytecode": "0x608060405260016004553480156200001657600080fd5b506040516060806200205183398101806040528101908080519060200190929190805190602001909291908051906020019092919050505082600681600019169055506200007482826200007d640100000000026401000000009004565b5050506200066f565b600080836000806101000a81548173ffffffffffffffffffffffffffffffffffffffff021916908373ffffffffffffffffffffffffffffffffffffffff160217905550826001816000191690555060015460405180807f6c696e6b00000000000000000000000000000000000000000000000000000000815250600401905060405180910390206040516020018083600019166000191681526020018260001916600019168152602001925050506040516020818303038152906040526040518082805190602001908083835b6020831015156200017157805182526020820191506020810190506020830392506200014a565b6001836020036101000a038019825116818451168082178552505050505050905001915050604051809103902091506000809054906101000a900473ffffffffffffffffffffffffffffffffffffffff1673ffffffffffffffffffffffffffffffffffffffff16630178b8bf836040518263ffffffff167c0100000000000000000000000000000000000000000000000000000000028152600401808260001916600019168152602001915050602060405180830381600087803b1580156200023957600080fd5b505af11580156200024e573d6000803e3d6000fd5b505050506040513d60208110156200026557600080fd5b81019080805190602001909291905050509050620003468173ffffffffffffffffffffffffffffffffffffffff16633b3b57de846040518263ffffffff167c0100000000000000000000000000000000000000000000000000000000028152600401808260001916600019168152602001915050602060405180830381600087803b158015620002f457600080fd5b505af115801562000309573d6000803e3d6000fd5b505050506040513d60208110156200032057600080fd5b810190808051906020019092919050505062000365640100000000026401000000009004565b6200035f620003a9640100000000026401000000009004565b50505050565b80600260006101000a81548173ffffffffffffffffffffffffffffffffffffffff021916908373ffffffffffffffffffffffffffffffffffffffff16021790555050565b60008060015460405180807f6f7261636c650000000000000000000000000000000000000000000000000000815250600601905060405180910390206040516020018083600019166000191681526020018260001916600019168152602001925050506040516020818303038152906040526040518082805190602001908083835b6020831015156200045257805182526020820191506020810190506020830392506200042b565b6001836020036101000a038019825116818451168082178552505050505050905001915050604051809103902091506000809054906101000a900473ffffffffffffffffffffffffffffffffffffffff1673ffffffffffffffffffffffffffffffffffffffff16630178b8bf836040518263ffffffff167c0100000000000000000000000000000000000000000000000000000000028152600401808260001916600019168152602001915050602060405180830381600087803b1580156200051a57600080fd5b505af11580156200052f573d6000803e3d6000fd5b505050506040513d60208110156200054657600080fd5b81019080805190602001909291905050509050620006278173ffffffffffffffffffffffffffffffffffffffff16633b3b57de846040518263ffffffff167c0100000000000000000000000000000000000000000000000000000000028152600401808260001916600019168152602001915050602060405180830381600087803b158015620005d557600080fd5b505af1158015620005ea573d6000803e3d6000fd5b505050506040513d60208110156200060157600080fd5b81019080805190602001909291905050506200062b640100000000026401000000009004565b5050565b80600360006101000a81548173ffffffffffffffffffffffffffffffffffffffff021916908373ffffffffffffffffffffffffffffffffffffffff16021790555050565b6119d2806200067f6000396000f30060806040526004361061008e576000357c0100000000000000000000000000000000000000000000000000000000900463ffffffff168063042f2b6514610093578063165d35e1146100d25780636c0cae6814610129578063833b1fce146101925780638dc654a2146101e95780639d1b464a14610200578063d6f124f014610233578063ec65d0f81461024a575b600080fd5b34801561009f57600080fd5b506100d0600480360381019080803560001916906020019092919080356000191690602001909291905050506102b8565b005b3480156100de57600080fd5b506100e7610472565b604051808273ffffffffffffffffffffffffffffffffffffffff1673ffffffffffffffffffffffffffffffffffffffff16815260200191505060405180910390f35b34801561013557600080fd5b50610190600480360381019080803590602001908201803590602001908080601f0160208091040260200160405190810160405280939291908181526020018383808284378201915050505050509192919290505050610481565b005b34801561019e57600080fd5b506101a7610643565b604051808273ffffffffffffffffffffffffffffffffffffffff1673ffffffffffffffffffffffffffffffffffffffff16815260200191505060405180910390f35b3480156101f557600080fd5b506101fe610652565b005b34801561020c57600080fd5b50610215610888565b60405180826000191660001916815260200191505060405180910390f35b34801561023f57600080fd5b5061024861088e565b005b34801561025657600080fd5b506102b660048036038101908080356000191690602001909291908035906020019092919080357bffffffffffffffffffffffffffffffffffffffffffffffffffffffff1916906020019092919080359060200190929190505050610898565b005b8160056000826000191660001916815260200190815260200160002060009054906101000a900473ffffffffffffffffffffffffffffffffffffffff1673ffffffffffffffffffffffffffffffffffffffff163373ffffffffffffffffffffffffffffffffffffffff161415156103bd576040517f08c379a00000000000000000000000000000000000000000000000000000000081526004018080602001828103825260288152602001807f536f75726365206d75737420626520746865206f7261636c65206f662074686581526020017f207265717565737400000000000000000000000000000000000000000000000081525060400191505060405180910390fd5b60056000826000191660001916815260200190815260200160002060006101000a81549073ffffffffffffffffffffffffffffffffffffffff021916905580600019167f7cc135e0cebb02c3480ae5d74d377283180a2601f8f644edf7987b009316c63a60405160405180910390a2816000191683600019167f0c2366233f634048c0f0458060d1228fab36d00f7c0ecf6bdf2d9c458503631160405160405180910390a38160078160001916905550505050565b600061047c6108aa565b905090565b610489611904565b60606104bb6006543063042f2b657c0100000000000000000000000000000000000000000000000000000000026108d4565b91506105896040805190810160405280600381526020017f6765740000000000000000000000000000000000000000000000000000000000815250608060405190810160405280604781526020017f68747470733a2f2f6d696e2d6170692e63727970746f636f6d706172652e636f81526020017f6d2f646174612f70726963653f6673796d3d455448267473796d733d5553442c81526020017f4555522c4a505900000000000000000000000000000000000000000000000000815250846109059092919063ffffffff16565b60016040519080825280602002602001820160405280156105be57816020015b60608152602001906001900390816105a95790505b509050828160008151811015156105d157fe5b906020019060200201819052506106286040805190810160405280600481526020017f706174680000000000000000000000000000000000000000000000000000000081525082846109389092919063ffffffff16565b61063d82670de0b6b3a76400006001026109ba565b50505050565b600061064d6109f1565b905090565b600061065c6108aa565b90508073ffffffffffffffffffffffffffffffffffffffff1663a9059cbb338373ffffffffffffffffffffffffffffffffffffffff166370a08231306040518263ffffffff167c0100000000000000000000000000000000000000000000000000000000028152600401808273ffffffffffffffffffffffffffffffffffffffff1673ffffffffffffffffffffffffffffffffffffffff168152602001915050602060405180830381600087803b15801561071657600080fd5b505af115801561072a573d6000803e3d6000fd5b505050506040513d602081101561074057600080fd5b81019080805190602001909291905050506040518363ffffffff167c0100000000000000000000000000000000000000000000000000000000028152600401808373ffffffffffffffffffffffffffffffffffffffff1673ffffffffffffffffffffffffffffffffffffffff16815260200182815260200192505050602060405180830381600087803b1580156107d657600080fd5b505af11580156107ea573d6000803e3d6000fd5b505050506040513d602081101561080057600080fd5b81019080805190602001909291905050501515610885576040517f08c379a00000000000000000000000000000000000000000000000000000000081526004018080602001828103825260128152602001807f556e61626c6520746f207472616e73666572000000000000000000000000000081525060200191505060405180910390fd5b50565b60075481565b610896610a1b565b565b6108a484848484610c84565b50505050565b6000600260009054906101000a900473ffffffffffffffffffffffffffffffffffffffff16905090565b6108dc611904565b6108e4611904565b6108fb85858584610e1f909392919063ffffffff16565b9150509392505050565b61091c828460800151610ed990919063ffffffff16565b610933818460800151610ed990919063ffffffff16565b505050565b6000610951838560800151610ed990919063ffffffff16565b61095e8460800151610efe565b600090505b81518110156109a75761099a828281518110151561097d57fe5b906020019060200201518560800151610ed990919063ffffffff16565b8080600101915050610963565b6109b48460800151610f0c565b50505050565b60006109e9600360009054906101000a900473ffffffffffffffffffffffffffffffffffffffff168484610f1a565b905092915050565b6000600360009054906101000a900473ffffffffffffffffffffffffffffffffffffffff16905090565b60008060015460405180807f6f7261636c650000000000000000000000000000000000000000000000000000815250600601905060405180910390206040516020018083600019166000191681526020018260001916600019168152602001925050506040516020818303038152906040526040518082805190602001908083835b602083101515610ac25780518252602082019150602081019050602083039250610a9d565b6001836020036101000a038019825116818451168082178552505050505050905001915050604051809103902091506000809054906101000a900473ffffffffffffffffffffffffffffffffffffffff1673ffffffffffffffffffffffffffffffffffffffff16630178b8bf836040518263ffffffff167c0100000000000000000000000000000000000000000000000000000000028152600401808260001916600019168152602001915050602060405180830381600087803b158015610b8957600080fd5b505af1158015610b9d573d6000803e3d6000fd5b505050506040513d6020811015610bb357600080fd5b81019080805190602001909291905050509050610c808173ffffffffffffffffffffffffffffffffffffffff16633b3b57de846040518263ffffffff167c0100000000000000000000000000000000000000000000000000000000028152600401808260001916600019168152602001915050602060405180830381600087803b158015610c4057600080fd5b505af1158015610c54573d6000803e3d6000fd5b505050506040513d6020811015610c6a57600080fd5b81019080805190602001909291905050506112a6565b5050565b600060056000866000191660001916815260200190815260200160002060009054906101000a900473ffffffffffffffffffffffffffffffffffffffff16905060056000866000191660001916815260200190815260200160002060006101000a81549073ffffffffffffffffffffffffffffffffffffffff021916905584600019167fe1fe3afa0f7f761ff0a8b89086790efd5140d2907ebd5b7ff6bfcb5e075fd4c560405160405180910390a28073ffffffffffffffffffffffffffffffffffffffff16636ee4d553868686866040518563ffffffff167c0100000000000000000000000000000000000000000000000000000000028152600401808560001916600019168152602001848152602001837bffffffffffffffffffffffffffffffffffffffffffffffffffffffff19167bffffffffffffffffffffffffffffffffffffffffffffffffffffffff19168152602001828152602001945050505050600060405180830381600087803b158015610e0057600080fd5b505af1158015610e14573d6000803e3d6000fd5b505050505050505050565b610e27611904565b610e3785608001516101006112ea565b50838560000190600019169081600019168152505082856020019073ffffffffffffffffffffffffffffffffffffffff16908173ffffffffffffffffffffffffffffffffffffffff16815250508185604001907bffffffffffffffffffffffffffffffffffffffffffffffffffffffff191690817bffffffffffffffffffffffffffffffffffffffffffffffffffffffff191681525050849050949350505050565b610ee68260038351611344565b610ef981836114a290919063ffffffff16565b505050565b610f098160046114c4565b50565b610f178160076114c4565b50565b600030600454604051602001808373ffffffffffffffffffffffffffffffffffffffff1673ffffffffffffffffffffffffffffffffffffffff166c01000000000000000000000000028152601401828152602001925050506040516020818303038152906040526040518082805190602001908083835b602083101515610fb65780518252602082019150602081019050602083039250610f91565b6001836020036101000a038019825116818451168082178552505050505050905001915050604051809103902090506004548360600181815250508360056000836000191660001916815260200190815260200160002060006101000a81548173ffffffffffffffffffffffffffffffffffffffff021916908373ffffffffffffffffffffffffffffffffffffffff16021790555080600019167fb5e6e01e79f91267dc17b4e6314d5d4d03593d2ceee0fbb452b750bd70ea5af960405160405180910390a2600260009054906101000a900473ffffffffffffffffffffffffffffffffffffffff1673ffffffffffffffffffffffffffffffffffffffff16634000aea085846110c5876114e9565b6040518463ffffffff167c0100000000000000000000000000000000000000000000000000000000028152600401808473ffffffffffffffffffffffffffffffffffffffff1673ffffffffffffffffffffffffffffffffffffffff16815260200183815260200180602001828103825283818151815260200191508051906020019080838360005b8381101561116857808201518184015260208101905061114d565b50505050905090810190601f1680156111955780820380516001836020036101000a031916815260200191505b50945050505050602060405180830381600087803b1580156111b657600080fd5b505af11580156111ca573d6000803e3d6000fd5b505050506040513d60208110156111e057600080fd5b8101908080519060200190929190505050151561128b576040517f08c379a00000000000000000000000000000000000000000000000000000000081526004018080602001828103825260238152602001807f756e61626c6520746f207472616e73666572416e6443616c6c20746f206f726181526020017f636c65000000000000000000000000000000000000000000000000000000000081525060400191505060405180910390fd5b60016004600082825401925050819055508090509392505050565b80600360006101000a81548173ffffffffffffffffffffffffffffffffffffffff021916908373ffffffffffffffffffffffffffffffffffffffff16021790555050565b6112f2611972565b600060208381151561130057fe5b0614151561131d5760208281151561131457fe5b06602003820191505b81836020018181525050604051808452600081528281016020016040525082905092915050565b601781111515611376576113708160058460ff169060020a0260ff16178461171490919063ffffffff16565b5061149d565b60ff811115156113bd576113a0601860058460ff169060020a02178461171490919063ffffffff16565b506113b7816001856117349092919063ffffffff16565b5061149c565b61ffff81111515611405576113e8601960058460ff169060020a02178461171490919063ffffffff16565b506113ff816002856117349092919063ffffffff16565b5061149b565b63ffffffff8111151561144f57611432601a60058460ff169060020a02178461171490919063ffffffff16565b50611449816004856117349092919063ffffffff16565b5061149a565b67ffffffffffffffff8111151561149957611480601b60058460ff169060020a02178461171490919063ffffffff16565b50611497816008856117349092919063ffffffff16565b505b5b5b5b5b505050565b6114aa611972565b6114bc83846000015151848551611756565b905092915050565b6114e4601f60058360ff169060020a02178361171490919063ffffffff16565b505050565b6060600360009054906101000a900473ffffffffffffffffffffffffffffffffffffffff1673ffffffffffffffffffffffffffffffffffffffff16634042994690507c01000000000000000000000000000000000000000000000000000000000260008084600001518560200151866040015187606001516001896080015160000151604051602401808973ffffffffffffffffffffffffffffffffffffffff1673ffffffffffffffffffffffffffffffffffffffff16815260200188815260200187600019166000191681526020018673ffffffffffffffffffffffffffffffffffffffff1673ffffffffffffffffffffffffffffffffffffffff168152602001857bffffffffffffffffffffffffffffffffffffffffffffffffffffffff19167bffffffffffffffffffffffffffffffffffffffffffffffffffffffff1916815260200184815260200183815260200180602001828103825283818151815260200191508051906020019080838360005b8381101561167757808201518184015260208101905061165c565b50505050905090810190601f1680156116a45780820380516001836020036101000a031916815260200191505b509950505050505050505050604051602081830303815290604052907bffffffffffffffffffffffffffffffffffffffffffffffffffffffff19166020820180517bffffffffffffffffffffffffffffffffffffffffffffffffffffffff83818316178352505050509050919050565b61171c611972565b61172c8384600001515184611813565b905092915050565b61173c611972565b61174d848560000151518585611863565b90509392505050565b61175e611972565b60008060008551851115151561177357600080fd5b8760200151858801111561179e5761179d8860026117978b602001518b8a016118c4565b026118e0565b5b8751805188602083010194508089880111156117ba5788870182525b60208801935050505b6020851015156117e857815183526020830192506020820191506020850394506117c3565b6001856020036101000a03905080198251168184511681811785525050879350505050949350505050565b61181b611972565b83602001518310151561183a576118398460028660200151026118e0565b5b8351805160208583010184815381861415611856576001820183525b5050508390509392505050565b61186b611972565b60008560200151858401111561188b5761188a866002878601026118e0565b5b6001836101000a03905085518386820101858319825116178152815185880111156118b65784870182525b505085915050949350505050565b6000818311156118d6578290506118da565b8190505b92915050565b6060826000015190506118f383836112ea565b506118fe83826114a2565b50505050565b60c06040519081016040528060008019168152602001600073ffffffffffffffffffffffffffffffffffffffff16815260200160007bffffffffffffffffffffffffffffffffffffffffffffffffffffffff191681526020016000815260200161196c61198c565b81525090565b604080519081016040528060608152602001600081525090565b6040805190810160405280606081526020016000815250905600a165627a7a723058209aad8d4d8f77a976603a960dd87d12a64b1289033d2511ee8e744e1e4f8f58fb0029",
  "source": "pragma solidity 0.4.24;\r\n\r\nimport \"./Consumer.sol\";\r\n\r\ncontract UpdatableConsumer is Consumer {\r\n\r\n  constructor(bytes32 _specId, address _ens, bytes32 _node) public {\r\n    specId = _specId;\r\n    useChainlinkWithENS(_ens, _node);\r\n  }\r\n\r\n  function updateOracle() public {\r\n    updateChainlinkOracleWithENS();\r\n  }\r\n\r\n  function getChainlinkToken() public view returns (address) {\r\n    return chainlinkTokenAddress();\r\n  }\r\n\r\n  function getOracle() public view returns (address) {\r\n    return chainlinkOracleAddress();\r\n  }\r\n\r\n}\r\n",
  "sourcePath": "D:\\xborder\\xborder\\src\\contracts\\v0.4\\tests\\UpdatableConsumer.sol",
  "compiler": {
    "name": "solc",
    "version": "0.4.24+commit.e67f0147.Emscripten.clang"
  },
  "schemaVersion": "3.1.0",
  "updatedAt": "2020-05-24T16:02:11.206Z",
  "devdoc": {
    "methods": {}
  },
  "userdoc": {
    "methods": {}
  }
}