{
  "contractName": "Verifier",
  "abi": [
    {
      "anonymous": false,
      "inputs": [
        {
          "indexed": false,
          "name": "property_uid",
          "type": "bytes32"
        }
      ],
      "name": "verification_requested",
      "type": "event"
    },
    {
      "constant": false,
      "inputs": [
        {
          "name": "_property_uid",
          "type": "bytes32"
        }
      ],
      "name": "verify",
      "outputs": [],
      "payable": false,
      "stateMutability": "nonpayable",
      "type": "function"
    }
  ],
  "bytecode": "0x608060405234801561001057600080fd5b5060e08061001f6000396000f300608060405260043610603f576000357c0100000000000000000000000000000000000000000000000000000000900463ffffffff16806375e36616146044575b600080fd5b348015604f57600080fd5b50607060048036038101908080356000191690602001909291905050506072565b005b7fe67ea319ad509472f8fe19f76c94905173d83826e5405408a0f4f22aa90934c98160405180826000191660001916815260200191505060405180910390a1505600a165627a7a723058208b0b11e052762e962e59a66159a1562eb68c5ebe7b1d1032bf3fd1c9d2c1cb8f0029",
  "source": "pragma solidity 0.4.24;\r\n\r\ncontract Verifier {\r\n\r\n\t// Events\r\n\tevent verification_requested(bytes32 property_uid);\r\n\r\n\t// Functions\r\n\tfunction verify(bytes32 _property_uid)\r\n\tpublic\r\n\t{\r\n\t\temit verification_requested(_property_uid);\r\n\t}\r\n}\r\n",
  "sourcePath": "D:\\xborder\\xborder\\src\\contracts\\Verifier.sol",
  "compiler": {
    "name": "solc",
    "version": "0.4.24+commit.e67f0147.Emscripten.clang"
  },
  "schemaVersion": "3.1.0",
  "updatedAt": "2020-05-24T16:02:15.484Z",
  "networkType": "ethereum",
  "devdoc": {
    "methods": {}
  },
  "userdoc": {
    "methods": {}
  }
}