{
  "contractName": "XBORDERFactory",
  "abi": [
    {
      "constant": true,
      "inputs": [
        {
          "name": "",
          "type": "address"
        },
        {
          "name": "",
          "type": "uint256"
        }
      ],
      "name": "XBORDERAddressespayer",
      "outputs": [
        {
          "name": "",
          "type": "address"
        }
      ],
      "payable": false,
      "stateMutability": "view",
      "type": "function"
    },
    {
      "constant": true,
      "inputs": [
        {
          "name": "",
          "type": "address"
        },
        {
          "name": "",
          "type": "uint256"
        }
      ],
      "name": "XBORDERAddressespayee",
      "outputs": [
        {
          "name": "",
          "type": "address"
        }
      ],
      "payable": false,
      "stateMutability": "view",
      "type": "function"
    },
    {
      "anonymous": false,
      "inputs": [
        {
          "indexed": false,
          "name": "XBORDERAddress",
          "type": "address"
        }
      ],
      "name": "contractDeployed",
      "type": "event"
    },
    {
      "constant": false,
      "inputs": [
        {
          "name": "_invoiceID",
          "type": "string"
        },
        {
          "name": "_payeeAddress",
          "type": "address"
        },
        {
          "name": "_jobIds",
          "type": "string[]"
        },
        {
          "name": "_oracles",
          "type": "address[]"
        }
      ],
      "name": "createXBORDER",
      "outputs": [],
      "payable": true,
      "stateMutability": "payable",
      "type": "function"
    },
    {
      "constant": true,
      "inputs": [],
      "name": "getXBORDERAddressespayer",
      "outputs": [
        {
          "name": "",
          "type": "uint256"
        }
      ],
      "payable": false,
      "stateMutability": "view",
      "type": "function"
    },
    {
      "constant": true,
      "inputs": [],
      "name": "getXBORDERAddressespayee",
      "outputs": [
        {
          "name": "",
          "type": "uint256"
        }
      ],
      "payable": false,
      "stateMutability": "view",
      "type": "function"
    }
  ],
  "bytecode": "0x608060405234801561001057600080fd5b50613818806100206000396000f30060806040526004361062000073576000357c0100000000000000000000000000000000000000000000000000000000900463ffffffff1680632d54eeec14620000785780633b8d630014620000bc57806350ea78a914620000ec5780638b24633b1462000130578063bcd8f6ea1462000160575b600080fd5b3480156200008557600080fd5b50620000a460048036036200009e9190810190620006de565b62000180565b604051620000b3919062000984565b60405180910390f35b348015620000c957600080fd5b50620000d4620001ce565b604051620000e3919062000a45565b60405180910390f35b348015620000f957600080fd5b50620001186004803603620001129190810190620006de565b62000217565b60405162000127919062000984565b60405180910390f35b3480156200013d57600080fd5b506200014862000265565b60405162000157919062000a45565b60405180910390f35b6200017e60048036036200017891908101906200071f565b620002af565b005b6000602052816000526040600020818154811015156200019c57fe5b906000526020600020016000915091509054906101000a900473ffffffffffffffffffffffffffffffffffffffff1681565b60008060003373ffffffffffffffffffffffffffffffffffffffff1673ffffffffffffffffffffffffffffffffffffffff16815260200190815260200160002080549050905090565b6001602052816000526040600020818154811015156200023357fe5b906000526020600020016000915091509054906101000a900473ffffffffffffffffffffffffffffffffffffffff1681565b6000600160003373ffffffffffffffffffffffffffffffffffffffff1673ffffffffffffffffffffffffffffffffffffffff16815260200190815260200160002080549050905090565b60008034111515620002f8576040517f08c379a0000000000000000000000000000000000000000000000000000000008152600401620002ef9062000a23565b60405180910390fd5b3073ffffffffffffffffffffffffffffffffffffffff163185338634878762000320620004d7565b6200033196959493929190620009a1565b6040518091039082f0801580156200034d573d6000803e3d6000fd5b50905090506000803373ffffffffffffffffffffffffffffffffffffffff1673ffffffffffffffffffffffffffffffffffffffff1681526020019081526020016000208190806001815401808255809150509060018203906000526020600020016000909192909190916101000a81548173ffffffffffffffffffffffffffffffffffffffff021916908373ffffffffffffffffffffffffffffffffffffffff16021790555050600160008573ffffffffffffffffffffffffffffffffffffffff1673ffffffffffffffffffffffffffffffffffffffff1681526020019081526020016000208190806001815401808255809150509060018203906000526020600020016000909192909190916101000a81548173ffffffffffffffffffffffffffffffffffffffff021916908373ffffffffffffffffffffffffffffffffffffffff160217905550507fee7093296389b8f6f6999cb461eee1c07db08ab6780299009000b4e3a45a20f681604051620004c8919062000984565b60405180910390a15050505050565b604051612b988062000c4783390190565b6000620004f6823562000bc6565b905092915050565b600082601f83011215156200051257600080fd5b813562000529620005238262000a90565b62000a62565b915081818352602084019350602081019050838560208402820111156200054f57600080fd5b60005b83811015620005835781620005688882620004e8565b84526020840193506020830192505060018101905062000552565b5050505092915050565b600082601f8301121515620005a157600080fd5b8135620005b8620005b28262000ab9565b62000a62565b9150818183526020840193506020810190508360005b83811015620006025781358601620005e788826200060c565b845260208401935060208301925050600181019050620005ce565b5050505092915050565b600082601f83011215156200062057600080fd5b813562000637620006318262000ae2565b62000a62565b915080825260208301602083018583830111156200065457600080fd5b6200066183828462000bf0565b50505092915050565b600082601f83011215156200067e57600080fd5b8135620006956200068f8262000b0f565b62000a62565b91508082526020830160208301858383011115620006b257600080fd5b620006bf83828462000bf0565b50505092915050565b6000620006d6823562000be6565b905092915050565b60008060408385031215620006f257600080fd5b60006200070285828601620004e8565b92505060206200071585828601620006c8565b9150509250929050565b600080600080608085870312156200073657600080fd5b600085013567ffffffffffffffff8111156200075157600080fd5b6200075f878288016200066a565b94505060206200077287828801620004e8565b935050604085013567ffffffffffffffff8111156200079057600080fd5b6200079e878288016200058d565b925050606085013567ffffffffffffffff811115620007bc57600080fd5b620007ca87828801620004fe565b91505092959194509250565b620007e18162000b9c565b82525050565b6000620007f48262000b56565b808452602084019350620008088362000b3c565b60005b82811015620008405762000821868351620007d6565b6200082c8262000b82565b91506020860195506001810190506200080b565b50849250505092915050565b6000620008598262000b61565b80845260208401935083602082028501620008748562000b49565b60005b84811015620008b35783830388526200089283835162000900565b92506200089f8262000b8f565b915060208801975060018101905062000877565b508196508694505050505092915050565b6000620008d18262000b77565b808452620008e781602086016020860162000bff565b620008f28162000c35565b602085010191505092915050565b60006200090d8262000b6c565b8084526200092381602086016020860162000bff565b6200092e8162000c35565b602085010191505092915050565b6000601e82527f4e6f204e656761746976652056616c7565732061726520616c6c6f77656400006020830152604082019050919050565b6200097e8162000bbc565b82525050565b60006020820190506200099b6000830184620007d6565b92915050565b600060c0820190508181036000830152620009bd8189620008c4565b9050620009ce6020830188620007d6565b620009dd6040830187620007d6565b620009ec606083018662000973565b818103608083015262000a0081856200084c565b905081810360a083015262000a168184620007e7565b9050979650505050505050565b6000602082019050818103600083015262000a3e816200093c565b9050919050565b600060208201905062000a5c600083018462000973565b92915050565b6000604051905081810181811067ffffffffffffffff8211171562000a8657600080fd5b8060405250919050565b600067ffffffffffffffff82111562000aa857600080fd5b602082029050602081019050919050565b600067ffffffffffffffff82111562000ad157600080fd5b602082029050602081019050919050565b600067ffffffffffffffff82111562000afa57600080fd5b601f19601f8301169050602081019050919050565b600067ffffffffffffffff82111562000b2757600080fd5b601f19601f8301169050602081019050919050565b6000602082019050919050565b6000602082019050919050565b600081519050919050565b600081519050919050565b600081519050919050565b600081519050919050565b6000602082019050919050565b6000602082019050919050565b600073ffffffffffffffffffffffffffffffffffffffff82169050919050565b6000819050919050565b600073ffffffffffffffffffffffffffffffffffffffff82169050919050565b6000819050919050565b82818337600083830152505050565b60005b8381101562000c1f57808201518184015260208101905062000c02565b8381111562000c2f576000848401525b50505050565b6000601f19601f830116905091905056006080604052600160045560405162002b9838038062002b9883398101806040526200002e9190810190620007a5565b42600b819055506000600660016101000a81548160ff021916908360ff1602179055506000600660026101000a81548160ff021916908360ff1602179055506000600660006101000a81548160ff0219169083151502179055508560079080519060200190620000a092919062000294565b5084600860006101000a81548173ffffffffffffffffffffffffffffffffffffffff021916908373ffffffffffffffffffffffffffffffffffffffff16021790555083600960006101000a81548173ffffffffffffffffffffffffffffffffffffffff021916908373ffffffffffffffffffffffffffffffffffffffff16021790555082600a8190555081600c9080519060200190620001429291906200031b565b5080600d90805190602001906200015b92919062000382565b506200017562000181640100000000026401000000009004565b505050505050620009c0565b6200024e73c89bd4e1632d3a43cb03aaad5262cbe4038bc57173ffffffffffffffffffffffffffffffffffffffff166338cc48316040518163ffffffff167c0100000000000000000000000000000000000000000000000000000000028152600401602060405180830381600087803b158015620001fe57600080fd5b505af115801562000213573d6000803e3d6000fd5b505050506040513d601f19601f8201168201806040525062000239919081019062000779565b62000250640100000000026401000000009004565b565b80600260006101000a81548173ffffffffffffffffffffffffffffffffffffffff021916908373ffffffffffffffffffffffffffffffffffffffff16021790555050565b828054600181600116156101000203166002900490600052602060002090601f016020900481019282601f10620002d757805160ff191683800117855562000308565b8280016001018555821562000308579182015b8281111562000307578251825591602001919060010190620002ea565b5b50905062000317919062000411565b5090565b8280548282559060005260206000209081019282156200036f579160200282015b828111156200036e5782518290805190602001906200035d92919062000439565b50916020019190600101906200033c565b5b5090506200037e9190620004c0565b5090565b828054828255906000526020600020908101928215620003fe579160200282015b82811115620003fd5782518260006101000a81548173ffffffffffffffffffffffffffffffffffffffff021916908373ffffffffffffffffffffffffffffffffffffffff16021790555091602001919060010190620003a3565b5b5090506200040d9190620004f1565b5090565b6200043691905b808211156200043257600081600090555060010162000418565b5090565b90565b828054600181600116156101000203166002900490600052602060002090601f016020900481019282601f106200047c57805160ff1916838001178555620004ad565b82800160010185558215620004ad579182015b82811115620004ac5782518255916020019190600101906200048f565b5b509050620004bc919062000411565b5090565b620004ee91905b80821115620004ea5760008181620004e0919062000537565b50600101620004c7565b5090565b90565b6200053491905b808211156200053057600081816101000a81549073ffffffffffffffffffffffffffffffffffffffff021916905550600101620004f8565b5090565b90565b50805460018160011615610100020316600290046000825580601f106200055f575062000580565b601f0160209004906000526020600020908101906200057f919062000411565b5b50565b600062000591825162000960565b905092915050565b600082601f8301121515620005ad57600080fd5b8151620005c4620005be82620008b4565b62000886565b91508181835260208401935060208101905083856020840282011115620005ea57600080fd5b60005b838110156200061e578162000603888262000583565b845260208401935060208301925050600181019050620005ed565b5050505092915050565b600082601f83011215156200063c57600080fd5b8151620006536200064d82620008dd565b62000886565b9150818183526020840193506020810190508360005b838110156200069d5781518601620006828882620006a7565b84526020840193506020830192505060018101905062000669565b5050505092915050565b600082601f8301121515620006bb57600080fd5b8151620006d2620006cc8262000906565b62000886565b91508082526020830160208301858383011115620006ef57600080fd5b620006fc8382846200098a565b50505092915050565b600082601f83011215156200071957600080fd5b8151620007306200072a8262000933565b62000886565b915080825260208301602083018583830111156200074d57600080fd5b6200075a8382846200098a565b50505092915050565b600062000771825162000980565b905092915050565b6000602082840312156200078c57600080fd5b60006200079c8482850162000583565b91505092915050565b60008060008060008060c08789031215620007bf57600080fd5b600087015167ffffffffffffffff811115620007da57600080fd5b620007e889828a0162000705565b9650506020620007fb89828a0162000583565b95505060406200080e89828a0162000583565b94505060606200082189828a0162000763565b935050608087015167ffffffffffffffff8111156200083f57600080fd5b6200084d89828a0162000628565b92505060a087015167ffffffffffffffff8111156200086b57600080fd5b6200087989828a0162000599565b9150509295509295509295565b6000604051905081810181811067ffffffffffffffff82111715620008aa57600080fd5b8060405250919050565b600067ffffffffffffffff821115620008cc57600080fd5b602082029050602081019050919050565b600067ffffffffffffffff821115620008f557600080fd5b602082029050602081019050919050565b600067ffffffffffffffff8211156200091e57600080fd5b601f19601f8301169050602081019050919050565b600067ffffffffffffffff8211156200094b57600080fd5b601f19601f8301169050602081019050919050565b600073ffffffffffffffffffffffffffffffffffffffff82169050919050565b6000819050919050565b60005b83811015620009aa5780820151818401526020810190506200098d565b83811115620009ba576000848401525b50505050565b6121c880620009d06000396000f3006080604052600436106100f1576000357c0100000000000000000000000000000000000000000000000000000000900463ffffffff16806308605d7d146100f65780630f2ace2a1461011f578063165d35e11461014a5780631a14b20b1461017557806321537466146101a05780632b2f1e14146101cb57806333cede13146101f65780634162cc88146102215780635b69a7d81461025e5780638dc654a21461029b57806396132521146102b25780639fc4f77e146102dd578063aa8c217c14610308578063b0fb162f14610333578063b3e8cc981461034a578063e086e5ec14610375578063ecda10f51461038c575b600080fd5b34801561010257600080fd5b5061011d60048036036101189190810190611bbe565b6103b7565b005b34801561012b57600080fd5b506101346105e2565b6040516101419190612075565b60405180910390f35b34801561015657600080fd5b5061015f6105f5565b60405161016c9190611e96565b60405180910390f35b34801561018157600080fd5b5061018a610604565b604051610197919061205a565b60405180910390f35b3480156101ac57600080fd5b506101b5610611565b6040516101c29190612075565b60405180910390f35b3480156101d757600080fd5b506101e0610624565b6040516101ed9190611e96565b60405180910390f35b34801561020257600080fd5b5061020b61064a565b6040516102189190611e96565b60405180910390f35b34801561022d57600080fd5b5061024860048036036102439190810190611bfa565b610670565b6040516102559190611fb8565b60405180910390f35b34801561026a57600080fd5b5061028560048036036102809190810190611bfa565b61072b565b6040516102929190611e96565b60405180910390f35b3480156102a757600080fd5b506102b0610769565b005b3480156102be57600080fd5b506102c7610a28565b6040516102d49190611f9d565b60405180910390f35b3480156102e957600080fd5b506102f2610a3b565b6040516102ff919061205a565b60405180910390f35b34801561031457600080fd5b5061031d610a48565b60405161032a919061205a565b60405180910390f35b34801561033f57600080fd5b50610348610a4e565b005b34801561035657600080fd5b5061035f610df0565b60405161036c9190611fb8565b60405180910390f35b34801561038157600080fd5b5061038a610e8e565b005b34801561039857600080fd5b506103a1611196565b6040516103ae919061205a565b60405180910390f35b8160056000826000191660001916815260200190815260200160002060009054906101000a900473ffffffffffffffffffffffffffffffffffffffff1673ffffffffffffffffffffffffffffffffffffffff163373ffffffffffffffffffffffffffffffffffffffff16141515610463576040517f08c379a000000000000000000000000000000000000000000000000000000000815260040161045a9061203a565b60405180910390fd5b60056000826000191660001916815260200190815260200160002060006101000a81549073ffffffffffffffffffffffffffffffffffffffff021916905580600019167f7cc135e0cebb02c3480ae5d74d377283180a2601f8f644edf7987b009316c63a60405160405180910390a2600115158215151415610512576001600660018282829054906101000a900460ff160192506101000a81548160ff021916908360ff16021790555061054f565b60001515821515141561054e576001600660028282829054906101000a900460ff160192506101000a81548160ff021916908360ff1602179055505b5b600660029054906101000a900460ff1660ff16600660019054906101000a900460ff1660ff161115610597576001600660006101000a81548160ff0219169083151502179055505b7f59d9805d3a15aed4cbbaab04888205edfc7c5c12896488193cde9654574e4b42600660009054906101000a900460ff166040516105d59190611f9d565b60405180910390a1505050565b600660029054906101000a900460ff1681565b60006105ff61119c565b905090565b6000600c80549050905090565b600660019054906101000a900460ff1681565b600860009054906101000a900473ffffffffffffffffffffffffffffffffffffffff1681565b600960009054906101000a900473ffffffffffffffffffffffffffffffffffffffff1681565b600c8181548110151561067f57fe5b906000526020600020016000915090508054600181600116156101000203166002900480601f0160208091040260200160405190810160405280929190818152602001828054600181600116156101000203166002900480156107235780601f106106f857610100808354040283529160200191610723565b820191906000526020600020905b81548152906001019060200180831161070657829003601f168201915b505050505081565b600d8181548110151561073a57fe5b906000526020600020016000915054906101000a900473ffffffffffffffffffffffffffffffffffffffff1681565b60003373ffffffffffffffffffffffffffffffffffffffff163073ffffffffffffffffffffffffffffffffffffffff1614806107f257503373ffffffffffffffffffffffffffffffffffffffff16600860009054906101000a900473ffffffffffffffffffffffffffffffffffffffff1673ffffffffffffffffffffffffffffffffffffffff16145b8061084a57503373ffffffffffffffffffffffffffffffffffffffff16600960009054906101000a900473ffffffffffffffffffffffffffffffffffffffff1673ffffffffffffffffffffffffffffffffffffffff16145b151561088b576040517f08c379a000000000000000000000000000000000000000000000000000000000815260040161088290611fda565b60405180910390fd5b61089361119c565b90508073ffffffffffffffffffffffffffffffffffffffff1663a9059cbb338373ffffffffffffffffffffffffffffffffffffffff166370a08231306040518263ffffffff167c01000000000000000000000000000000000000000000000000000000000281526004016109079190611e96565b602060405180830381600087803b15801561092157600080fd5b505af1158015610935573d6000803e3d6000fd5b505050506040513d601f19601f820116820180604052506109599190810190611c23565b6040518363ffffffff167c0100000000000000000000000000000000000000000000000000000000028152600401610992929190611eb1565b602060405180830381600087803b1580156109ac57600080fd5b505af11580156109c0573d6000803e3d6000fd5b505050506040513d601f19601f820116820180604052506109e49190810190611b95565b1515610a25576040517f08c379a0000000000000000000000000000000000000000000000000000000008152600401610a1c9061201a565b60405180910390fd5b50565b600660009054906101000a900460ff1681565b6000600d80549050905090565b600a5481565b6000610a58611a8f565b3373ffffffffffffffffffffffffffffffffffffffff163073ffffffffffffffffffffffffffffffffffffffff161480610adf57503373ffffffffffffffffffffffffffffffffffffffff16600860009054906101000a900473ffffffffffffffffffffffffffffffffffffffff1673ffffffffffffffffffffffffffffffffffffffff16145b80610b3757503373ffffffffffffffffffffffffffffffffffffffff16600960009054906101000a900473ffffffffffffffffffffffffffffffffffffffff1673ffffffffffffffffffffffffffffffffffffffff16145b1515610b78576040517f08c379a0000000000000000000000000000000000000000000000000000000008152600401610b6f90611fda565b60405180910390fd5b6000600660016101000a81548160ff021916908360ff1602179055506000600660026101000a81548160ff021916908360ff160217905550600091505b600d80549050821015610dec57610ca9610c7f600c84815481101515610bd757fe5b906000526020600020018054600181600116156101000203166002900480601f016020809104026020016040519081016040528092919081815260200182805460018160011615610100020316600290048015610c755780601f10610c4a57610100808354040283529160200191610c75565b820191906000526020600020905b815481529060010190602001808311610c5857829003601f168201915b50505050506111c6565b306308605d7d7c0100000000000000000000000000000000000000000000000000000000026111f1565b9050610d8f6040805190810160405280600a81526020017f696e766f6963655f69640000000000000000000000000000000000000000000081525060078054600181600116156101000203166002900480601f016020809104026020016040519081016040528092919081815260200182805460018160011615610100020316600290048015610d7a5780601f10610d4f57610100808354040283529160200191610d7a565b820191906000526020600020905b815481529060010190602001808311610d5d57829003601f168201915b5050505050836112229092919063ffffffff16565b610dde600d83815481101515610da157fe5b9060005260206000200160009054906101000a900473ffffffffffffffffffffffffffffffffffffffff1682670de0b6b3a7640000600102611255565b508180600101925050610bb5565b5050565b60078054600181600116156101000203166002900480601f016020809104026020016040519081016040528092919081815260200182805460018160011615610100020316600290048015610e865780601f10610e5b57610100808354040283529160200191610e86565b820191906000526020600020905b815481529060010190602001808311610e6957829003601f168201915b505050505081565b3373ffffffffffffffffffffffffffffffffffffffff163073ffffffffffffffffffffffffffffffffffffffff161480610f1557503373ffffffffffffffffffffffffffffffffffffffff16600860009054906101000a900473ffffffffffffffffffffffffffffffffffffffff1673ffffffffffffffffffffffffffffffffffffffff16145b80610f6d57503373ffffffffffffffffffffffffffffffffffffffff16600960009054906101000a900473ffffffffffffffffffffffffffffffffffffffff1673ffffffffffffffffffffffffffffffffffffffff16145b1515610fae576040517f08c379a0000000000000000000000000000000000000000000000000000000008152600401610fa590611fda565b60405180910390fd5b600860009054906101000a900473ffffffffffffffffffffffffffffffffffffffff1673ffffffffffffffffffffffffffffffffffffffff163373ffffffffffffffffffffffffffffffffffffffff161480156110125750620151804201600b5411155b801561104f57506000600660019054906101000a900460ff1660ff1614158061104e57506000600660029054906101000a900460ff1660ff1614155b5b156110c75760001515600660009054906101000a900460ff16151514156110c2573373ffffffffffffffffffffffffffffffffffffffff166108fc600a549081150290604051600060405180830381858888f193505050501580156110b8573d6000803e3d6000fd5b506000600a819055505b611194565b600960009054906101000a900473ffffffffffffffffffffffffffffffffffffffff1673ffffffffffffffffffffffffffffffffffffffff163373ffffffffffffffffffffffffffffffffffffffff16148015611137575060011515600660009054906101000a900460ff161515145b15611192573373ffffffffffffffffffffffffffffffffffffffff166108fc600a549081150290604051600060405180830381858888f19350505050158015611184573d6000803e3d6000fd5b506000600a81905550611193565b5b5b565b600b5481565b6000600260009054906101000a900473ffffffffffffffffffffffffffffffffffffffff16905090565b600060608290506000815114156111e357600060010291506111eb565b602083015191505b50919050565b6111f9611a8f565b611201611a8f565b611218858585846114e8909392919063ffffffff16565b9150509392505050565b6112398284608001516115a290919063ffffffff16565b6112508184608001516115a290919063ffffffff16565b505050565b600030600454604051602001808373ffffffffffffffffffffffffffffffffffffffff1673ffffffffffffffffffffffffffffffffffffffff166c01000000000000000000000000028152601401828152602001925050506040516020818303038152906040526040518082805190602001908083835b6020831015156112f157805182526020820191506020810190506020830392506112cc565b6001836020036101000a038019825116818451168082178552505050505050905001915050604051809103902090506004548360600181815250508360056000836000191660001916815260200190815260200160002060006101000a81548173ffffffffffffffffffffffffffffffffffffffff021916908373ffffffffffffffffffffffffffffffffffffffff16021790555080600019167fb5e6e01e79f91267dc17b4e6314d5d4d03593d2ceee0fbb452b750bd70ea5af960405160405180910390a2600260009054906101000a900473ffffffffffffffffffffffffffffffffffffffff1673ffffffffffffffffffffffffffffffffffffffff16634000aea08584611400876115c7565b6040518463ffffffff167c010000000000000000000000000000000000000000000000000000000002815260040161143a93929190611f5f565b602060405180830381600087803b15801561145457600080fd5b505af1158015611468573d6000803e3d6000fd5b505050506040513d601f19601f8201168201806040525061148c9190810190611b95565b15156114cd576040517f08c379a00000000000000000000000000000000000000000000000000000000081526004016114c490611ffa565b60405180910390fd5b60016004600082825401925050819055508090509392505050565b6114f0611a8f565b61150085608001516101006116c5565b50838560000190600019169081600019168152505082856020019073ffffffffffffffffffffffffffffffffffffffff16908173ffffffffffffffffffffffffffffffffffffffff16815250508185604001907bffffffffffffffffffffffffffffffffffffffffffffffffffffffff191690817bffffffffffffffffffffffffffffffffffffffffffffffffffffffff191681525050849050949350505050565b6115af826003835161171f565b6115c2818361187d90919063ffffffff16565b505050565b6060600360009054906101000a900473ffffffffffffffffffffffffffffffffffffffff1673ffffffffffffffffffffffffffffffffffffffff16634042994690507c01000000000000000000000000000000000000000000000000000000000260008084600001518560200151866040015187606001516001896080015160000151604051602401611661989796959493929190611eda565b604051602081830303815290604052907bffffffffffffffffffffffffffffffffffffffffffffffffffffffff19166020820180517bffffffffffffffffffffffffffffffffffffffffffffffffffffffff83818316178352505050509050919050565b6116cd611afd565b60006020838115156116db57fe5b061415156116f8576020828115156116ef57fe5b06602003820191505b81836020018181525050604051808452600081528281016020016040525082905092915050565b6017811115156117515761174b8160058460ff169060020a0260ff16178461189f90919063ffffffff16565b50611878565b60ff811115156117985761177b601860058460ff169060020a02178461189f90919063ffffffff16565b50611792816001856118bf9092919063ffffffff16565b50611877565b61ffff811115156117e0576117c3601960058460ff169060020a02178461189f90919063ffffffff16565b506117da816002856118bf9092919063ffffffff16565b50611876565b63ffffffff8111151561182a5761180d601a60058460ff169060020a02178461189f90919063ffffffff16565b50611824816004856118bf9092919063ffffffff16565b50611875565b67ffffffffffffffff811115156118745761185b601b60058460ff169060020a02178461189f90919063ffffffff16565b50611872816008856118bf9092919063ffffffff16565b505b5b5b5b5b505050565b611885611afd565b611897838460000151518485516118e1565b905092915050565b6118a7611afd565b6118b7838460000151518461199e565b905092915050565b6118c7611afd565b6118d88485600001515185856119ee565b90509392505050565b6118e9611afd565b6000806000855185111515156118fe57600080fd5b87602001518588011115611929576119288860026119228b602001518b8a01611a4f565b02611a6b565b5b8751805188602083010194508089880111156119455788870182525b60208801935050505b602085101515611973578151835260208301925060208201915060208503945061194e565b6001856020036101000a03905080198251168184511681811785525050879350505050949350505050565b6119a6611afd565b8360200151831015156119c5576119c4846002866020015102611a6b565b5b83518051602085830101848153818614156119e1576001820183525b5050508390509392505050565b6119f6611afd565b600085602001518584011115611a1657611a1586600287860102611a6b565b5b6001836101000a0390508551838682010185831982511617815281518588011115611a415784870182525b505085915050949350505050565b600081831115611a6157829050611a65565b8190505b92915050565b606082600001519050611a7e83836116c5565b50611a89838261187d565b50505050565b60c06040519081016040528060008019168152602001600073ffffffffffffffffffffffffffffffffffffffff16815260200160007bffffffffffffffffffffffffffffffffffffffffffffffffffffffff1916815260200160008152602001611af7611b17565b81525090565b604080519081016040528060608152602001600081525090565b604080519081016040528060608152602001600081525090565b6000611b3d823561212a565b905092915050565b6000611b51825161212a565b905092915050565b6000611b658235612136565b905092915050565b6000611b798235612140565b905092915050565b6000611b8d8251612140565b905092915050565b600060208284031215611ba757600080fd5b6000611bb584828501611b45565b91505092915050565b60008060408385031215611bd157600080fd5b6000611bdf85828601611b59565b9250506020611bf085828601611b31565b9150509250929050565b600060208284031215611c0c57600080fd5b6000611c1a84828501611b6d565b91505092915050565b600060208284031215611c3557600080fd5b6000611c4384828501611b81565b91505092915050565b611c55816120b1565b82525050565b611c64816120d1565b82525050565b611c73816120dd565b82525050565b611c82816120e7565b82525050565b6000611c938261209b565b808452611ca781602086016020860161214a565b611cb08161217d565b602085010191505092915050565b6000611cc982612090565b808452611cdd81602086016020860161214a565b611ce68161217d565b602085010191505092915050565b6000611cff826120a6565b808452611d1381602086016020860161214a565b611d1c8161217d565b602085010191505092915050565b6000602582527f556e617574686f7269736564202c206d757374206265207061796565206f722060208301527f70617965720000000000000000000000000000000000000000000000000000006040830152606082019050919050565b6000602382527f756e61626c6520746f207472616e73666572416e6443616c6c20746f206f726160208301527f636c6500000000000000000000000000000000000000000000000000000000006040830152606082019050919050565b6000601282527f556e61626c6520746f207472616e7366657200000000000000000000000000006020830152604082019050919050565b6000602882527f536f75726365206d75737420626520746865206f7261636c65206f662074686560208301527f20726571756573740000000000000000000000000000000000000000000000006040830152606082019050919050565b611e8181612113565b82525050565b611e908161211d565b82525050565b6000602082019050611eab6000830184611c4c565b92915050565b6000604082019050611ec66000830185611c4c565b611ed36020830184611e78565b9392505050565b600061010082019050611ef0600083018b611c4c565b611efd602083018a611e78565b611f0a6040830189611c6a565b611f176060830188611c4c565b611f246080830187611c79565b611f3160a0830186611e78565b611f3e60c0830185611e78565b81810360e0830152611f508184611cbe565b90509998505050505050505050565b6000606082019050611f746000830186611c4c565b611f816020830185611e78565b8181036040830152611f938184611c88565b9050949350505050565b6000602082019050611fb26000830184611c5b565b92915050565b60006020820190508181036000830152611fd28184611cf4565b905092915050565b60006020820190508181036000830152611ff381611d2a565b9050919050565b6000602082019050818103600083015261201381611d87565b9050919050565b6000602082019050818103600083015261203381611de4565b9050919050565b6000602082019050818103600083015261205381611e1b565b9050919050565b600060208201905061206f6000830184611e78565b92915050565b600060208201905061208a6000830184611e87565b92915050565b600081519050919050565b600081519050919050565b600081519050919050565b600073ffffffffffffffffffffffffffffffffffffffff82169050919050565b60008115159050919050565b6000819050919050565b60007fffffffff0000000000000000000000000000000000000000000000000000000082169050919050565b6000819050919050565b600060ff82169050919050565b60008115159050919050565b6000819050919050565b6000819050919050565b60005b8381101561216857808201518184015260208101905061214d565b83811115612177576000848401525b50505050565b6000601f19601f83011690509190505600a265627a7a723058207ab133705db626745e81b2665ff37836748484858f72831973ab9b7d7831f7c16c6578706572696d656e74616cf50037a265627a7a723058208487306ad3c1141c6f95cbb346861da5d7fcb120c35baf7dbe6f8db347d291e06c6578706572696d656e74616cf50037",
  "source": "pragma solidity 0.4.24;\r\npragma experimental ABIEncoderV2;\r\n\r\nimport \"./v0.4/ChainlinkClient.sol\";\r\nimport \"./v0.4/vendor/Ownable.sol\";\r\n\r\ncontract XBORDER is ChainlinkClient{\r\n\r\n    //Set the payment as one Oracle time the amount of link the contract has I Believe?\r\n    uint256 constant private ORACLE_PAYMENT = 1 * LINK;\r\n    bool public released;\r\n    uint8 public trueCount;\r\n    uint8 public falseCount;\r\n    \r\n    //These must all be set on creation\r\n    string public invoiceID;\r\n    address public payerAddress;\r\n    address public payeeAddress;\r\n    uint256 public amount;\r\n    uint256 public deploymentTime;\r\n\r\n    event successNodeResponse(\r\n        bool success\r\n    );\r\n//[\"892be77a8e7c4b4f988ed7e53d07229a\",\"892be77a8e7c4b4f988ed7e53d07229a\",\"892be77a8e7c4b4f988ed7e53d07229a\"]\r\n//[\"0x0D31C381c84d94292C07ec03D6FeE0c1bD6e15c1\",\"0x0D31C381c84d94292C07ec03D6FeE0c1bD6e15c1\",\"0x0D31C381c84d94292C07ec03D6FeE0c1bD6e15c1\"]\r\n    //Arrays 1:1 of Oracales and the corresponding Jobs IDs in those oracles\r\n    string[] public jobIds;\r\n    address[] public oracles;\r\n    constructor(\r\n        \r\n        string _invoiceID,\r\n        address  _payerAddress,\r\n        address  _payeeAddress,\r\n        uint256  _amount,\r\n        string[] _jobIds,\r\n        address[] _oracles\r\n        \r\n    )public payable{\r\n        deploymentTime = block.timestamp;\r\n        trueCount = 0;\r\n        falseCount = 0;\r\n        released = false;\r\n        invoiceID = _invoiceID;\r\n        payerAddress = _payerAddress;\r\n        payeeAddress = _payeeAddress;\r\n        amount = _amount;\r\n        jobIds = _jobIds;\r\n        oracles = _oracles;\r\n        setPublicChainlinkToken();\r\n    }\r\n    \r\n    function getjobIdsLength() public constant returns(uint) {\r\n        return jobIds.length;\r\n    }\r\n    \r\n    function getoraclesLength() public constant returns(uint) {\r\n        return oracles.length;\r\n    }\r\n    \r\n    \r\n    //modifier to only allow payees to access functions\r\n    modifier payeepayerContract(){\r\n        require(address(this) == msg.sender || payerAddress == msg.sender || payeeAddress == msg.sender,\"Unauthorised , must be payee or payer\");\r\n        _;\r\n    }\r\n\r\n    //Might Encounter ORACLE_PAYMENT problems with more than one oracle\r\n    //Needs more testing\r\n    function requestConfirmations()\r\n    public\r\n    payeepayerContract\r\n    {\r\n        //Reset them to 0 to be able to safely re-run the oracles\r\n        trueCount = 0;\r\n        falseCount = 0;\r\n        \r\n        //Loop to iterate through all the responses from different nodes\r\n        for(uint i = 0; i < oracles.length; i++){\r\n            Chainlink.Request memory req = buildChainlinkRequest(stringToBytes32(jobIds[i]), this, this.fulfillNodeRequest.selector);\r\n            req.add(\"invoice_id\", invoiceID);\r\n            sendChainlinkRequestTo(oracles[i], req, ORACLE_PAYMENT);\r\n        }\r\n\r\n    }\r\n\r\n    //This should fulfill the node request\r\n    function fulfillNodeRequest(bytes32 _requestId, bool paid)\r\n    public\r\n    recordChainlinkFulfillment(_requestId)\r\n    {\r\n        //emit NodeRequestFulfilled(_requestId, _output);\r\n        //Append to these to calculate if the deposit_amount should be released 0.2704\r\n        if(paid == true) {\r\n            //Invoice Paid\r\n            trueCount += 1;\r\n        }else if (paid == false){\r\n            //Invoice Not Paid Yet\r\n            falseCount += 1;\r\n        }\r\n        if(trueCount > falseCount){\r\n            released = true;\r\n        }\r\n        emit successNodeResponse(released);\r\n    }\r\n\r\n    //This isnt really needed\r\n    function getChainlinkToken() public view returns (address) {\r\n        return chainlinkTokenAddress();\r\n    }\r\n\r\n    //Withdraw ETH from contract\r\n    //Checks on who can withdraw should only be accessible by payee and payer\r\n    //If enough time has passed payer can withdraw the eth \r\n    //If the checks pass then the payee can withdraw the eth \r\n    //Maybe modifications that the payer can send the ETH to the payee.\r\n    function withdrawETH() public payeepayerContract {\r\n        if(msg.sender == payerAddress && deploymentTime <= block.timestamp + 1 days && (trueCount != 0 || falseCount != 0)){\r\n            if(released == false){\r\n                //If a day has passed then the payer can take back his ETH\r\n                address(msg.sender).transfer(amount);\r\n                amount = 0;\r\n            }\r\n        }else if (msg.sender == payeeAddress && released == true){\r\n            //Withdraw the ETH from the contract\r\n            address(msg.sender).transfer(amount);\r\n            amount = 0;\r\n        }else{\r\n            //Do Nothing cause you do not have access to this contract\r\n        }\r\n    }\r\n\r\n    //Withdraw Link from contract\r\n    function withdrawLink() public payeepayerContract{\r\n        LinkTokenInterface link = LinkTokenInterface(chainlinkTokenAddress());\r\n        require(link.transfer(msg.sender, link.balanceOf(address(this))), \"Unable to transfer\");\r\n    }\r\n\r\n    function stringToBytes32(string memory source) private pure returns (bytes32 result) {\r\n        bytes memory tempEmptyStringTest = bytes(source);\r\n        if (tempEmptyStringTest.length == 0) {\r\n          return 0x0;\r\n        }\r\n        //Or this\r\n        assembly{\r\n          result := mload(add(source, 32))\r\n        }\r\n    }\r\n}\r\n\r\n\r\n//XBORDERFactory, Produces the XBORDER agreements between users.\r\ncontract XBORDERFactory{\r\n    mapping (address => address[]) public XBORDERAddressespayer;\r\n    mapping (address => address[]) public XBORDERAddressespayee;\r\n    \r\n    //address public XBORDERAddress;\r\n    event contractDeployed(\r\n        address XBORDERAddress\r\n    );\r\n    \r\n    //Need to figure out parameters\r\n    //Link, Address To, ETH amount, Lock that amount of ETH\r\n    //Specify the chainlink node and job too\r\n    function createXBORDER(\r\n    \r\n        string _invoiceID,\r\n        address  _payeeAddress,\r\n        string[] _jobIds,\r\n        address[] _oracles\r\n        \r\n    ) public payable{\r\n        //Probably need more requirement checks\r\n        require(msg.value > 0,\"No Negative Values are allowed\");\r\n        \r\n        address XBORDERAddress = (new XBORDER).value(address(this).balance)(\r\n             _invoiceID,\r\n            msg.sender,\r\n            _payeeAddress,\r\n            msg.value,\r\n            _jobIds,\r\n            _oracles\r\n        );\r\n        \r\n        //If it didn't fail Lock that much into a balance\r\n        XBORDERAddressespayer[msg.sender].push(XBORDERAddress);\r\n        XBORDERAddressespayee[_payeeAddress].push(XBORDERAddress);\r\n    \r\n        //Emit an event here\\\r\n        emit contractDeployed(XBORDERAddress);\r\n    }\r\n    \r\n    function getXBORDERAddressespayer() public constant returns(uint) {\r\n        return XBORDERAddressespayer[msg.sender].length;\r\n    }\r\n    \r\n    function getXBORDERAddressespayee() public constant returns(uint) {\r\n      return XBORDERAddressespayee[msg.sender].length;\r\n    }\r\n}\r\n",
  "sourcePath": "D:\\xborder\\xborder\\src\\contracts\\XBORDER.sol",
  "compiler": {
    "name": "solc",
    "version": "0.4.24+commit.e67f0147.Emscripten.clang"
  },
  "schemaVersion": "3.1.0",
  "updatedAt": "2020-05-24T16:02:10.898Z",
  "devdoc": {
    "methods": {}
  },
  "userdoc": {
    "methods": {}
  }
}